{
  "contractName": "FlappySealsWhiteList",
  "abi": [
    {
      "inputs": [
        {
          "internalType": "address",
          "name": "_admin",
          "type": "address"
        },
        {
          "internalType": "bytes32",
          "name": "_merkleRoot",
          "type": "bytes32"
        }
      ],
      "stateMutability": "nonpayable",
      "type": "constructor"
    },
    {
      "inputs": [],
      "name": "ApprovalCallerNotOwnerNorApproved",
      "type": "error"
    },
    {
      "inputs": [],
      "name": "ApprovalQueryForNonexistentToken",
      "type": "error"
    },
    {
      "inputs": [],
      "name": "BalanceQueryForZeroAddress",
      "type": "error"
    },
    {
      "inputs": [],
      "name": "MintERC2309QuantityExceedsLimit",
      "type": "error"
    },
    {
      "inputs": [],
      "name": "MintToZeroAddress",
      "type": "error"
    },
    {
      "inputs": [],
      "name": "MintZeroQuantity",
      "type": "error"
    },
    {
      "inputs": [],
      "name": "OwnerQueryForNonexistentToken",
      "type": "error"
    },
    {
      "inputs": [],
      "name": "OwnershipNotInitializedForExtraData",
      "type": "error"
    },
    {
      "inputs": [],
      "name": "TransferCallerNotOwnerNorApproved",
      "type": "error"
    },
    {
      "inputs": [],
      "name": "TransferFromIncorrectOwner",
      "type": "error"
    },
    {
      "inputs": [],
      "name": "TransferToNonERC721ReceiverImplementer",
      "type": "error"
    },
    {
      "inputs": [],
      "name": "TransferToZeroAddress",
      "type": "error"
    },
    {
      "inputs": [],
      "name": "URIQueryForNonexistentToken",
      "type": "error"
    },
    {
      "anonymous": false,
      "inputs": [
        {
          "indexed": true,
          "internalType": "address",
          "name": "owner",
          "type": "address"
        },
        {
          "indexed": true,
          "internalType": "address",
          "name": "approved",
          "type": "address"
        },
        {
          "indexed": true,
          "internalType": "uint256",
          "name": "tokenId",
          "type": "uint256"
        }
      ],
      "name": "Approval",
      "type": "event"
    },
    {
      "anonymous": false,
      "inputs": [
        {
          "indexed": true,
          "internalType": "address",
          "name": "owner",
          "type": "address"
        },
        {
          "indexed": true,
          "internalType": "address",
          "name": "operator",
          "type": "address"
        },
        {
          "indexed": false,
          "internalType": "bool",
          "name": "approved",
          "type": "bool"
        }
      ],
      "name": "ApprovalForAll",
      "type": "event"
    },
    {
      "anonymous": false,
      "inputs": [
        {
          "indexed": true,
          "internalType": "uint256",
          "name": "fromTokenId",
          "type": "uint256"
        },
        {
          "indexed": false,
          "internalType": "uint256",
          "name": "toTokenId",
          "type": "uint256"
        },
        {
          "indexed": true,
          "internalType": "address",
          "name": "from",
          "type": "address"
        },
        {
          "indexed": true,
          "internalType": "address",
          "name": "to",
          "type": "address"
        }
      ],
      "name": "ConsecutiveTransfer",
      "type": "event"
    },
    {
      "anonymous": false,
      "inputs": [
        {
          "indexed": true,
          "internalType": "address",
          "name": "previousOwner",
          "type": "address"
        },
        {
          "indexed": true,
          "internalType": "address",
          "name": "newOwner",
          "type": "address"
        }
      ],
      "name": "OwnershipTransferred",
      "type": "event"
    },
    {
      "anonymous": false,
      "inputs": [
        {
          "indexed": true,
          "internalType": "address",
          "name": "from",
          "type": "address"
        },
        {
          "indexed": true,
          "internalType": "address",
          "name": "to",
          "type": "address"
        },
        {
          "indexed": true,
          "internalType": "uint256",
          "name": "tokenId",
          "type": "uint256"
        }
      ],
      "name": "Transfer",
      "type": "event"
    },
    {
      "inputs": [
        {
          "internalType": "address",
          "name": "to",
          "type": "address"
        },
        {
          "internalType": "uint256",
          "name": "tokenId",
          "type": "uint256"
        }
      ],
      "name": "approve",
      "outputs": [],
      "stateMutability": "payable",
      "type": "function",
      "payable": true
    },
    {
      "inputs": [
        {
          "internalType": "address",
          "name": "owner",
          "type": "address"
        }
      ],
      "name": "balanceOf",
      "outputs": [
        {
          "internalType": "uint256",
          "name": "",
          "type": "uint256"
        }
      ],
      "stateMutability": "view",
      "type": "function",
      "constant": true
    },
    {
      "inputs": [
        {
          "internalType": "uint256",
          "name": "tokenId",
          "type": "uint256"
        }
      ],
      "name": "getApproved",
      "outputs": [
        {
          "internalType": "address",
          "name": "",
          "type": "address"
        }
      ],
      "stateMutability": "view",
      "type": "function",
      "constant": true
    },
    {
      "inputs": [
        {
          "internalType": "address",
          "name": "owner",
          "type": "address"
        },
        {
          "internalType": "address",
          "name": "operator",
          "type": "address"
        }
      ],
      "name": "isApprovedForAll",
      "outputs": [
        {
          "internalType": "bool",
          "name": "",
          "type": "bool"
        }
      ],
      "stateMutability": "view",
      "type": "function",
      "constant": true
    },
    {
      "inputs": [],
      "name": "maxSupply",
      "outputs": [
        {
          "internalType": "uint256",
          "name": "",
          "type": "uint256"
        }
      ],
      "stateMutability": "view",
      "type": "function",
      "constant": true
    },
    {
      "inputs": [],
      "name": "merkleRoot",
      "outputs": [
        {
          "internalType": "bytes32",
          "name": "",
          "type": "bytes32"
        }
      ],
      "stateMutability": "view",
      "type": "function",
      "constant": true
    },
    {
      "inputs": [],
      "name": "mintPerAddress",
      "outputs": [
        {
          "internalType": "uint256",
          "name": "",
          "type": "uint256"
        }
      ],
      "stateMutability": "view",
      "type": "function",
      "constant": true
    },
    {
      "inputs": [],
      "name": "name",
      "outputs": [
        {
          "internalType": "string",
          "name": "",
          "type": "string"
        }
      ],
      "stateMutability": "view",
      "type": "function",
      "constant": true
    },
    {
      "inputs": [],
      "name": "owner",
      "outputs": [
        {
          "internalType": "address",
          "name": "",
          "type": "address"
        }
      ],
      "stateMutability": "view",
      "type": "function",
      "constant": true
    },
    {
      "inputs": [
        {
          "internalType": "uint256",
          "name": "tokenId",
          "type": "uint256"
        }
      ],
      "name": "ownerOf",
      "outputs": [
        {
          "internalType": "address",
          "name": "",
          "type": "address"
        }
      ],
      "stateMutability": "view",
      "type": "function",
      "constant": true
    },
    {
      "inputs": [],
      "name": "pricePerNFT",
      "outputs": [
        {
          "internalType": "uint256",
          "name": "",
          "type": "uint256"
        }
      ],
      "stateMutability": "view",
      "type": "function",
      "constant": true
    },
    {
      "inputs": [],
      "name": "renounceOwnership",
      "outputs": [],
      "stateMutability": "nonpayable",
      "type": "function"
    },
    {
      "inputs": [
        {
          "internalType": "address",
          "name": "from",
          "type": "address"
        },
        {
          "internalType": "address",
          "name": "to",
          "type": "address"
        },
        {
          "internalType": "uint256",
          "name": "tokenId",
          "type": "uint256"
        }
      ],
      "name": "safeTransferFrom",
      "outputs": [],
      "stateMutability": "payable",
      "type": "function",
      "payable": true
    },
    {
      "inputs": [
        {
          "internalType": "address",
          "name": "from",
          "type": "address"
        },
        {
          "internalType": "address",
          "name": "to",
          "type": "address"
        },
        {
          "internalType": "uint256",
          "name": "tokenId",
          "type": "uint256"
        },
        {
          "internalType": "bytes",
          "name": "_data",
          "type": "bytes"
        }
      ],
      "name": "safeTransferFrom",
      "outputs": [],
      "stateMutability": "payable",
      "type": "function",
      "payable": true
    },
    {
      "inputs": [
        {
          "internalType": "address",
          "name": "operator",
          "type": "address"
        },
        {
          "internalType": "bool",
          "name": "approved",
          "type": "bool"
        }
      ],
      "name": "setApprovalForAll",
      "outputs": [],
      "stateMutability": "nonpayable",
      "type": "function"
    },
    {
      "inputs": [
        {
          "internalType": "bytes4",
          "name": "interfaceId",
          "type": "bytes4"
        }
      ],
      "name": "supportsInterface",
      "outputs": [
        {
          "internalType": "bool",
          "name": "",
          "type": "bool"
        }
      ],
      "stateMutability": "view",
      "type": "function",
      "constant": true
    },
    {
      "inputs": [],
      "name": "symbol",
      "outputs": [
        {
          "internalType": "string",
          "name": "",
          "type": "string"
        }
      ],
      "stateMutability": "view",
      "type": "function",
      "constant": true
    },
    {
      "inputs": [],
      "name": "totalSupply",
      "outputs": [
        {
          "internalType": "uint256",
          "name": "",
          "type": "uint256"
        }
      ],
      "stateMutability": "view",
      "type": "function",
      "constant": true
    },
    {
      "inputs": [
        {
          "internalType": "address",
          "name": "from",
          "type": "address"
        },
        {
          "internalType": "address",
          "name": "to",
          "type": "address"
        },
        {
          "internalType": "uint256",
          "name": "tokenId",
          "type": "uint256"
        }
      ],
      "name": "transferFrom",
      "outputs": [],
      "stateMutability": "payable",
      "type": "function",
      "payable": true
    },
    {
      "inputs": [
        {
          "internalType": "address",
          "name": "newOwner",
          "type": "address"
        }
      ],
      "name": "transferOwnership",
      "outputs": [],
      "stateMutability": "nonpayable",
      "type": "function"
    },
    {
      "inputs": [
        {
          "internalType": "uint256",
          "name": "_amount",
          "type": "uint256"
        }
      ],
      "name": "mint",
      "outputs": [],
      "stateMutability": "payable",
      "type": "function",
      "payable": true
    },
    {
      "inputs": [
        {
          "internalType": "uint256",
          "name": "_amount",
          "type": "uint256"
        },
        {
          "internalType": "bytes32[]",
          "name": "merkleProof",
          "type": "bytes32[]"
        }
      ],
      "name": "mintWhitelist",
      "outputs": [],
      "stateMutability": "payable",
      "type": "function",
      "payable": true
    },
    {
      "inputs": [
        {
          "internalType": "uint256",
          "name": "_amount",
          "type": "uint256"
        }
      ],
      "name": "setPrice",
      "outputs": [],
      "stateMutability": "nonpayable",
      "type": "function"
    },
    {
      "inputs": [
        {
          "internalType": "uint256",
          "name": "_amount",
          "type": "uint256"
        }
      ],
      "name": "setMaxMintPerAddress",
      "outputs": [],
      "stateMutability": "nonpayable",
      "type": "function"
    },
    {
      "inputs": [],
      "name": "withdraw",
      "outputs": [],
      "stateMutability": "nonpayable",
      "type": "function"
    },
    {
      "inputs": [
        {
          "internalType": "string",
          "name": "baseURI",
          "type": "string"
        }
      ],
      "name": "setBaseURI",
      "outputs": [],
      "stateMutability": "nonpayable",
      "type": "function"
    },
    {
      "inputs": [
        {
          "internalType": "uint256",
          "name": "tokenId",
          "type": "uint256"
        }
      ],
      "name": "tokenURI",
      "outputs": [
        {
          "internalType": "string",
          "name": "",
          "type": "string"
        }
      ],
      "stateMutability": "view",
      "type": "function",
      "constant": true
    }
  ],
  "bytecode": "0x60a06040523480156200001157600080fd5b5060405162003659380380620036598339818101604052810190620000379190620002ef565b6040518060400160405280600c81526020017f466c61707079205365616c7300000000000000000000000000000000000000008152506040518060400160405280600581526020017f5345414c530000000000000000000000000000000000000000000000000000008152508160029081620000b49190620005b0565b508060039081620000c69190620005b0565b50620000d76200017360201b60201c565b6000819055505050620000ff620000f36200017c60201b60201c565b6200018460201b60201c565b6103e86009819055506003600a8190555066354a6ba7a18000600b819055506001600e60008473ffffffffffffffffffffffffffffffffffffffff1673ffffffffffffffffffffffffffffffffffffffff168152602001908152602001600020819055508060808181525050505062000697565b60006001905090565b600033905090565b6000600860009054906101000a900473ffffffffffffffffffffffffffffffffffffffff16905081600860006101000a81548173ffffffffffffffffffffffffffffffffffffffff021916908373ffffffffffffffffffffffffffffffffffffffff1602179055508173ffffffffffffffffffffffffffffffffffffffff168173ffffffffffffffffffffffffffffffffffffffff167f8be0079c531659141344cd1fd0a4f28419497f9722a3daafe3b4186f6b6457e060405160405180910390a35050565b600080fd5b600073ffffffffffffffffffffffffffffffffffffffff82169050919050565b60006200027c826200024f565b9050919050565b6200028e816200026f565b81146200029a57600080fd5b50565b600081519050620002ae8162000283565b92915050565b6000819050919050565b620002c981620002b4565b8114620002d557600080fd5b50565b600081519050620002e981620002be565b92915050565b600080604083850312156200030957620003086200024a565b5b600062000319858286016200029d565b92505060206200032c85828601620002d8565b9150509250929050565b600081519050919050565b7f4e487b7100000000000000000000000000000000000000000000000000000000600052604160045260246000fd5b7f4e487b7100000000000000000000000000000000000000000000000000000000600052602260045260246000fd5b60006002820490506001821680620003b857607f821691505b602082108103620003ce57620003cd62000370565b5b50919050565b60008190508160005260206000209050919050565b60006020601f8301049050919050565b600082821b905092915050565b600060088302620004387fffffffffffffffffffffffffffffffffffffffffffffffffffffffffffffffff82620003f9565b620004448683620003f9565b95508019841693508086168417925050509392505050565b6000819050919050565b6000819050919050565b6000620004916200048b62000485846200045c565b62000466565b6200045c565b9050919050565b6000819050919050565b620004ad8362000470565b620004c5620004bc8262000498565b84845462000406565b825550505050565b600090565b620004dc620004cd565b620004e9818484620004a2565b505050565b5b81811015620005115762000505600082620004d2565b600181019050620004ef565b5050565b601f82111562000560576200052a81620003d4565b6200053584620003e9565b8101602085101562000545578190505b6200055d6200055485620003e9565b830182620004ee565b50505b505050565b600082821c905092915050565b6000620005856000198460080262000565565b1980831691505092915050565b6000620005a0838362000572565b9150826002028217905092915050565b620005bb8262000336565b67ffffffffffffffff811115620005d757620005d662000341565b5b620005e382546200039f565b620005f082828562000515565b600060209050601f83116001811462000628576000841562000613578287015190505b6200061f858262000592565b8655506200068f565b601f1984166200063886620003d4565b60005b8281101562000662578489015182556001820191506020850194506020810190506200063b565b868310156200068257848901516200067e601f89168262000572565b8355505b6001600288020188555050505b505050505050565b608051612f9f620006ba600039600081816108050152610e810152612f9f6000f3fe60806040526004361061019c5760003560e01c80636352211e116100ec578063a22cb4651161008a578063d5abeb0111610064578063d5abeb011461054e578063e985e9c514610579578063f2fde38b146105b6578063f47a269c146105df5761019c565b8063a22cb465146104cc578063b88d4fde146104f5578063c87b56dd146105115761019c565b80638da5cb5b116100c65780638da5cb5b1461043157806391b7f5ed1461045c57806395d89b4114610485578063a0712d68146104b05761019c565b80636352211e146103a057806370a08231146103dd578063715018a61461041a5761019c565b806318160ddd116101595780632eb4a7ab116101335780632eb4a7ab146103195780633ccfd60b1461034457806342842e0e1461035b57806355f804b3146103775761019c565b806318160ddd146102a95780631e14d44b146102d457806323b872dd146102fd5761019c565b806301ffc9a7146101a1578063061431a8146101de5780630628aa70146101fa57806306fdde0314610225578063081812fc14610250578063095ea7b31461028d575b600080fd5b3480156101ad57600080fd5b506101c860048036038101906101c3919061200a565b61060a565b6040516101d59190612052565b60405180910390f35b6101f860048036038101906101f39190612108565b61069c565b005b34801561020657600080fd5b5061020f6108d9565b60405161021c9190612177565b60405180910390f35b34801561023157600080fd5b5061023a6108df565b6040516102479190612222565b60405180910390f35b34801561025c57600080fd5b5061027760048036038101906102729190612244565b610971565b60405161028491906122b2565b60405180910390f35b6102a760048036038101906102a291906122f9565b6109f0565b005b3480156102b557600080fd5b506102be610b34565b6040516102cb9190612177565b60405180910390f35b3480156102e057600080fd5b506102fb60048036038101906102f69190612244565b610b4b565b005b61031760048036038101906103129190612339565b610b5d565b005b34801561032557600080fd5b5061032e610e7f565b60405161033b91906123a5565b60405180910390f35b34801561035057600080fd5b50610359610ea3565b005b61037560048036038101906103709190612339565b610f38565b005b34801561038357600080fd5b5061039e60048036038101906103999190612416565b610f58565b005b3480156103ac57600080fd5b506103c760048036038101906103c29190612244565b610f76565b6040516103d491906122b2565b60405180910390f35b3480156103e957600080fd5b5061040460048036038101906103ff9190612463565b610f88565b6040516104119190612177565b60405180910390f35b34801561042657600080fd5b5061042f611040565b005b34801561043d57600080fd5b50610446611054565b60405161045391906122b2565b60405180910390f35b34801561046857600080fd5b50610483600480360381019061047e9190612244565b61107e565b005b34801561049157600080fd5b5061049a611090565b6040516104a79190612222565b60405180910390f35b6104ca60048036038101906104c59190612244565b611122565b005b3480156104d857600080fd5b506104f360048036038101906104ee91906124bc565b6112a3565b005b61050f600480360381019061050a919061262c565b6113ae565b005b34801561051d57600080fd5b5061053860048036038101906105339190612244565b611421565b6040516105459190612222565b60405180910390f35b34801561055a57600080fd5b50610563611480565b6040516105709190612177565b60405180910390f35b34801561058557600080fd5b506105a0600480360381019061059b91906126af565b611486565b6040516105ad9190612052565b60405180910390f35b3480156105c257600080fd5b506105dd60048036038101906105d89190612463565b61151a565b005b3480156105eb57600080fd5b506105f461159d565b6040516106019190612177565b60405180910390f35b60006301ffc9a760e01b827bffffffffffffffffffffffffffffffffffffffffffffffffffffffff1916148061066557506380ac58cd60e01b827bffffffffffffffffffffffffffffffffffffffffffffffffffffffff1916145b806106955750635b5e139f60e01b827bffffffffffffffffffffffffffffffffffffffffffffffffffffffff1916145b9050919050565b6009546106a7610b34565b106106e7576040517f08c379a00000000000000000000000000000000000000000000000000000000081526004016106de9061273b565b60405180910390fd5b600a54600d60003373ffffffffffffffffffffffffffffffffffffffff1673ffffffffffffffffffffffffffffffffffffffff168152602001908152602001600020541061076a576040517f08c379a0000000000000000000000000000000000000000000000000000000008152600401610761906127a7565b60405180910390fd5b82600b5461077891906127f6565b3410156107ba576040517f08c379a00000000000000000000000000000000000000000000000000000000081526004016107b190612884565b60405180910390fd5b60011515610832838380806020026020016040519081016040528093929190818152602001838360200280828437600081840152601f19601f820116905080830192505050505050507f000000000000000000000000000000000000000000000000000000000000000061082d336115a3565b6115c6565b151514610874576040517f08c379a000000000000000000000000000000000000000000000000000000000815260040161086b906128f0565b60405180910390fd5b82600d60003373ffffffffffffffffffffffffffffffffffffffff1673ffffffffffffffffffffffffffffffffffffffff16815260200190815260200160002060008282546108c39190612910565b925050819055506108d433846115dd565b505050565b600b5481565b6060600280546108ee90612973565b80601f016020809104026020016040519081016040528092919081815260200182805461091a90612973565b80156109675780601f1061093c57610100808354040283529160200191610967565b820191906000526020600020905b81548152906001019060200180831161094a57829003601f168201915b5050505050905090565b600061097c82611798565b6109b2576040517fcf4700e400000000000000000000000000000000000000000000000000000000815260040160405180910390fd5b6006600083815260200190815260200160002060000160009054906101000a900473ffffffffffffffffffffffffffffffffffffffff169050919050565b60006109fb82610f76565b90508073ffffffffffffffffffffffffffffffffffffffff16610a1c6117f7565b73ffffffffffffffffffffffffffffffffffffffff1614610a7f57610a4881610a436117f7565b611486565b610a7e576040517fcfb3b94200000000000000000000000000000000000000000000000000000000815260040160405180910390fd5b5b826006600084815260200190815260200160002060000160006101000a81548173ffffffffffffffffffffffffffffffffffffffff021916908373ffffffffffffffffffffffffffffffffffffffff160217905550818373ffffffffffffffffffffffffffffffffffffffff168273ffffffffffffffffffffffffffffffffffffffff167f8c5be1e5ebec7d5bd14f71427d1e84f3dd0314c0f7b2291e5b200ac8c7c3b92560405160405180910390a4505050565b6000610b3e6117ff565b6001546000540303905090565b610b53611808565b80600a8190555050565b6000610b6882611886565b90508373ffffffffffffffffffffffffffffffffffffffff168173ffffffffffffffffffffffffffffffffffffffff1614610bcf576040517fa114810000000000000000000000000000000000000000000000000000000000815260040160405180910390fd5b600080610bdb84611952565b91509150610bf18187610bec6117f7565b611979565b610c3d57610c0686610c016117f7565b611486565b610c3c576040517f59c896be00000000000000000000000000000000000000000000000000000000815260040160405180910390fd5b5b600073ffffffffffffffffffffffffffffffffffffffff168573ffffffffffffffffffffffffffffffffffffffff1603610ca3576040517fea553b3400000000000000000000000000000000000000000000000000000000815260040160405180910390fd5b610cb086868660016119bd565b8015610cbb57600082555b600560008773ffffffffffffffffffffffffffffffffffffffff1673ffffffffffffffffffffffffffffffffffffffff168152602001908152602001600020600081546001900391905081905550600560008673ffffffffffffffffffffffffffffffffffffffff1673ffffffffffffffffffffffffffffffffffffffff1681526020019081526020016000206000815460010191905081905550610d8985610d658888876119c3565b7c0200000000000000000000000000000000000000000000000000000000176119eb565b600460008681526020019081526020016000208190555060007c0200000000000000000000000000000000000000000000000000000000841603610e0f5760006001850190506000600460008381526020019081526020016000205403610e0d576000548114610e0c578360046000838152602001908152602001600020819055505b5b505b838573ffffffffffffffffffffffffffffffffffffffff168773ffffffffffffffffffffffffffffffffffffffff167fddf252ad1be2c89b69c2b068fc378daa952ba7f163c4a11628f55a4df523b3ef60405160405180910390a4610e778686866001611a16565b505050505050565b7f000000000000000000000000000000000000000000000000000000000000000081565b6001600e60003373ffffffffffffffffffffffffffffffffffffffff1673ffffffffffffffffffffffffffffffffffffffff1681526020019081526020016000205414610eef57600080fd5b3373ffffffffffffffffffffffffffffffffffffffff166108fc479081150290604051600060405180830381858888f19350505050158015610f35573d6000803e3d6000fd5b50565b610f53838383604051806020016040528060008152506113ae565b505050565b610f60611808565b8181600c9182610f71929190612b5b565b505050565b6000610f8182611886565b9050919050565b60008073ffffffffffffffffffffffffffffffffffffffff168273ffffffffffffffffffffffffffffffffffffffff1603610fef576040517f8f4eb60400000000000000000000000000000000000000000000000000000000815260040160405180910390fd5b67ffffffffffffffff600560008473ffffffffffffffffffffffffffffffffffffffff1673ffffffffffffffffffffffffffffffffffffffff16815260200190815260200160002054169050919050565b611048611808565b6110526000611a1c565b565b6000600860009054906101000a900473ffffffffffffffffffffffffffffffffffffffff16905090565b611086611808565b80600b8190555050565b60606003805461109f90612973565b80601f01602080910402602001604051908101604052809291908181526020018280546110cb90612973565b80156111185780601f106110ed57610100808354040283529160200191611118565b820191906000526020600020905b8154815290600101906020018083116110fb57829003601f168201915b5050505050905090565b60095461112d610b34565b1061116d576040517f08c379a00000000000000000000000000000000000000000000000000000000081526004016111649061273b565b60405180910390fd5b600a54600d60003373ffffffffffffffffffffffffffffffffffffffff1673ffffffffffffffffffffffffffffffffffffffff16815260200190815260200160002054106111f0576040517f08c379a00000000000000000000000000000000000000000000000000000000081526004016111e7906127a7565b60405180910390fd5b80600b546111fe91906127f6565b341015611240576040517f08c379a000000000000000000000000000000000000000000000000000000000815260040161123790612884565b60405180910390fd5b80600d60003373ffffffffffffffffffffffffffffffffffffffff1673ffffffffffffffffffffffffffffffffffffffff168152602001908152602001600020600082825461128f9190612910565b925050819055506112a033826115dd565b50565b80600760006112b06117f7565b73ffffffffffffffffffffffffffffffffffffffff1673ffffffffffffffffffffffffffffffffffffffff16815260200190815260200160002060008473ffffffffffffffffffffffffffffffffffffffff1673ffffffffffffffffffffffffffffffffffffffff16815260200190815260200160002060006101000a81548160ff0219169083151502179055508173ffffffffffffffffffffffffffffffffffffffff1661135d6117f7565b73ffffffffffffffffffffffffffffffffffffffff167f17307eab39ab6107e8899845ad3d59bd9653f200f220920489ca2b5937696c31836040516113a29190612052565b60405180910390a35050565b6113b9848484610b5d565b60008373ffffffffffffffffffffffffffffffffffffffff163b1461141b576113e484848484611ae2565b61141a576040517fd1a57ed600000000000000000000000000000000000000000000000000000000815260040160405180910390fd5b5b50505050565b6060600061142d611c32565b9050600081511161144d5760405180602001604052806000815250611478565b8061145784611cc4565b604051602001611468929190612cb3565b6040516020818303038152906040525b915050919050565b60095481565b6000600760008473ffffffffffffffffffffffffffffffffffffffff1673ffffffffffffffffffffffffffffffffffffffff16815260200190815260200160002060008373ffffffffffffffffffffffffffffffffffffffff1673ffffffffffffffffffffffffffffffffffffffff16815260200190815260200160002060009054906101000a900460ff16905092915050565b611522611808565b600073ffffffffffffffffffffffffffffffffffffffff168173ffffffffffffffffffffffffffffffffffffffff1603611591576040517f08c379a000000000000000000000000000000000000000000000000000000000815260040161158890612d54565b60405180910390fd5b61159a81611a1c565b50565b600a5481565b60008173ffffffffffffffffffffffffffffffffffffffff1660001b9050919050565b6000826115d38584611d92565b1490509392505050565b6000805490506000820361161d576040517fb562e8dd00000000000000000000000000000000000000000000000000000000815260040160405180910390fd5b61162a60008483856119bd565b600160406001901b178202600560008573ffffffffffffffffffffffffffffffffffffffff1673ffffffffffffffffffffffffffffffffffffffff168152602001908152602001600020600082825401925050819055506116a18361169260008660006119c3565b61169b85611de8565b176119eb565b6004600083815260200190815260200160002081905550600080838301905073ffffffffffffffffffffffffffffffffffffffff85169150828260007fddf252ad1be2c89b69c2b068fc378daa952ba7f163c4a11628f55a4df523b3ef600080a4600183015b81811461174257808360007fddf252ad1be2c89b69c2b068fc378daa952ba7f163c4a11628f55a4df523b3ef600080a4600181019050611707565b506000820361177d576040517f2e07630000000000000000000000000000000000000000000000000000000000815260040160405180910390fd5b8060008190555050506117936000848385611a16565b505050565b6000816117a36117ff565b111580156117b2575060005482105b80156117f0575060007c0100000000000000000000000000000000000000000000000000000000600460008581526020019081526020016000205416145b9050919050565b600033905090565b60006001905090565b611810611df8565b73ffffffffffffffffffffffffffffffffffffffff1661182e611054565b73ffffffffffffffffffffffffffffffffffffffff1614611884576040517f08c379a000000000000000000000000000000000000000000000000000000000815260040161187b90612dc0565b60405180910390fd5b565b600080829050806118956117ff565b1161191b5760005481101561191a5760006004600083815260200190815260200160002054905060007c0100000000000000000000000000000000000000000000000000000000821603611918575b6000810361190e5760046000836001900393508381526020019081526020016000205490506118e4565b809250505061194d565b505b5b6040517fdf2d9b4200000000000000000000000000000000000000000000000000000000815260040160405180910390fd5b919050565b60008060006006600085815260200190815260200160002090508092508254915050915091565b600073ffffffffffffffffffffffffffffffffffffffff8316925073ffffffffffffffffffffffffffffffffffffffff821691508382148383141790509392505050565b50505050565b60008060e883901c905060e86119da868684611e00565b62ffffff16901b9150509392505050565b600073ffffffffffffffffffffffffffffffffffffffff83169250814260a01b178317905092915050565b50505050565b6000600860009054906101000a900473ffffffffffffffffffffffffffffffffffffffff16905081600860006101000a81548173ffffffffffffffffffffffffffffffffffffffff021916908373ffffffffffffffffffffffffffffffffffffffff1602179055508173ffffffffffffffffffffffffffffffffffffffff168173ffffffffffffffffffffffffffffffffffffffff167f8be0079c531659141344cd1fd0a4f28419497f9722a3daafe3b4186f6b6457e060405160405180910390a35050565b60008373ffffffffffffffffffffffffffffffffffffffff1663150b7a02611b086117f7565b8786866040518563ffffffff1660e01b8152600401611b2a9493929190612e35565b6020604051808303816000875af1925050508015611b6657506040513d601f19601f82011682018060405250810190611b639190612e96565b60015b611bdf573d8060008114611b96576040519150601f19603f3d011682016040523d82523d6000602084013e611b9b565b606091505b506000815103611bd7576040517fd1a57ed600000000000000000000000000000000000000000000000000000000815260040160405180910390fd5b805181602001fd5b63150b7a0260e01b7bffffffffffffffffffffffffffffffffffffffffffffffffffffffff1916817bffffffffffffffffffffffffffffffffffffffffffffffffffffffff191614915050949350505050565b6060600c8054611c4190612973565b80601f0160208091040260200160405190810160405280929190818152602001828054611c6d90612973565b8015611cba5780601f10611c8f57610100808354040283529160200191611cba565b820191906000526020600020905b815481529060010190602001808311611c9d57829003601f168201915b5050505050905090565b606060006001611cd384611e09565b01905060008167ffffffffffffffff811115611cf257611cf1612501565b5b6040519080825280601f01601f191660200182016040528015611d245781602001600182028036833780820191505090505b509050600082602001820190505b600115611d87578080600190039150507f3031323334353637383961626364656600000000000000000000000000000000600a86061a8153600a8581611d7b57611d7a612ec3565b5b04945060008503611d32575b819350505050919050565b60008082905060005b8451811015611ddd57611dc882868381518110611dbb57611dba612ef2565b5b6020026020010151611f5c565b91508080611dd590612f21565b915050611d9b565b508091505092915050565b60006001821460e11b9050919050565b600033905090565b60009392505050565b600080600090507a184f03e93ff9f4daa797ed6e38ed64bf6a1f0100000000000000008310611e67577a184f03e93ff9f4daa797ed6e38ed64bf6a1f0100000000000000008381611e5d57611e5c612ec3565b5b0492506040810190505b6d04ee2d6d415b85acef81000000008310611ea4576d04ee2d6d415b85acef81000000008381611e9a57611e99612ec3565b5b0492506020810190505b662386f26fc100008310611ed357662386f26fc100008381611ec957611ec8612ec3565b5b0492506010810190505b6305f5e1008310611efc576305f5e1008381611ef257611ef1612ec3565b5b0492506008810190505b6127108310611f21576127108381611f1757611f16612ec3565b5b0492506004810190505b60648310611f445760648381611f3a57611f39612ec3565b5b0492506002810190505b600a8310611f53576001810190505b80915050919050565b6000818310611f7457611f6f8284611f87565b611f7f565b611f7e8383611f87565b5b905092915050565b600082600052816020526040600020905092915050565b6000604051905090565b600080fd5b600080fd5b60007fffffffff0000000000000000000000000000000000000000000000000000000082169050919050565b611fe781611fb2565b8114611ff257600080fd5b50565b60008135905061200481611fde565b92915050565b6000602082840312156120205761201f611fa8565b5b600061202e84828501611ff5565b91505092915050565b60008115159050919050565b61204c81612037565b82525050565b60006020820190506120676000830184612043565b92915050565b6000819050919050565b6120808161206d565b811461208b57600080fd5b50565b60008135905061209d81612077565b92915050565b600080fd5b600080fd5b600080fd5b60008083601f8401126120c8576120c76120a3565b5b8235905067ffffffffffffffff8111156120e5576120e46120a8565b5b602083019150836020820283011115612101576121006120ad565b5b9250929050565b60008060006040848603121561212157612120611fa8565b5b600061212f8682870161208e565b935050602084013567ffffffffffffffff8111156121505761214f611fad565b5b61215c868287016120b2565b92509250509250925092565b6121718161206d565b82525050565b600060208201905061218c6000830184612168565b92915050565b600081519050919050565b600082825260208201905092915050565b60005b838110156121cc5780820151818401526020810190506121b1565b60008484015250505050565b6000601f19601f8301169050919050565b60006121f482612192565b6121fe818561219d565b935061220e8185602086016121ae565b612217816121d8565b840191505092915050565b6000602082019050818103600083015261223c81846121e9565b905092915050565b60006020828403121561225a57612259611fa8565b5b60006122688482850161208e565b91505092915050565b600073ffffffffffffffffffffffffffffffffffffffff82169050919050565b600061229c82612271565b9050919050565b6122ac81612291565b82525050565b60006020820190506122c760008301846122a3565b92915050565b6122d681612291565b81146122e157600080fd5b50565b6000813590506122f3816122cd565b92915050565b600080604083850312156123105761230f611fa8565b5b600061231e858286016122e4565b925050602061232f8582860161208e565b9150509250929050565b60008060006060848603121561235257612351611fa8565b5b6000612360868287016122e4565b9350506020612371868287016122e4565b92505060406123828682870161208e565b9150509250925092565b6000819050919050565b61239f8161238c565b82525050565b60006020820190506123ba6000830184612396565b92915050565b60008083601f8401126123d6576123d56120a3565b5b8235905067ffffffffffffffff8111156123f3576123f26120a8565b5b60208301915083600182028301111561240f5761240e6120ad565b5b9250929050565b6000806020838503121561242d5761242c611fa8565b5b600083013567ffffffffffffffff81111561244b5761244a611fad565b5b612457858286016123c0565b92509250509250929050565b60006020828403121561247957612478611fa8565b5b6000612487848285016122e4565b91505092915050565b61249981612037565b81146124a457600080fd5b50565b6000813590506124b681612490565b92915050565b600080604083850312156124d3576124d2611fa8565b5b60006124e1858286016122e4565b92505060206124f2858286016124a7565b9150509250929050565b600080fd5b7f4e487b7100000000000000000000000000000000000000000000000000000000600052604160045260246000fd5b612539826121d8565b810181811067ffffffffffffffff8211171561255857612557612501565b5b80604052505050565b600061256b611f9e565b90506125778282612530565b919050565b600067ffffffffffffffff82111561259757612596612501565b5b6125a0826121d8565b9050602081019050919050565b82818337600083830152505050565b60006125cf6125ca8461257c565b612561565b9050828152602081018484840111156125eb576125ea6124fc565b5b6125f68482856125ad565b509392505050565b600082601f830112612613576126126120a3565b5b81356126238482602086016125bc565b91505092915050565b6000806000806080858703121561264657612645611fa8565b5b6000612654878288016122e4565b9450506020612665878288016122e4565b93505060406126768782880161208e565b925050606085013567ffffffffffffffff81111561269757612696611fad565b5b6126a3878288016125fe565b91505092959194509250565b600080604083850312156126c6576126c5611fa8565b5b60006126d4858286016122e4565b92505060206126e5858286016122e4565b9150509250929050565b7f4d617820737570706c7920726561636865640000000000000000000000000000600082015250565b600061272560128361219d565b9150612730826126ef565b602082019050919050565b6000602082019050818103600083015261275481612718565b9050919050565b7f4578636565646564206d6178206d696e74207065722061646472657373000000600082015250565b6000612791601d8361219d565b915061279c8261275b565b602082019050919050565b600060208201905081810360008301526127c081612784565b9050919050565b7f4e487b7100000000000000000000000000000000000000000000000000000000600052601160045260246000fd5b60006128018261206d565b915061280c8361206d565b925082820261281a8161206d565b91508282048414831517612831576128306127c7565b5b5092915050565b7f4e6f7420656e6f7567682062616c616e63650000000000000000000000000000600082015250565b600061286e60128361219d565b915061287982612838565b602082019050919050565b6000602082019050818103600083015261289d81612861565b9050919050565b7f696e76616c6964206d65726b6c652070726f6f66000000000000000000000000600082015250565b60006128da60148361219d565b91506128e5826128a4565b602082019050919050565b60006020820190508181036000830152612909816128cd565b9050919050565b600061291b8261206d565b91506129268361206d565b925082820190508082111561293e5761293d6127c7565b5b92915050565b7f4e487b7100000000000000000000000000000000000000000000000000000000600052602260045260246000fd5b6000600282049050600182168061298b57607f821691505b60208210810361299e5761299d612944565b5b50919050565b600082905092915050565b60008190508160005260206000209050919050565b60006020601f8301049050919050565b600082821b905092915050565b600060088302612a117fffffffffffffffffffffffffffffffffffffffffffffffffffffffffffffffff826129d4565b612a1b86836129d4565b95508019841693508086168417925050509392505050565b6000819050919050565b6000612a58612a53612a4e8461206d565b612a33565b61206d565b9050919050565b6000819050919050565b612a7283612a3d565b612a86612a7e82612a5f565b8484546129e1565b825550505050565b600090565b612a9b612a8e565b612aa6818484612a69565b505050565b5b81811015612aca57612abf600082612a93565b600181019050612aac565b5050565b601f821115612b0f57612ae0816129af565b612ae9846129c4565b81016020851015612af8578190505b612b0c612b04856129c4565b830182612aab565b50505b505050565b600082821c905092915050565b6000612b3260001984600802612b14565b1980831691505092915050565b6000612b4b8383612b21565b9150826002028217905092915050565b612b6583836129a4565b67ffffffffffffffff811115612b7e57612b7d612501565b5b612b888254612973565b612b93828285612ace565b6000601f831160018114612bc25760008415612bb0578287013590505b612bba8582612b3f565b865550612c22565b601f198416612bd0866129af565b60005b82811015612bf857848901358255600182019150602085019450602081019050612bd3565b86831015612c155784890135612c11601f891682612b21565b8355505b6001600288020188555050505b50505050505050565b600081905092915050565b6000612c4182612192565b612c4b8185612c2b565b9350612c5b8185602086016121ae565b80840191505092915050565b7f2e6a736f6e000000000000000000000000000000000000000000000000000000600082015250565b6000612c9d600583612c2b565b9150612ca882612c67565b600582019050919050565b6000612cbf8285612c36565b9150612ccb8284612c36565b9150612cd682612c90565b91508190509392505050565b7f4f776e61626c653a206e6577206f776e657220697320746865207a65726f206160008201527f6464726573730000000000000000000000000000000000000000000000000000602082015250565b6000612d3e60268361219d565b9150612d4982612ce2565b604082019050919050565b60006020820190508181036000830152612d6d81612d31565b9050919050565b7f4f776e61626c653a2063616c6c6572206973206e6f7420746865206f776e6572600082015250565b6000612daa60208361219d565b9150612db582612d74565b602082019050919050565b60006020820190508181036000830152612dd981612d9d565b9050919050565b600081519050919050565b600082825260208201905092915050565b6000612e0782612de0565b612e118185612deb565b9350612e218185602086016121ae565b612e2a816121d8565b840191505092915050565b6000608082019050612e4a60008301876122a3565b612e5760208301866122a3565b612e646040830185612168565b8181036060830152612e768184612dfc565b905095945050505050565b600081519050612e9081611fde565b92915050565b600060208284031215612eac57612eab611fa8565b5b6000612eba84828501612e81565b91505092915050565b7f4e487b7100000000000000000000000000000000000000000000000000000000600052601260045260246000fd5b7f4e487b7100000000000000000000000000000000000000000000000000000000600052603260045260246000fd5b6000612f2c8261206d565b91507fffffffffffffffffffffffffffffffffffffffffffffffffffffffffffffffff8203612f5e57612f5d6127c7565b5b60018201905091905056fea26469706673582212202594488d856f24e6ab0d16f2ffffb57822414c3f40c0d4d0f4caf725fa4cf7d464736f6c63430008110033",
  "immutableReferences": {
    "3528": [
      {
        "length": 32,
        "start": 2053
      },
      {
        "length": 32,
        "start": 3713
      }
    ]
  },
  "source": "// SPDX-License-Identifier: MIT\npragma solidity ^0.8.15;\n\nimport \"erc721a/contracts/ERC721A.sol\";\nimport \"@openzeppelin/contracts/access/Ownable.sol\";\nimport \"@openzeppelin/contracts/utils/Strings.sol\";\nimport \"@openzeppelin/contracts/utils/cryptography/MerkleProof.sol\";\n\ncontract FlappySealsWhiteList is ERC721A, Ownable {\n\n    using Strings for uint256;\n\n    uint public maxSupply;\n    uint public mintPerAddress;\n    uint public pricePerNFT;\n    string private _baseTokenURI;\n\n    bytes32 immutable public merkleRoot;\n\n    mapping(address => uint) private _addressMintCount;\n    mapping(address => uint) private isAdmin;\n\n    modifier onlyAdmin() {\n        require(isAdmin[msg.sender] == 1);\n        _;\n    }\n\n    constructor(address _admin, bytes32 _merkleRoot) ERC721A(\"Flappy Seals\" ,\"SEALS\") {\n        maxSupply = 1000;\n        mintPerAddress = 3;\n        pricePerNFT = 0.015 ether;\n        isAdmin[_admin] = 1;\n        merkleRoot = _merkleRoot;\n    }\n\n    function mint(uint256 _amount) external payable {\n        require(totalSupply() < maxSupply, \"Max supply reached\");\n        require(_addressMintCount[msg.sender] < mintPerAddress, \"Exceeded max mint per address\");\n        require(msg.value >= pricePerNFT * _amount, \"Not enough balance\");\n        _addressMintCount[msg.sender] += _amount;\n        _mint(msg.sender, _amount);\n    }\n\n    function mintWhitelist(uint256 _amount, bytes32[] calldata merkleProof) external payable {\n        require(totalSupply() < maxSupply, \"Max supply reached\");\n        require(_addressMintCount[msg.sender] < mintPerAddress, \"Exceeded max mint per address\");\n        require(msg.value >= pricePerNFT * _amount, \"Not enough balance\");\n        require(MerkleProof.verify(merkleProof, merkleRoot, toBytes32(msg.sender)) == true, \"invalid merkle proof\");\n        _addressMintCount[msg.sender] += _amount;\n        _mint(msg.sender, _amount);\n    }\n\n    function setPrice(uint _amount) public onlyOwner {\n         pricePerNFT = _amount;\n    }\n\n    function setMaxMintPerAddress(uint _amount) public onlyOwner {\n        mintPerAddress = _amount;\n    }\n\n\n    function withdraw() public onlyAdmin {\n        payable(msg.sender).transfer(address(this).balance);\n    }\n    \n      function setBaseURI(string calldata baseURI) external onlyOwner {\n        _baseTokenURI = baseURI;\n    }\n\n    function _baseURI() internal view override returns (string memory) {\n        return _baseTokenURI;\n    }\n\n    function tokenURI(uint256 tokenId) public view virtual override returns (string memory) {\n        string memory baseURI = _baseURI();\n        return bytes(baseURI).length > 0 ? string(abi.encodePacked(baseURI, tokenId.toString(), \".json\")) : \"\";\n    }\n\n    function _startTokenId() internal pure override returns (uint256) {\n        return 1;\n    }\n\n    function toBytes32(address addr) pure internal returns (bytes32) {\n    return bytes32(uint256(uint160(addr)));\n    }\n\n}",
  "sourcePath": "/Users/cobra/Desktop/twinNFTFE/TwinNFTtruffle/contracts/FlappySealsWhitelist.sol",
  "compiler": {
    "name": "solc",
    "version": "0.8.17+commit.8df45f5f.Emscripten.clang"
  },
  "schemaVersion": "3.4.11",
  "updatedAt": "2023-02-28T07:29:24.899Z",
  "networkType": "ethereum",
  "devdoc": {
    "kind": "dev",
    "methods": {
      "approve(address,uint256)": {
        "details": "Gives permission to `to` to transfer `tokenId` token to another account. The approval is cleared when the token is transferred. Only a single account can be approved at a time, so approving the zero address clears previous approvals. Requirements: - The caller must own the token or be an approved operator. - `tokenId` must exist. Emits an {Approval} event."
      },
      "balanceOf(address)": {
        "details": "Returns the number of tokens in `owner`'s account."
      },
      "getApproved(uint256)": {
        "details": "Returns the account approved for `tokenId` token. Requirements: - `tokenId` must exist."
      },
      "isApprovedForAll(address,address)": {
        "details": "Returns if the `operator` is allowed to manage all of the assets of `owner`. See {setApprovalForAll}."
      },
      "name()": {
        "details": "Returns the token collection name."
      },
      "owner()": {
        "details": "Returns the address of the current owner."
      },
      "ownerOf(uint256)": {
        "details": "Returns the owner of the `tokenId` token. Requirements: - `tokenId` must exist."
      },
      "renounceOwnership()": {
        "details": "Leaves the contract without owner. It will not be possible to call `onlyOwner` functions anymore. Can only be called by the current owner. NOTE: Renouncing ownership will leave the contract without an owner, thereby removing any functionality that is only available to the owner."
      },
      "safeTransferFrom(address,address,uint256)": {
        "details": "Equivalent to `safeTransferFrom(from, to, tokenId, '')`."
      },
      "safeTransferFrom(address,address,uint256,bytes)": {
        "details": "Safely transfers `tokenId` token from `from` to `to`. Requirements: - `from` cannot be the zero address. - `to` cannot be the zero address. - `tokenId` token must exist and be owned by `from`. - If the caller is not `from`, it must be approved to move this token by either {approve} or {setApprovalForAll}. - If `to` refers to a smart contract, it must implement {IERC721Receiver-onERC721Received}, which is called upon a safe transfer. Emits a {Transfer} event."
      },
      "setApprovalForAll(address,bool)": {
        "details": "Approve or remove `operator` as an operator for the caller. Operators can call {transferFrom} or {safeTransferFrom} for any token owned by the caller. Requirements: - The `operator` cannot be the caller. Emits an {ApprovalForAll} event."
      },
      "supportsInterface(bytes4)": {
        "details": "Returns true if this contract implements the interface defined by `interfaceId`. See the corresponding [EIP section](https://eips.ethereum.org/EIPS/eip-165#how-interfaces-are-identified) to learn more about how these ids are created. This function call must use less than 30000 gas."
      },
      "symbol()": {
        "details": "Returns the token collection symbol."
      },
      "tokenURI(uint256)": {
        "details": "Returns the Uniform Resource Identifier (URI) for `tokenId` token."
      },
      "totalSupply()": {
        "details": "Returns the total number of tokens in existence. Burned tokens will reduce the count. To get the total number of tokens minted, please see {_totalMinted}."
      },
      "transferFrom(address,address,uint256)": {
        "details": "Transfers `tokenId` from `from` to `to`. Requirements: - `from` cannot be the zero address. - `to` cannot be the zero address. - `tokenId` token must be owned by `from`. - If the caller is not `from`, it must be approved to move this token by either {approve} or {setApprovalForAll}. Emits a {Transfer} event."
      },
      "transferOwnership(address)": {
        "details": "Transfers ownership of the contract to a new account (`newOwner`). Can only be called by the current owner."
      }
    },
    "version": 1
  },
  "userdoc": {
    "errors": {
      "ApprovalCallerNotOwnerNorApproved()": [
        {
          "notice": "The caller must own the token or be an approved operator."
        }
      ],
      "ApprovalQueryForNonexistentToken()": [
        {
          "notice": "The token does not exist."
        }
      ],
      "BalanceQueryForZeroAddress()": [
        {
          "notice": "Cannot query the balance for the zero address."
        }
      ],
      "MintERC2309QuantityExceedsLimit()": [
        {
          "notice": "The `quantity` minted with ERC2309 exceeds the safety limit."
        }
      ],
      "MintToZeroAddress()": [
        {
          "notice": "Cannot mint to the zero address."
        }
      ],
      "MintZeroQuantity()": [
        {
          "notice": "The quantity of tokens minted must be more than zero."
        }
      ],
      "OwnerQueryForNonexistentToken()": [
        {
          "notice": "The token does not exist."
        }
      ],
      "OwnershipNotInitializedForExtraData()": [
        {
          "notice": "The `extraData` cannot be set on an unintialized ownership slot."
        }
      ],
      "TransferCallerNotOwnerNorApproved()": [
        {
          "notice": "The caller must own the token or be an approved operator."
        }
      ],
      "TransferFromIncorrectOwner()": [
        {
          "notice": "The token must be owned by `from`."
        }
      ],
      "TransferToNonERC721ReceiverImplementer()": [
        {
          "notice": "Cannot safely transfer to a contract that does not implement the ERC721Receiver interface."
        }
      ],
      "TransferToZeroAddress()": [
        {
          "notice": "Cannot transfer to the zero address."
        }
      ],
      "URIQueryForNonexistentToken()": [
        {
          "notice": "The token does not exist."
        }
      ]
    },
    "kind": "user",
    "methods": {},
    "version": 1
  }
}