{
  "contractName": "FlappySealsWhiteList",
  "abi": [
    {
      "inputs": [
        {
          "internalType": "address",
          "name": "_admin",
          "type": "address"
        },
        {
          "internalType": "bytes32",
          "name": "_merkleRoot",
          "type": "bytes32"
        }
      ],
      "stateMutability": "nonpayable",
      "type": "constructor"
    },
    {
      "inputs": [],
      "name": "ApprovalCallerNotOwnerNorApproved",
      "type": "error"
    },
    {
      "inputs": [],
      "name": "ApprovalQueryForNonexistentToken",
      "type": "error"
    },
    {
      "inputs": [],
      "name": "BalanceQueryForZeroAddress",
      "type": "error"
    },
    {
      "inputs": [],
      "name": "MintERC2309QuantityExceedsLimit",
      "type": "error"
    },
    {
      "inputs": [],
      "name": "MintToZeroAddress",
      "type": "error"
    },
    {
      "inputs": [],
      "name": "MintZeroQuantity",
      "type": "error"
    },
    {
      "inputs": [],
      "name": "OwnerQueryForNonexistentToken",
      "type": "error"
    },
    {
      "inputs": [],
      "name": "OwnershipNotInitializedForExtraData",
      "type": "error"
    },
    {
      "inputs": [],
      "name": "TransferCallerNotOwnerNorApproved",
      "type": "error"
    },
    {
      "inputs": [],
      "name": "TransferFromIncorrectOwner",
      "type": "error"
    },
    {
      "inputs": [],
      "name": "TransferToNonERC721ReceiverImplementer",
      "type": "error"
    },
    {
      "inputs": [],
      "name": "TransferToZeroAddress",
      "type": "error"
    },
    {
      "inputs": [],
      "name": "URIQueryForNonexistentToken",
      "type": "error"
    },
    {
      "anonymous": false,
      "inputs": [
        {
          "indexed": true,
          "internalType": "address",
          "name": "owner",
          "type": "address"
        },
        {
          "indexed": true,
          "internalType": "address",
          "name": "approved",
          "type": "address"
        },
        {
          "indexed": true,
          "internalType": "uint256",
          "name": "tokenId",
          "type": "uint256"
        }
      ],
      "name": "Approval",
      "type": "event"
    },
    {
      "anonymous": false,
      "inputs": [
        {
          "indexed": true,
          "internalType": "address",
          "name": "owner",
          "type": "address"
        },
        {
          "indexed": true,
          "internalType": "address",
          "name": "operator",
          "type": "address"
        },
        {
          "indexed": false,
          "internalType": "bool",
          "name": "approved",
          "type": "bool"
        }
      ],
      "name": "ApprovalForAll",
      "type": "event"
    },
    {
      "anonymous": false,
      "inputs": [
        {
          "indexed": true,
          "internalType": "uint256",
          "name": "fromTokenId",
          "type": "uint256"
        },
        {
          "indexed": false,
          "internalType": "uint256",
          "name": "toTokenId",
          "type": "uint256"
        },
        {
          "indexed": true,
          "internalType": "address",
          "name": "from",
          "type": "address"
        },
        {
          "indexed": true,
          "internalType": "address",
          "name": "to",
          "type": "address"
        }
      ],
      "name": "ConsecutiveTransfer",
      "type": "event"
    },
    {
      "anonymous": false,
      "inputs": [
        {
          "indexed": true,
          "internalType": "address",
          "name": "previousOwner",
          "type": "address"
        },
        {
          "indexed": true,
          "internalType": "address",
          "name": "newOwner",
          "type": "address"
        }
      ],
      "name": "OwnershipTransferred",
      "type": "event"
    },
    {
      "anonymous": false,
      "inputs": [
        {
          "indexed": true,
          "internalType": "address",
          "name": "from",
          "type": "address"
        },
        {
          "indexed": true,
          "internalType": "address",
          "name": "to",
          "type": "address"
        },
        {
          "indexed": true,
          "internalType": "uint256",
          "name": "tokenId",
          "type": "uint256"
        }
      ],
      "name": "Transfer",
      "type": "event"
    },
    {
      "inputs": [
        {
          "internalType": "address",
          "name": "to",
          "type": "address"
        },
        {
          "internalType": "uint256",
          "name": "tokenId",
          "type": "uint256"
        }
      ],
      "name": "approve",
      "outputs": [],
      "stateMutability": "payable",
      "type": "function",
      "payable": true
    },
    {
      "inputs": [
        {
          "internalType": "address",
          "name": "owner",
          "type": "address"
        }
      ],
      "name": "balanceOf",
      "outputs": [
        {
          "internalType": "uint256",
          "name": "",
          "type": "uint256"
        }
      ],
      "stateMutability": "view",
      "type": "function",
      "constant": true
    },
    {
      "inputs": [
        {
          "internalType": "uint256",
          "name": "tokenId",
          "type": "uint256"
        }
      ],
      "name": "getApproved",
      "outputs": [
        {
          "internalType": "address",
          "name": "",
          "type": "address"
        }
      ],
      "stateMutability": "view",
      "type": "function",
      "constant": true
    },
    {
      "inputs": [
        {
          "internalType": "address",
          "name": "owner",
          "type": "address"
        },
        {
          "internalType": "address",
          "name": "operator",
          "type": "address"
        }
      ],
      "name": "isApprovedForAll",
      "outputs": [
        {
          "internalType": "bool",
          "name": "",
          "type": "bool"
        }
      ],
      "stateMutability": "view",
      "type": "function",
      "constant": true
    },
    {
      "inputs": [],
      "name": "maxSupply",
      "outputs": [
        {
          "internalType": "uint256",
          "name": "",
          "type": "uint256"
        }
      ],
      "stateMutability": "view",
      "type": "function",
      "constant": true
    },
    {
      "inputs": [],
      "name": "mintPerAddress",
      "outputs": [
        {
          "internalType": "uint256",
          "name": "",
          "type": "uint256"
        }
      ],
      "stateMutability": "view",
      "type": "function",
      "constant": true
    },
    {
      "inputs": [],
      "name": "name",
      "outputs": [
        {
          "internalType": "string",
          "name": "",
          "type": "string"
        }
      ],
      "stateMutability": "view",
      "type": "function",
      "constant": true
    },
    {
      "inputs": [],
      "name": "owner",
      "outputs": [
        {
          "internalType": "address",
          "name": "",
          "type": "address"
        }
      ],
      "stateMutability": "view",
      "type": "function",
      "constant": true
    },
    {
      "inputs": [
        {
          "internalType": "uint256",
          "name": "tokenId",
          "type": "uint256"
        }
      ],
      "name": "ownerOf",
      "outputs": [
        {
          "internalType": "address",
          "name": "",
          "type": "address"
        }
      ],
      "stateMutability": "view",
      "type": "function",
      "constant": true
    },
    {
      "inputs": [],
      "name": "pricePerNFT",
      "outputs": [
        {
          "internalType": "uint256",
          "name": "",
          "type": "uint256"
        }
      ],
      "stateMutability": "view",
      "type": "function",
      "constant": true
    },
    {
      "inputs": [],
      "name": "renounceOwnership",
      "outputs": [],
      "stateMutability": "nonpayable",
      "type": "function"
    },
    {
      "inputs": [
        {
          "internalType": "address",
          "name": "from",
          "type": "address"
        },
        {
          "internalType": "address",
          "name": "to",
          "type": "address"
        },
        {
          "internalType": "uint256",
          "name": "tokenId",
          "type": "uint256"
        }
      ],
      "name": "safeTransferFrom",
      "outputs": [],
      "stateMutability": "payable",
      "type": "function",
      "payable": true
    },
    {
      "inputs": [
        {
          "internalType": "address",
          "name": "from",
          "type": "address"
        },
        {
          "internalType": "address",
          "name": "to",
          "type": "address"
        },
        {
          "internalType": "uint256",
          "name": "tokenId",
          "type": "uint256"
        },
        {
          "internalType": "bytes",
          "name": "_data",
          "type": "bytes"
        }
      ],
      "name": "safeTransferFrom",
      "outputs": [],
      "stateMutability": "payable",
      "type": "function",
      "payable": true
    },
    {
      "inputs": [
        {
          "internalType": "address",
          "name": "operator",
          "type": "address"
        },
        {
          "internalType": "bool",
          "name": "approved",
          "type": "bool"
        }
      ],
      "name": "setApprovalForAll",
      "outputs": [],
      "stateMutability": "nonpayable",
      "type": "function"
    },
    {
      "inputs": [
        {
          "internalType": "bytes4",
          "name": "interfaceId",
          "type": "bytes4"
        }
      ],
      "name": "supportsInterface",
      "outputs": [
        {
          "internalType": "bool",
          "name": "",
          "type": "bool"
        }
      ],
      "stateMutability": "view",
      "type": "function",
      "constant": true
    },
    {
      "inputs": [],
      "name": "symbol",
      "outputs": [
        {
          "internalType": "string",
          "name": "",
          "type": "string"
        }
      ],
      "stateMutability": "view",
      "type": "function",
      "constant": true
    },
    {
      "inputs": [],
      "name": "totalSupply",
      "outputs": [
        {
          "internalType": "uint256",
          "name": "",
          "type": "uint256"
        }
      ],
      "stateMutability": "view",
      "type": "function",
      "constant": true
    },
    {
      "inputs": [
        {
          "internalType": "address",
          "name": "from",
          "type": "address"
        },
        {
          "internalType": "address",
          "name": "to",
          "type": "address"
        },
        {
          "internalType": "uint256",
          "name": "tokenId",
          "type": "uint256"
        }
      ],
      "name": "transferFrom",
      "outputs": [],
      "stateMutability": "payable",
      "type": "function",
      "payable": true
    },
    {
      "inputs": [
        {
          "internalType": "address",
          "name": "newOwner",
          "type": "address"
        }
      ],
      "name": "transferOwnership",
      "outputs": [],
      "stateMutability": "nonpayable",
      "type": "function"
    },
    {
      "inputs": [
        {
          "internalType": "uint256",
          "name": "_amount",
          "type": "uint256"
        }
      ],
      "name": "mint",
      "outputs": [],
      "stateMutability": "payable",
      "type": "function",
      "payable": true
    },
    {
      "inputs": [
        {
          "internalType": "uint256",
          "name": "_amount",
          "type": "uint256"
        },
        {
          "internalType": "bytes32[]",
          "name": "merkleProof",
          "type": "bytes32[]"
        }
      ],
      "name": "mintWhitelist",
      "outputs": [],
      "stateMutability": "payable",
      "type": "function",
      "payable": true
    },
    {
      "inputs": [
        {
          "internalType": "uint256",
          "name": "_amount",
          "type": "uint256"
        }
      ],
      "name": "mintAdmin",
      "outputs": [],
      "stateMutability": "payable",
      "type": "function",
      "payable": true
    },
    {
      "inputs": [
        {
          "internalType": "uint256",
          "name": "_amount",
          "type": "uint256"
        }
      ],
      "name": "setPrice",
      "outputs": [],
      "stateMutability": "nonpayable",
      "type": "function"
    },
    {
      "inputs": [
        {
          "internalType": "uint256",
          "name": "_amount",
          "type": "uint256"
        }
      ],
      "name": "setMaxMintPerAddress",
      "outputs": [],
      "stateMutability": "nonpayable",
      "type": "function"
    },
    {
      "inputs": [],
      "name": "withdraw",
      "outputs": [],
      "stateMutability": "nonpayable",
      "type": "function"
    },
    {
      "inputs": [
        {
          "internalType": "string",
          "name": "baseURI",
          "type": "string"
        }
      ],
      "name": "setBaseURI",
      "outputs": [],
      "stateMutability": "nonpayable",
      "type": "function"
    },
    {
      "inputs": [
        {
          "internalType": "uint256",
          "name": "tokenId",
          "type": "uint256"
        }
      ],
      "name": "tokenURI",
      "outputs": [
        {
          "internalType": "string",
          "name": "",
          "type": "string"
        }
      ],
      "stateMutability": "view",
      "type": "function",
      "constant": true
    }
  ],
  "bytecode": "0x60806040523480156200001157600080fd5b506040516200366a3803806200366a8339818101604052810190620000379190620002ee565b6040518060400160405280600c81526020017f466c61707079205365616c7300000000000000000000000000000000000000008152506040518060400160405280600581526020017f5345414c530000000000000000000000000000000000000000000000000000008152508160029081620000b49190620005af565b508060039081620000c69190620005af565b50620000d76200017260201b60201c565b6000819055505050620000ff620000f36200017b60201b60201c565b6200018360201b60201c565b6103e86009819055506003600a8190555066354a6ba7a18000600b819055506001600f60008473ffffffffffffffffffffffffffffffffffffffff1673ffffffffffffffffffffffffffffffffffffffff1681526020019081526020016000208190555080600d81905550505062000696565b60006001905090565b600033905090565b6000600860009054906101000a900473ffffffffffffffffffffffffffffffffffffffff16905081600860006101000a81548173ffffffffffffffffffffffffffffffffffffffff021916908373ffffffffffffffffffffffffffffffffffffffff1602179055508173ffffffffffffffffffffffffffffffffffffffff168173ffffffffffffffffffffffffffffffffffffffff167f8be0079c531659141344cd1fd0a4f28419497f9722a3daafe3b4186f6b6457e060405160405180910390a35050565b600080fd5b600073ffffffffffffffffffffffffffffffffffffffff82169050919050565b60006200027b826200024e565b9050919050565b6200028d816200026e565b81146200029957600080fd5b50565b600081519050620002ad8162000282565b92915050565b6000819050919050565b620002c881620002b3565b8114620002d457600080fd5b50565b600081519050620002e881620002bd565b92915050565b6000806040838503121562000308576200030762000249565b5b600062000318858286016200029c565b92505060206200032b85828601620002d7565b9150509250929050565b600081519050919050565b7f4e487b7100000000000000000000000000000000000000000000000000000000600052604160045260246000fd5b7f4e487b7100000000000000000000000000000000000000000000000000000000600052602260045260246000fd5b60006002820490506001821680620003b757607f821691505b602082108103620003cd57620003cc6200036f565b5b50919050565b60008190508160005260206000209050919050565b60006020601f8301049050919050565b600082821b905092915050565b600060088302620004377fffffffffffffffffffffffffffffffffffffffffffffffffffffffffffffffff82620003f8565b620004438683620003f8565b95508019841693508086168417925050509392505050565b6000819050919050565b6000819050919050565b6000620004906200048a62000484846200045b565b62000465565b6200045b565b9050919050565b6000819050919050565b620004ac836200046f565b620004c4620004bb8262000497565b84845462000405565b825550505050565b600090565b620004db620004cc565b620004e8818484620004a1565b505050565b5b81811015620005105762000504600082620004d1565b600181019050620004ee565b5050565b601f8211156200055f576200052981620003d3565b6200053484620003e8565b8101602085101562000544578190505b6200055c6200055385620003e8565b830182620004ed565b50505b505050565b600082821c905092915050565b6000620005846000198460080262000564565b1980831691505092915050565b60006200059f838362000571565b9150826002028217905092915050565b620005ba8262000335565b67ffffffffffffffff811115620005d657620005d562000340565b5b620005e282546200039e565b620005ef82828562000514565b600060209050601f83116001811462000627576000841562000612578287015190505b6200061e858262000591565b8655506200068e565b601f1984166200063786620003d3565b60005b8281101562000661578489015182556001820191506020850194506020810190506200063a565b868310156200068157848901516200067d601f89168262000571565b8355505b6001600288020188555050505b505050505050565b612fc480620006a66000396000f3fe60806040526004361061019c5760003560e01c8063677ab70b116100ec578063a22cb4651161008a578063d5abeb0111610064578063d5abeb011461053f578063e985e9c51461056a578063f2fde38b146105a7578063f47a269c146105d05761019c565b8063a22cb465146104bd578063b88d4fde146104e6578063c87b56dd146105025761019c565b80638da5cb5b116100c65780638da5cb5b1461042257806391b7f5ed1461044d57806395d89b4114610476578063a0712d68146104a15761019c565b8063677ab70b146103b257806370a08231146103ce578063715018a61461040b5761019c565b806318160ddd116101595780633ccfd60b116101335780633ccfd60b1461031957806342842e0e1461033057806355f804b31461034c5780636352211e146103755761019c565b806318160ddd146102a95780631e14d44b146102d457806323b872dd146102fd5761019c565b806301ffc9a7146101a1578063061431a8146101de5780630628aa70146101fa57806306fdde0314610225578063081812fc14610250578063095ea7b31461028d575b600080fd5b3480156101ad57600080fd5b506101c860048036038101906101c39190612063565b6105fb565b6040516101d591906120ab565b60405180910390f35b6101f860048036038101906101f39190612161565b61068d565b005b34801561020657600080fd5b5061020f61085c565b60405161021c91906121d0565b60405180910390f35b34801561023157600080fd5b5061023a610862565b604051610247919061227b565b60405180910390f35b34801561025c57600080fd5b506102776004803603810190610272919061229d565b6108f4565b604051610284919061230b565b60405180910390f35b6102a760048036038101906102a29190612352565b610973565b005b3480156102b557600080fd5b506102be610ab7565b6040516102cb91906121d0565b60405180910390f35b3480156102e057600080fd5b506102fb60048036038101906102f6919061229d565b610ace565b005b61031760048036038101906103129190612392565b610ae0565b005b34801561032557600080fd5b5061032e610e02565b005b61034a60048036038101906103459190612392565b610e97565b005b34801561035857600080fd5b50610373600480360381019061036e919061243b565b610eb7565b005b34801561038157600080fd5b5061039c6004803603810190610397919061229d565b610ed5565b6040516103a9919061230b565b60405180910390f35b6103cc60048036038101906103c7919061229d565b610ee7565b005b3480156103da57600080fd5b506103f560048036038101906103f09190612488565b610fe1565b60405161040291906121d0565b60405180910390f35b34801561041757600080fd5b50610420611099565b005b34801561042e57600080fd5b506104376110ad565b604051610444919061230b565b60405180910390f35b34801561045957600080fd5b50610474600480360381019061046f919061229d565b6110d7565b005b34801561048257600080fd5b5061048b6110e9565b604051610498919061227b565b60405180910390f35b6104bb60048036038101906104b6919061229d565b61117b565b005b3480156104c957600080fd5b506104e460048036038101906104df91906124e1565b6112fc565b005b61050060048036038101906104fb9190612651565b611407565b005b34801561050e57600080fd5b506105296004803603810190610524919061229d565b61147a565b604051610536919061227b565b60405180910390f35b34801561054b57600080fd5b506105546114d9565b60405161056191906121d0565b60405180910390f35b34801561057657600080fd5b50610591600480360381019061058c91906126d4565b6114df565b60405161059e91906120ab565b60405180910390f35b3480156105b357600080fd5b506105ce60048036038101906105c99190612488565b611573565b005b3480156105dc57600080fd5b506105e56115f6565b6040516105f291906121d0565b60405180910390f35b60006301ffc9a760e01b827bffffffffffffffffffffffffffffffffffffffffffffffffffffffff1916148061065657506380ac58cd60e01b827bffffffffffffffffffffffffffffffffffffffffffffffffffffffff1916145b806106865750635b5e139f60e01b827bffffffffffffffffffffffffffffffffffffffffffffffffffffffff1916145b9050919050565b600954610698610ab7565b106106d8576040517f08c379a00000000000000000000000000000000000000000000000000000000081526004016106cf90612760565b60405180910390fd5b600a54600e60003373ffffffffffffffffffffffffffffffffffffffff1673ffffffffffffffffffffffffffffffffffffffff168152602001908152602001600020541061075b576040517f08c379a0000000000000000000000000000000000000000000000000000000008152600401610752906127cc565b60405180910390fd5b600115156107b5838380806020026020016040519081016040528093929190818152602001838360200280828437600081840152601f19601f82011690508083019250505050505050600d546107b0336115fc565b61161f565b1515146107f7576040517f08c379a00000000000000000000000000000000000000000000000000000000081526004016107ee90612838565b60405180910390fd5b82600e60003373ffffffffffffffffffffffffffffffffffffffff1673ffffffffffffffffffffffffffffffffffffffff16815260200190815260200160002060008282546108469190612887565b925050819055506108573384611636565b505050565b600b5481565b606060028054610871906128ea565b80601f016020809104026020016040519081016040528092919081815260200182805461089d906128ea565b80156108ea5780601f106108bf576101008083540402835291602001916108ea565b820191906000526020600020905b8154815290600101906020018083116108cd57829003601f168201915b5050505050905090565b60006108ff826117f1565b610935576040517fcf4700e400000000000000000000000000000000000000000000000000000000815260040160405180910390fd5b6006600083815260200190815260200160002060000160009054906101000a900473ffffffffffffffffffffffffffffffffffffffff169050919050565b600061097e82610ed5565b90508073ffffffffffffffffffffffffffffffffffffffff1661099f611850565b73ffffffffffffffffffffffffffffffffffffffff1614610a02576109cb816109c6611850565b6114df565b610a01576040517fcfb3b94200000000000000000000000000000000000000000000000000000000815260040160405180910390fd5b5b826006600084815260200190815260200160002060000160006101000a81548173ffffffffffffffffffffffffffffffffffffffff021916908373ffffffffffffffffffffffffffffffffffffffff160217905550818373ffffffffffffffffffffffffffffffffffffffff168273ffffffffffffffffffffffffffffffffffffffff167f8c5be1e5ebec7d5bd14f71427d1e84f3dd0314c0f7b2291e5b200ac8c7c3b92560405160405180910390a4505050565b6000610ac1611858565b6001546000540303905090565b610ad6611861565b80600a8190555050565b6000610aeb826118df565b90508373ffffffffffffffffffffffffffffffffffffffff168173ffffffffffffffffffffffffffffffffffffffff1614610b52576040517fa114810000000000000000000000000000000000000000000000000000000000815260040160405180910390fd5b600080610b5e846119ab565b91509150610b748187610b6f611850565b6119d2565b610bc057610b8986610b84611850565b6114df565b610bbf576040517f59c896be00000000000000000000000000000000000000000000000000000000815260040160405180910390fd5b5b600073ffffffffffffffffffffffffffffffffffffffff168573ffffffffffffffffffffffffffffffffffffffff1603610c26576040517fea553b3400000000000000000000000000000000000000000000000000000000815260040160405180910390fd5b610c338686866001611a16565b8015610c3e57600082555b600560008773ffffffffffffffffffffffffffffffffffffffff1673ffffffffffffffffffffffffffffffffffffffff168152602001908152602001600020600081546001900391905081905550600560008673ffffffffffffffffffffffffffffffffffffffff1673ffffffffffffffffffffffffffffffffffffffff1681526020019081526020016000206000815460010191905081905550610d0c85610ce8888887611a1c565b7c020000000000000000000000000000000000000000000000000000000017611a44565b600460008681526020019081526020016000208190555060007c0200000000000000000000000000000000000000000000000000000000841603610d925760006001850190506000600460008381526020019081526020016000205403610d90576000548114610d8f578360046000838152602001908152602001600020819055505b5b505b838573ffffffffffffffffffffffffffffffffffffffff168773ffffffffffffffffffffffffffffffffffffffff167fddf252ad1be2c89b69c2b068fc378daa952ba7f163c4a11628f55a4df523b3ef60405160405180910390a4610dfa8686866001611a6f565b505050505050565b6001600f60003373ffffffffffffffffffffffffffffffffffffffff1673ffffffffffffffffffffffffffffffffffffffff1681526020019081526020016000205414610e4e57600080fd5b3373ffffffffffffffffffffffffffffffffffffffff166108fc479081150290604051600060405180830381858888f19350505050158015610e94573d6000803e3d6000fd5b50565b610eb283838360405180602001604052806000815250611407565b505050565b610ebf611861565b8181600c9182610ed0929190612ad2565b505050565b6000610ee0826118df565b9050919050565b6001600f60003373ffffffffffffffffffffffffffffffffffffffff1673ffffffffffffffffffffffffffffffffffffffff1681526020019081526020016000205414610f3357600080fd5b600954610f3e610ab7565b10610f7e576040517f08c379a0000000000000000000000000000000000000000000000000000000008152600401610f7590612760565b60405180910390fd5b80600e60003373ffffffffffffffffffffffffffffffffffffffff1673ffffffffffffffffffffffffffffffffffffffff1681526020019081526020016000206000828254610fcd9190612887565b92505081905550610fde3382611636565b50565b60008073ffffffffffffffffffffffffffffffffffffffff168273ffffffffffffffffffffffffffffffffffffffff1603611048576040517f8f4eb60400000000000000000000000000000000000000000000000000000000815260040160405180910390fd5b67ffffffffffffffff600560008473ffffffffffffffffffffffffffffffffffffffff1673ffffffffffffffffffffffffffffffffffffffff16815260200190815260200160002054169050919050565b6110a1611861565b6110ab6000611a75565b565b6000600860009054906101000a900473ffffffffffffffffffffffffffffffffffffffff16905090565b6110df611861565b80600b8190555050565b6060600380546110f8906128ea565b80601f0160208091040260200160405190810160405280929190818152602001828054611124906128ea565b80156111715780601f1061114657610100808354040283529160200191611171565b820191906000526020600020905b81548152906001019060200180831161115457829003601f168201915b5050505050905090565b600954611186610ab7565b106111c6576040517f08c379a00000000000000000000000000000000000000000000000000000000081526004016111bd90612760565b60405180910390fd5b600a54600e60003373ffffffffffffffffffffffffffffffffffffffff1673ffffffffffffffffffffffffffffffffffffffff1681526020019081526020016000205410611249576040517f08c379a0000000000000000000000000000000000000000000000000000000008152600401611240906127cc565b60405180910390fd5b80600b546112579190612ba2565b341015611299576040517f08c379a000000000000000000000000000000000000000000000000000000000815260040161129090612c30565b60405180910390fd5b80600e60003373ffffffffffffffffffffffffffffffffffffffff1673ffffffffffffffffffffffffffffffffffffffff16815260200190815260200160002060008282546112e89190612887565b925050819055506112f93382611636565b50565b8060076000611309611850565b73ffffffffffffffffffffffffffffffffffffffff1673ffffffffffffffffffffffffffffffffffffffff16815260200190815260200160002060008473ffffffffffffffffffffffffffffffffffffffff1673ffffffffffffffffffffffffffffffffffffffff16815260200190815260200160002060006101000a81548160ff0219169083151502179055508173ffffffffffffffffffffffffffffffffffffffff166113b6611850565b73ffffffffffffffffffffffffffffffffffffffff167f17307eab39ab6107e8899845ad3d59bd9653f200f220920489ca2b5937696c31836040516113fb91906120ab565b60405180910390a35050565b611412848484610ae0565b60008373ffffffffffffffffffffffffffffffffffffffff163b146114745761143d84848484611b3b565b611473576040517fd1a57ed600000000000000000000000000000000000000000000000000000000815260040160405180910390fd5b5b50505050565b60606000611486611c8b565b905060008151116114a657604051806020016040528060008152506114d1565b806114b084611d1d565b6040516020016114c1929190612cd8565b6040516020818303038152906040525b915050919050565b60095481565b6000600760008473ffffffffffffffffffffffffffffffffffffffff1673ffffffffffffffffffffffffffffffffffffffff16815260200190815260200160002060008373ffffffffffffffffffffffffffffffffffffffff1673ffffffffffffffffffffffffffffffffffffffff16815260200190815260200160002060009054906101000a900460ff16905092915050565b61157b611861565b600073ffffffffffffffffffffffffffffffffffffffff168173ffffffffffffffffffffffffffffffffffffffff16036115ea576040517f08c379a00000000000000000000000000000000000000000000000000000000081526004016115e190612d79565b60405180910390fd5b6115f381611a75565b50565b600a5481565b60008173ffffffffffffffffffffffffffffffffffffffff1660001b9050919050565b60008261162c8584611deb565b1490509392505050565b60008054905060008203611676576040517fb562e8dd00000000000000000000000000000000000000000000000000000000815260040160405180910390fd5b6116836000848385611a16565b600160406001901b178202600560008573ffffffffffffffffffffffffffffffffffffffff1673ffffffffffffffffffffffffffffffffffffffff168152602001908152602001600020600082825401925050819055506116fa836116eb6000866000611a1c565b6116f485611e41565b17611a44565b6004600083815260200190815260200160002081905550600080838301905073ffffffffffffffffffffffffffffffffffffffff85169150828260007fddf252ad1be2c89b69c2b068fc378daa952ba7f163c4a11628f55a4df523b3ef600080a4600183015b81811461179b57808360007fddf252ad1be2c89b69c2b068fc378daa952ba7f163c4a11628f55a4df523b3ef600080a4600181019050611760565b50600082036117d6576040517f2e07630000000000000000000000000000000000000000000000000000000000815260040160405180910390fd5b8060008190555050506117ec6000848385611a6f565b505050565b6000816117fc611858565b1115801561180b575060005482105b8015611849575060007c0100000000000000000000000000000000000000000000000000000000600460008581526020019081526020016000205416145b9050919050565b600033905090565b60006001905090565b611869611e51565b73ffffffffffffffffffffffffffffffffffffffff166118876110ad565b73ffffffffffffffffffffffffffffffffffffffff16146118dd576040517f08c379a00000000000000000000000000000000000000000000000000000000081526004016118d490612de5565b60405180910390fd5b565b600080829050806118ee611858565b11611974576000548110156119735760006004600083815260200190815260200160002054905060007c0100000000000000000000000000000000000000000000000000000000821603611971575b6000810361196757600460008360019003935083815260200190815260200160002054905061193d565b80925050506119a6565b505b5b6040517fdf2d9b4200000000000000000000000000000000000000000000000000000000815260040160405180910390fd5b919050565b60008060006006600085815260200190815260200160002090508092508254915050915091565b600073ffffffffffffffffffffffffffffffffffffffff8316925073ffffffffffffffffffffffffffffffffffffffff821691508382148383141790509392505050565b50505050565b60008060e883901c905060e8611a33868684611e59565b62ffffff16901b9150509392505050565b600073ffffffffffffffffffffffffffffffffffffffff83169250814260a01b178317905092915050565b50505050565b6000600860009054906101000a900473ffffffffffffffffffffffffffffffffffffffff16905081600860006101000a81548173ffffffffffffffffffffffffffffffffffffffff021916908373ffffffffffffffffffffffffffffffffffffffff1602179055508173ffffffffffffffffffffffffffffffffffffffff168173ffffffffffffffffffffffffffffffffffffffff167f8be0079c531659141344cd1fd0a4f28419497f9722a3daafe3b4186f6b6457e060405160405180910390a35050565b60008373ffffffffffffffffffffffffffffffffffffffff1663150b7a02611b61611850565b8786866040518563ffffffff1660e01b8152600401611b839493929190612e5a565b6020604051808303816000875af1925050508015611bbf57506040513d601f19601f82011682018060405250810190611bbc9190612ebb565b60015b611c38573d8060008114611bef576040519150601f19603f3d011682016040523d82523d6000602084013e611bf4565b606091505b506000815103611c30576040517fd1a57ed600000000000000000000000000000000000000000000000000000000815260040160405180910390fd5b805181602001fd5b63150b7a0260e01b7bffffffffffffffffffffffffffffffffffffffffffffffffffffffff1916817bffffffffffffffffffffffffffffffffffffffffffffffffffffffff191614915050949350505050565b6060600c8054611c9a906128ea565b80601f0160208091040260200160405190810160405280929190818152602001828054611cc6906128ea565b8015611d135780601f10611ce857610100808354040283529160200191611d13565b820191906000526020600020905b815481529060010190602001808311611cf657829003601f168201915b5050505050905090565b606060006001611d2c84611e62565b01905060008167ffffffffffffffff811115611d4b57611d4a612526565b5b6040519080825280601f01601f191660200182016040528015611d7d5781602001600182028036833780820191505090505b509050600082602001820190505b600115611de0578080600190039150507f3031323334353637383961626364656600000000000000000000000000000000600a86061a8153600a8581611dd457611dd3612ee8565b5b04945060008503611d8b575b819350505050919050565b60008082905060005b8451811015611e3657611e2182868381518110611e1457611e13612f17565b5b6020026020010151611fb5565b91508080611e2e90612f46565b915050611df4565b508091505092915050565b60006001821460e11b9050919050565b600033905090565b60009392505050565b600080600090507a184f03e93ff9f4daa797ed6e38ed64bf6a1f0100000000000000008310611ec0577a184f03e93ff9f4daa797ed6e38ed64bf6a1f0100000000000000008381611eb657611eb5612ee8565b5b0492506040810190505b6d04ee2d6d415b85acef81000000008310611efd576d04ee2d6d415b85acef81000000008381611ef357611ef2612ee8565b5b0492506020810190505b662386f26fc100008310611f2c57662386f26fc100008381611f2257611f21612ee8565b5b0492506010810190505b6305f5e1008310611f55576305f5e1008381611f4b57611f4a612ee8565b5b0492506008810190505b6127108310611f7a576127108381611f7057611f6f612ee8565b5b0492506004810190505b60648310611f9d5760648381611f9357611f92612ee8565b5b0492506002810190505b600a8310611fac576001810190505b80915050919050565b6000818310611fcd57611fc88284611fe0565b611fd8565b611fd78383611fe0565b5b905092915050565b600082600052816020526040600020905092915050565b6000604051905090565b600080fd5b600080fd5b60007fffffffff0000000000000000000000000000000000000000000000000000000082169050919050565b6120408161200b565b811461204b57600080fd5b50565b60008135905061205d81612037565b92915050565b60006020828403121561207957612078612001565b5b60006120878482850161204e565b91505092915050565b60008115159050919050565b6120a581612090565b82525050565b60006020820190506120c0600083018461209c565b92915050565b6000819050919050565b6120d9816120c6565b81146120e457600080fd5b50565b6000813590506120f6816120d0565b92915050565b600080fd5b600080fd5b600080fd5b60008083601f840112612121576121206120fc565b5b8235905067ffffffffffffffff81111561213e5761213d612101565b5b60208301915083602082028301111561215a57612159612106565b5b9250929050565b60008060006040848603121561217a57612179612001565b5b6000612188868287016120e7565b935050602084013567ffffffffffffffff8111156121a9576121a8612006565b5b6121b58682870161210b565b92509250509250925092565b6121ca816120c6565b82525050565b60006020820190506121e560008301846121c1565b92915050565b600081519050919050565b600082825260208201905092915050565b60005b8381101561222557808201518184015260208101905061220a565b60008484015250505050565b6000601f19601f8301169050919050565b600061224d826121eb565b61225781856121f6565b9350612267818560208601612207565b61227081612231565b840191505092915050565b600060208201905081810360008301526122958184612242565b905092915050565b6000602082840312156122b3576122b2612001565b5b60006122c1848285016120e7565b91505092915050565b600073ffffffffffffffffffffffffffffffffffffffff82169050919050565b60006122f5826122ca565b9050919050565b612305816122ea565b82525050565b600060208201905061232060008301846122fc565b92915050565b61232f816122ea565b811461233a57600080fd5b50565b60008135905061234c81612326565b92915050565b6000806040838503121561236957612368612001565b5b60006123778582860161233d565b9250506020612388858286016120e7565b9150509250929050565b6000806000606084860312156123ab576123aa612001565b5b60006123b98682870161233d565b93505060206123ca8682870161233d565b92505060406123db868287016120e7565b9150509250925092565b60008083601f8401126123fb576123fa6120fc565b5b8235905067ffffffffffffffff81111561241857612417612101565b5b60208301915083600182028301111561243457612433612106565b5b9250929050565b6000806020838503121561245257612451612001565b5b600083013567ffffffffffffffff8111156124705761246f612006565b5b61247c858286016123e5565b92509250509250929050565b60006020828403121561249e5761249d612001565b5b60006124ac8482850161233d565b91505092915050565b6124be81612090565b81146124c957600080fd5b50565b6000813590506124db816124b5565b92915050565b600080604083850312156124f8576124f7612001565b5b60006125068582860161233d565b9250506020612517858286016124cc565b9150509250929050565b600080fd5b7f4e487b7100000000000000000000000000000000000000000000000000000000600052604160045260246000fd5b61255e82612231565b810181811067ffffffffffffffff8211171561257d5761257c612526565b5b80604052505050565b6000612590611ff7565b905061259c8282612555565b919050565b600067ffffffffffffffff8211156125bc576125bb612526565b5b6125c582612231565b9050602081019050919050565b82818337600083830152505050565b60006125f46125ef846125a1565b612586565b9050828152602081018484840111156126105761260f612521565b5b61261b8482856125d2565b509392505050565b600082601f830112612638576126376120fc565b5b81356126488482602086016125e1565b91505092915050565b6000806000806080858703121561266b5761266a612001565b5b60006126798782880161233d565b945050602061268a8782880161233d565b935050604061269b878288016120e7565b925050606085013567ffffffffffffffff8111156126bc576126bb612006565b5b6126c887828801612623565b91505092959194509250565b600080604083850312156126eb576126ea612001565b5b60006126f98582860161233d565b925050602061270a8582860161233d565b9150509250929050565b7f4d617820737570706c7920726561636865640000000000000000000000000000600082015250565b600061274a6012836121f6565b915061275582612714565b602082019050919050565b600060208201905081810360008301526127798161273d565b9050919050565b7f4578636565646564206d6178206d696e74207065722061646472657373000000600082015250565b60006127b6601d836121f6565b91506127c182612780565b602082019050919050565b600060208201905081810360008301526127e5816127a9565b9050919050565b7f696e76616c6964206d65726b6c652070726f6f66000000000000000000000000600082015250565b60006128226014836121f6565b915061282d826127ec565b602082019050919050565b6000602082019050818103600083015261285181612815565b9050919050565b7f4e487b7100000000000000000000000000000000000000000000000000000000600052601160045260246000fd5b6000612892826120c6565b915061289d836120c6565b92508282019050808211156128b5576128b4612858565b5b92915050565b7f4e487b7100000000000000000000000000000000000000000000000000000000600052602260045260246000fd5b6000600282049050600182168061290257607f821691505b602082108103612915576129146128bb565b5b50919050565b600082905092915050565b60008190508160005260206000209050919050565b60006020601f8301049050919050565b600082821b905092915050565b6000600883026129887fffffffffffffffffffffffffffffffffffffffffffffffffffffffffffffffff8261294b565b612992868361294b565b95508019841693508086168417925050509392505050565b6000819050919050565b60006129cf6129ca6129c5846120c6565b6129aa565b6120c6565b9050919050565b6000819050919050565b6129e9836129b4565b6129fd6129f5826129d6565b848454612958565b825550505050565b600090565b612a12612a05565b612a1d8184846129e0565b505050565b5b81811015612a4157612a36600082612a0a565b600181019050612a23565b5050565b601f821115612a8657612a5781612926565b612a608461293b565b81016020851015612a6f578190505b612a83612a7b8561293b565b830182612a22565b50505b505050565b600082821c905092915050565b6000612aa960001984600802612a8b565b1980831691505092915050565b6000612ac28383612a98565b9150826002028217905092915050565b612adc838361291b565b67ffffffffffffffff811115612af557612af4612526565b5b612aff82546128ea565b612b0a828285612a45565b6000601f831160018114612b395760008415612b27578287013590505b612b318582612ab6565b865550612b99565b601f198416612b4786612926565b60005b82811015612b6f57848901358255600182019150602085019450602081019050612b4a565b86831015612b8c5784890135612b88601f891682612a98565b8355505b6001600288020188555050505b50505050505050565b6000612bad826120c6565b9150612bb8836120c6565b9250828202612bc6816120c6565b91508282048414831517612bdd57612bdc612858565b5b5092915050565b7f4e6f7420656e6f7567682062616c616e63650000000000000000000000000000600082015250565b6000612c1a6012836121f6565b9150612c2582612be4565b602082019050919050565b60006020820190508181036000830152612c4981612c0d565b9050919050565b600081905092915050565b6000612c66826121eb565b612c708185612c50565b9350612c80818560208601612207565b80840191505092915050565b7f2e6a736f6e000000000000000000000000000000000000000000000000000000600082015250565b6000612cc2600583612c50565b9150612ccd82612c8c565b600582019050919050565b6000612ce48285612c5b565b9150612cf08284612c5b565b9150612cfb82612cb5565b91508190509392505050565b7f4f776e61626c653a206e6577206f776e657220697320746865207a65726f206160008201527f6464726573730000000000000000000000000000000000000000000000000000602082015250565b6000612d636026836121f6565b9150612d6e82612d07565b604082019050919050565b60006020820190508181036000830152612d9281612d56565b9050919050565b7f4f776e61626c653a2063616c6c6572206973206e6f7420746865206f776e6572600082015250565b6000612dcf6020836121f6565b9150612dda82612d99565b602082019050919050565b60006020820190508181036000830152612dfe81612dc2565b9050919050565b600081519050919050565b600082825260208201905092915050565b6000612e2c82612e05565b612e368185612e10565b9350612e46818560208601612207565b612e4f81612231565b840191505092915050565b6000608082019050612e6f60008301876122fc565b612e7c60208301866122fc565b612e8960408301856121c1565b8181036060830152612e9b8184612e21565b905095945050505050565b600081519050612eb581612037565b92915050565b600060208284031215612ed157612ed0612001565b5b6000612edf84828501612ea6565b91505092915050565b7f4e487b7100000000000000000000000000000000000000000000000000000000600052601260045260246000fd5b7f4e487b7100000000000000000000000000000000000000000000000000000000600052603260045260246000fd5b6000612f51826120c6565b91507fffffffffffffffffffffffffffffffffffffffffffffffffffffffffffffffff8203612f8357612f82612858565b5b60018201905091905056fea26469706673582212205f23c4fe4303ab685291666c3539be9a0f7f4c03e2d3f9662f25d9ee624ebc8064736f6c63430008110033",
  "immutableReferences": {},
  "source": "// SPDX-License-Identifier: MIT\npragma solidity ^0.8.15;\n\nimport \"erc721a/contracts/ERC721A.sol\";\nimport \"@openzeppelin/contracts/access/Ownable.sol\";\nimport \"@openzeppelin/contracts/utils/Strings.sol\";\nimport \"@openzeppelin/contracts/utils/cryptography/MerkleProof.sol\";\n\ncontract FlappySealsWhiteList is ERC721A, Ownable {\n\n    using Strings for uint256;\n\n    uint public maxSupply;\n    uint public mintPerAddress;\n    uint public pricePerNFT;\n    string private _baseTokenURI;\n\n    bytes32 private merkleRoot;\n\n    mapping(address => uint) private _addressMintCount;\n    mapping(address => uint) private isAdmin;\n\n    modifier onlyAdmin() {\n        require(isAdmin[msg.sender] == 1);\n        _;\n    }\n\n    constructor(address _admin, bytes32 _merkleRoot) ERC721A(\"Flappy Seals\" ,\"SEALS\") {\n        maxSupply = 1000;\n        mintPerAddress = 3;\n        pricePerNFT = 0.015 ether;\n        isAdmin[_admin] = 1;\n        merkleRoot = _merkleRoot;\n    }\n\n    function mint(uint256 _amount) external payable {\n        require(totalSupply() < maxSupply, \"Max supply reached\");\n        require(_addressMintCount[msg.sender] < mintPerAddress, \"Exceeded max mint per address\");\n        require(msg.value >= pricePerNFT * _amount, \"Not enough balance\");\n        _addressMintCount[msg.sender] += _amount;\n        _mint(msg.sender, _amount);\n    }\n\n    function mintWhitelist(uint256 _amount, bytes32[] calldata merkleProof) external payable {\n        require(totalSupply() < maxSupply, \"Max supply reached\");\n        require(_addressMintCount[msg.sender] < mintPerAddress, \"Exceeded max mint per address\");\n        require(MerkleProof.verify(merkleProof, merkleRoot, toBytes32(msg.sender)) == true, \"invalid merkle proof\");\n        _addressMintCount[msg.sender] += _amount;\n        _mint(msg.sender, _amount);\n    }\n\n    function mintAdmin(uint256 _amount) external payable onlyAdmin {\n        require(totalSupply() < maxSupply, \"Max supply reached\");\n        _addressMintCount[msg.sender] += _amount;\n        _mint(msg.sender, _amount);\n    }\n\n    function setPrice(uint _amount) public onlyOwner {\n         pricePerNFT = _amount;\n    }\n\n    function setMaxMintPerAddress(uint _amount) public onlyOwner {\n        mintPerAddress = _amount;\n    }\n\n\n    function withdraw() public onlyAdmin {\n        payable(msg.sender).transfer(address(this).balance);\n    }\n    \n      function setBaseURI(string calldata baseURI) external onlyOwner {\n        _baseTokenURI = baseURI;\n    }\n\n    function _baseURI() internal view override returns (string memory) {\n        return _baseTokenURI;\n    }\n\n    function tokenURI(uint256 tokenId) public view virtual override returns (string memory) {\n        string memory baseURI = _baseURI();\n        return bytes(baseURI).length > 0 ? string(abi.encodePacked(baseURI, tokenId.toString(), \".json\")) : \"\";\n    }\n\n    function _startTokenId() internal pure override returns (uint256) {\n        return 1;\n    }\n\n    function toBytes32(address addr) pure internal returns (bytes32) {\n       return bytes32(uint256(uint160(addr)));\n    }\n\n}",
  "sourcePath": "/Users/cobra/Desktop/twinNFTFE/TwinNFTtruffle/contracts/FlappySealsWhitelist.sol",
  "compiler": {
    "name": "solc",
    "version": "0.8.17+commit.8df45f5f.Emscripten.clang"
  },
  "schemaVersion": "3.4.11",
  "updatedAt": "2023-03-03T12:06:39.686Z",
  "networkType": "ethereum",
  "devdoc": {
    "kind": "dev",
    "methods": {
      "approve(address,uint256)": {
        "details": "Gives permission to `to` to transfer `tokenId` token to another account. The approval is cleared when the token is transferred. Only a single account can be approved at a time, so approving the zero address clears previous approvals. Requirements: - The caller must own the token or be an approved operator. - `tokenId` must exist. Emits an {Approval} event."
      },
      "balanceOf(address)": {
        "details": "Returns the number of tokens in `owner`'s account."
      },
      "getApproved(uint256)": {
        "details": "Returns the account approved for `tokenId` token. Requirements: - `tokenId` must exist."
      },
      "isApprovedForAll(address,address)": {
        "details": "Returns if the `operator` is allowed to manage all of the assets of `owner`. See {setApprovalForAll}."
      },
      "name()": {
        "details": "Returns the token collection name."
      },
      "owner()": {
        "details": "Returns the address of the current owner."
      },
      "ownerOf(uint256)": {
        "details": "Returns the owner of the `tokenId` token. Requirements: - `tokenId` must exist."
      },
      "renounceOwnership()": {
        "details": "Leaves the contract without owner. It will not be possible to call `onlyOwner` functions anymore. Can only be called by the current owner. NOTE: Renouncing ownership will leave the contract without an owner, thereby removing any functionality that is only available to the owner."
      },
      "safeTransferFrom(address,address,uint256)": {
        "details": "Equivalent to `safeTransferFrom(from, to, tokenId, '')`."
      },
      "safeTransferFrom(address,address,uint256,bytes)": {
        "details": "Safely transfers `tokenId` token from `from` to `to`. Requirements: - `from` cannot be the zero address. - `to` cannot be the zero address. - `tokenId` token must exist and be owned by `from`. - If the caller is not `from`, it must be approved to move this token by either {approve} or {setApprovalForAll}. - If `to` refers to a smart contract, it must implement {IERC721Receiver-onERC721Received}, which is called upon a safe transfer. Emits a {Transfer} event."
      },
      "setApprovalForAll(address,bool)": {
        "details": "Approve or remove `operator` as an operator for the caller. Operators can call {transferFrom} or {safeTransferFrom} for any token owned by the caller. Requirements: - The `operator` cannot be the caller. Emits an {ApprovalForAll} event."
      },
      "supportsInterface(bytes4)": {
        "details": "Returns true if this contract implements the interface defined by `interfaceId`. See the corresponding [EIP section](https://eips.ethereum.org/EIPS/eip-165#how-interfaces-are-identified) to learn more about how these ids are created. This function call must use less than 30000 gas."
      },
      "symbol()": {
        "details": "Returns the token collection symbol."
      },
      "tokenURI(uint256)": {
        "details": "Returns the Uniform Resource Identifier (URI) for `tokenId` token."
      },
      "totalSupply()": {
        "details": "Returns the total number of tokens in existence. Burned tokens will reduce the count. To get the total number of tokens minted, please see {_totalMinted}."
      },
      "transferFrom(address,address,uint256)": {
        "details": "Transfers `tokenId` from `from` to `to`. Requirements: - `from` cannot be the zero address. - `to` cannot be the zero address. - `tokenId` token must be owned by `from`. - If the caller is not `from`, it must be approved to move this token by either {approve} or {setApprovalForAll}. Emits a {Transfer} event."
      },
      "transferOwnership(address)": {
        "details": "Transfers ownership of the contract to a new account (`newOwner`). Can only be called by the current owner."
      }
    },
    "version": 1
  },
  "userdoc": {
    "errors": {
      "ApprovalCallerNotOwnerNorApproved()": [
        {
          "notice": "The caller must own the token or be an approved operator."
        }
      ],
      "ApprovalQueryForNonexistentToken()": [
        {
          "notice": "The token does not exist."
        }
      ],
      "BalanceQueryForZeroAddress()": [
        {
          "notice": "Cannot query the balance for the zero address."
        }
      ],
      "MintERC2309QuantityExceedsLimit()": [
        {
          "notice": "The `quantity` minted with ERC2309 exceeds the safety limit."
        }
      ],
      "MintToZeroAddress()": [
        {
          "notice": "Cannot mint to the zero address."
        }
      ],
      "MintZeroQuantity()": [
        {
          "notice": "The quantity of tokens minted must be more than zero."
        }
      ],
      "OwnerQueryForNonexistentToken()": [
        {
          "notice": "The token does not exist."
        }
      ],
      "OwnershipNotInitializedForExtraData()": [
        {
          "notice": "The `extraData` cannot be set on an unintialized ownership slot."
        }
      ],
      "TransferCallerNotOwnerNorApproved()": [
        {
          "notice": "The caller must own the token or be an approved operator."
        }
      ],
      "TransferFromIncorrectOwner()": [
        {
          "notice": "The token must be owned by `from`."
        }
      ],
      "TransferToNonERC721ReceiverImplementer()": [
        {
          "notice": "Cannot safely transfer to a contract that does not implement the ERC721Receiver interface."
        }
      ],
      "TransferToZeroAddress()": [
        {
          "notice": "Cannot transfer to the zero address."
        }
      ],
      "URIQueryForNonexistentToken()": [
        {
          "notice": "The token does not exist."
        }
      ]
    },
    "kind": "user",
    "methods": {},
    "version": 1
  }
}