{
  "contractName": "FlappySealsWhiteList",
  "abi": [
    {
      "inputs": [
        {
          "internalType": "address",
          "name": "_admin",
          "type": "address"
        },
        {
          "internalType": "bytes32",
          "name": "_merkleRoot",
          "type": "bytes32"
        }
      ],
      "stateMutability": "nonpayable",
      "type": "constructor"
    },
    {
      "inputs": [],
      "name": "ApprovalCallerNotOwnerNorApproved",
      "type": "error"
    },
    {
      "inputs": [],
      "name": "ApprovalQueryForNonexistentToken",
      "type": "error"
    },
    {
      "inputs": [],
      "name": "BalanceQueryForZeroAddress",
      "type": "error"
    },
    {
      "inputs": [],
      "name": "MintERC2309QuantityExceedsLimit",
      "type": "error"
    },
    {
      "inputs": [],
      "name": "MintToZeroAddress",
      "type": "error"
    },
    {
      "inputs": [],
      "name": "MintZeroQuantity",
      "type": "error"
    },
    {
      "inputs": [],
      "name": "OwnerQueryForNonexistentToken",
      "type": "error"
    },
    {
      "inputs": [],
      "name": "OwnershipNotInitializedForExtraData",
      "type": "error"
    },
    {
      "inputs": [],
      "name": "TransferCallerNotOwnerNorApproved",
      "type": "error"
    },
    {
      "inputs": [],
      "name": "TransferFromIncorrectOwner",
      "type": "error"
    },
    {
      "inputs": [],
      "name": "TransferToNonERC721ReceiverImplementer",
      "type": "error"
    },
    {
      "inputs": [],
      "name": "TransferToZeroAddress",
      "type": "error"
    },
    {
      "inputs": [],
      "name": "URIQueryForNonexistentToken",
      "type": "error"
    },
    {
      "anonymous": false,
      "inputs": [
        {
          "indexed": true,
          "internalType": "address",
          "name": "owner",
          "type": "address"
        },
        {
          "indexed": true,
          "internalType": "address",
          "name": "approved",
          "type": "address"
        },
        {
          "indexed": true,
          "internalType": "uint256",
          "name": "tokenId",
          "type": "uint256"
        }
      ],
      "name": "Approval",
      "type": "event"
    },
    {
      "anonymous": false,
      "inputs": [
        {
          "indexed": true,
          "internalType": "address",
          "name": "owner",
          "type": "address"
        },
        {
          "indexed": true,
          "internalType": "address",
          "name": "operator",
          "type": "address"
        },
        {
          "indexed": false,
          "internalType": "bool",
          "name": "approved",
          "type": "bool"
        }
      ],
      "name": "ApprovalForAll",
      "type": "event"
    },
    {
      "anonymous": false,
      "inputs": [
        {
          "indexed": true,
          "internalType": "uint256",
          "name": "fromTokenId",
          "type": "uint256"
        },
        {
          "indexed": false,
          "internalType": "uint256",
          "name": "toTokenId",
          "type": "uint256"
        },
        {
          "indexed": true,
          "internalType": "address",
          "name": "from",
          "type": "address"
        },
        {
          "indexed": true,
          "internalType": "address",
          "name": "to",
          "type": "address"
        }
      ],
      "name": "ConsecutiveTransfer",
      "type": "event"
    },
    {
      "anonymous": false,
      "inputs": [
        {
          "indexed": true,
          "internalType": "address",
          "name": "previousOwner",
          "type": "address"
        },
        {
          "indexed": true,
          "internalType": "address",
          "name": "newOwner",
          "type": "address"
        }
      ],
      "name": "OwnershipTransferred",
      "type": "event"
    },
    {
      "anonymous": false,
      "inputs": [
        {
          "indexed": true,
          "internalType": "address",
          "name": "from",
          "type": "address"
        },
        {
          "indexed": true,
          "internalType": "address",
          "name": "to",
          "type": "address"
        },
        {
          "indexed": true,
          "internalType": "uint256",
          "name": "tokenId",
          "type": "uint256"
        }
      ],
      "name": "Transfer",
      "type": "event"
    },
    {
      "inputs": [
        {
          "internalType": "address",
          "name": "to",
          "type": "address"
        },
        {
          "internalType": "uint256",
          "name": "tokenId",
          "type": "uint256"
        }
      ],
      "name": "approve",
      "outputs": [],
      "stateMutability": "payable",
      "type": "function",
      "payable": true
    },
    {
      "inputs": [
        {
          "internalType": "address",
          "name": "owner",
          "type": "address"
        }
      ],
      "name": "balanceOf",
      "outputs": [
        {
          "internalType": "uint256",
          "name": "",
          "type": "uint256"
        }
      ],
      "stateMutability": "view",
      "type": "function",
      "constant": true
    },
    {
      "inputs": [
        {
          "internalType": "uint256",
          "name": "tokenId",
          "type": "uint256"
        }
      ],
      "name": "getApproved",
      "outputs": [
        {
          "internalType": "address",
          "name": "",
          "type": "address"
        }
      ],
      "stateMutability": "view",
      "type": "function",
      "constant": true
    },
    {
      "inputs": [
        {
          "internalType": "address",
          "name": "owner",
          "type": "address"
        },
        {
          "internalType": "address",
          "name": "operator",
          "type": "address"
        }
      ],
      "name": "isApprovedForAll",
      "outputs": [
        {
          "internalType": "bool",
          "name": "",
          "type": "bool"
        }
      ],
      "stateMutability": "view",
      "type": "function",
      "constant": true
    },
    {
      "inputs": [],
      "name": "maxSupply",
      "outputs": [
        {
          "internalType": "uint256",
          "name": "",
          "type": "uint256"
        }
      ],
      "stateMutability": "view",
      "type": "function",
      "constant": true
    },
    {
      "inputs": [],
      "name": "mintPerAddress",
      "outputs": [
        {
          "internalType": "uint256",
          "name": "",
          "type": "uint256"
        }
      ],
      "stateMutability": "view",
      "type": "function",
      "constant": true
    },
    {
      "inputs": [],
      "name": "name",
      "outputs": [
        {
          "internalType": "string",
          "name": "",
          "type": "string"
        }
      ],
      "stateMutability": "view",
      "type": "function",
      "constant": true
    },
    {
      "inputs": [],
      "name": "owner",
      "outputs": [
        {
          "internalType": "address",
          "name": "",
          "type": "address"
        }
      ],
      "stateMutability": "view",
      "type": "function",
      "constant": true
    },
    {
      "inputs": [
        {
          "internalType": "uint256",
          "name": "tokenId",
          "type": "uint256"
        }
      ],
      "name": "ownerOf",
      "outputs": [
        {
          "internalType": "address",
          "name": "",
          "type": "address"
        }
      ],
      "stateMutability": "view",
      "type": "function",
      "constant": true
    },
    {
      "inputs": [],
      "name": "pricePerNFT",
      "outputs": [
        {
          "internalType": "uint256",
          "name": "",
          "type": "uint256"
        }
      ],
      "stateMutability": "view",
      "type": "function",
      "constant": true
    },
    {
      "inputs": [],
      "name": "renounceOwnership",
      "outputs": [],
      "stateMutability": "nonpayable",
      "type": "function"
    },
    {
      "inputs": [
        {
          "internalType": "address",
          "name": "from",
          "type": "address"
        },
        {
          "internalType": "address",
          "name": "to",
          "type": "address"
        },
        {
          "internalType": "uint256",
          "name": "tokenId",
          "type": "uint256"
        }
      ],
      "name": "safeTransferFrom",
      "outputs": [],
      "stateMutability": "payable",
      "type": "function",
      "payable": true
    },
    {
      "inputs": [
        {
          "internalType": "address",
          "name": "from",
          "type": "address"
        },
        {
          "internalType": "address",
          "name": "to",
          "type": "address"
        },
        {
          "internalType": "uint256",
          "name": "tokenId",
          "type": "uint256"
        },
        {
          "internalType": "bytes",
          "name": "_data",
          "type": "bytes"
        }
      ],
      "name": "safeTransferFrom",
      "outputs": [],
      "stateMutability": "payable",
      "type": "function",
      "payable": true
    },
    {
      "inputs": [
        {
          "internalType": "address",
          "name": "operator",
          "type": "address"
        },
        {
          "internalType": "bool",
          "name": "approved",
          "type": "bool"
        }
      ],
      "name": "setApprovalForAll",
      "outputs": [],
      "stateMutability": "nonpayable",
      "type": "function"
    },
    {
      "inputs": [
        {
          "internalType": "bytes4",
          "name": "interfaceId",
          "type": "bytes4"
        }
      ],
      "name": "supportsInterface",
      "outputs": [
        {
          "internalType": "bool",
          "name": "",
          "type": "bool"
        }
      ],
      "stateMutability": "view",
      "type": "function",
      "constant": true
    },
    {
      "inputs": [],
      "name": "symbol",
      "outputs": [
        {
          "internalType": "string",
          "name": "",
          "type": "string"
        }
      ],
      "stateMutability": "view",
      "type": "function",
      "constant": true
    },
    {
      "inputs": [],
      "name": "totalSupply",
      "outputs": [
        {
          "internalType": "uint256",
          "name": "",
          "type": "uint256"
        }
      ],
      "stateMutability": "view",
      "type": "function",
      "constant": true
    },
    {
      "inputs": [
        {
          "internalType": "address",
          "name": "from",
          "type": "address"
        },
        {
          "internalType": "address",
          "name": "to",
          "type": "address"
        },
        {
          "internalType": "uint256",
          "name": "tokenId",
          "type": "uint256"
        }
      ],
      "name": "transferFrom",
      "outputs": [],
      "stateMutability": "payable",
      "type": "function",
      "payable": true
    },
    {
      "inputs": [
        {
          "internalType": "address",
          "name": "newOwner",
          "type": "address"
        }
      ],
      "name": "transferOwnership",
      "outputs": [],
      "stateMutability": "nonpayable",
      "type": "function"
    },
    {
      "inputs": [
        {
          "internalType": "uint256",
          "name": "_amount",
          "type": "uint256"
        }
      ],
      "name": "mint",
      "outputs": [],
      "stateMutability": "payable",
      "type": "function",
      "payable": true
    },
    {
      "inputs": [
        {
          "internalType": "uint256",
          "name": "_amount",
          "type": "uint256"
        },
        {
          "internalType": "bytes32[]",
          "name": "merkleProof",
          "type": "bytes32[]"
        }
      ],
      "name": "mintWhitelist",
      "outputs": [],
      "stateMutability": "payable",
      "type": "function",
      "payable": true
    },
    {
      "inputs": [
        {
          "internalType": "uint256",
          "name": "_amount",
          "type": "uint256"
        }
      ],
      "name": "setPrice",
      "outputs": [],
      "stateMutability": "nonpayable",
      "type": "function"
    },
    {
      "inputs": [
        {
          "internalType": "uint256",
          "name": "_amount",
          "type": "uint256"
        }
      ],
      "name": "setMaxMintPerAddress",
      "outputs": [],
      "stateMutability": "nonpayable",
      "type": "function"
    },
    {
      "inputs": [],
      "name": "withdraw",
      "outputs": [],
      "stateMutability": "nonpayable",
      "type": "function"
    },
    {
      "inputs": [
        {
          "internalType": "string",
          "name": "baseURI",
          "type": "string"
        }
      ],
      "name": "setBaseURI",
      "outputs": [],
      "stateMutability": "nonpayable",
      "type": "function"
    },
    {
      "inputs": [
        {
          "internalType": "uint256",
          "name": "tokenId",
          "type": "uint256"
        }
      ],
      "name": "tokenURI",
      "outputs": [
        {
          "internalType": "string",
          "name": "",
          "type": "string"
        }
      ],
      "stateMutability": "view",
      "type": "function",
      "constant": true
    }
  ],
  "bytecode": "0x60806040523480156200001157600080fd5b5060405162003589380380620035898339818101604052810190620000379190620002ee565b6040518060400160405280600c81526020017f466c61707079205365616c7300000000000000000000000000000000000000008152506040518060400160405280600581526020017f5345414c530000000000000000000000000000000000000000000000000000008152508160029081620000b49190620005af565b508060039081620000c69190620005af565b50620000d76200017260201b60201c565b6000819055505050620000ff620000f36200017b60201b60201c565b6200018360201b60201c565b6103e86009819055506003600a8190555066354a6ba7a18000600b819055506001600f60008473ffffffffffffffffffffffffffffffffffffffff1673ffffffffffffffffffffffffffffffffffffffff1681526020019081526020016000208190555080600d81905550505062000696565b60006001905090565b600033905090565b6000600860009054906101000a900473ffffffffffffffffffffffffffffffffffffffff16905081600860006101000a81548173ffffffffffffffffffffffffffffffffffffffff021916908373ffffffffffffffffffffffffffffffffffffffff1602179055508173ffffffffffffffffffffffffffffffffffffffff168173ffffffffffffffffffffffffffffffffffffffff167f8be0079c531659141344cd1fd0a4f28419497f9722a3daafe3b4186f6b6457e060405160405180910390a35050565b600080fd5b600073ffffffffffffffffffffffffffffffffffffffff82169050919050565b60006200027b826200024e565b9050919050565b6200028d816200026e565b81146200029957600080fd5b50565b600081519050620002ad8162000282565b92915050565b6000819050919050565b620002c881620002b3565b8114620002d457600080fd5b50565b600081519050620002e881620002bd565b92915050565b6000806040838503121562000308576200030762000249565b5b600062000318858286016200029c565b92505060206200032b85828601620002d7565b9150509250929050565b600081519050919050565b7f4e487b7100000000000000000000000000000000000000000000000000000000600052604160045260246000fd5b7f4e487b7100000000000000000000000000000000000000000000000000000000600052602260045260246000fd5b60006002820490506001821680620003b757607f821691505b602082108103620003cd57620003cc6200036f565b5b50919050565b60008190508160005260206000209050919050565b60006020601f8301049050919050565b600082821b905092915050565b600060088302620004377fffffffffffffffffffffffffffffffffffffffffffffffffffffffffffffffff82620003f8565b620004438683620003f8565b95508019841693508086168417925050509392505050565b6000819050919050565b6000819050919050565b6000620004906200048a62000484846200045b565b62000465565b6200045b565b9050919050565b6000819050919050565b620004ac836200046f565b620004c4620004bb8262000497565b84845462000405565b825550505050565b600090565b620004db620004cc565b620004e8818484620004a1565b505050565b5b81811015620005105762000504600082620004d1565b600181019050620004ee565b5050565b601f8211156200055f576200052981620003d3565b6200053484620003e8565b8101602085101562000544578190505b6200055c6200055385620003e8565b830182620004ed565b50505b505050565b600082821c905092915050565b6000620005846000198460080262000564565b1980831691505092915050565b60006200059f838362000571565b9150826002028217905092915050565b620005ba8262000335565b67ffffffffffffffff811115620005d657620005d562000340565b5b620005e282546200039e565b620005ef82828562000514565b600060209050601f83116001811462000627576000841562000612578287015190505b6200061e858262000591565b8655506200068e565b601f1984166200063786620003d3565b60005b8281101562000661578489015182556001820191506020850194506020810190506200063a565b868310156200068157848901516200067d601f89168262000571565b8355505b6001600288020188555050505b505050505050565b612ee380620006a66000396000f3fe6080604052600436106101815760003560e01c806370a08231116100d1578063a22cb4651161008a578063d5abeb0111610064578063d5abeb0114610508578063e985e9c514610533578063f2fde38b14610570578063f47a269c1461059957610181565b8063a22cb46514610486578063b88d4fde146104af578063c87b56dd146104cb57610181565b806370a0823114610397578063715018a6146103d45780638da5cb5b146103eb57806391b7f5ed1461041657806395d89b411461043f578063a0712d681461046a57610181565b806318160ddd1161013e5780633ccfd60b116101185780633ccfd60b146102fe57806342842e0e1461031557806355f804b3146103315780636352211e1461035a57610181565b806318160ddd1461028e5780631e14d44b146102b957806323b872dd146102e257610181565b806301ffc9a714610186578063061431a8146101c35780630628aa70146101df57806306fdde031461020a578063081812fc14610235578063095ea7b314610272575b600080fd5b34801561019257600080fd5b506101ad60048036038101906101a89190611f82565b6105c4565b6040516101ba9190611fca565b60405180910390f35b6101dd60048036038101906101d89190612080565b610656565b005b3480156101eb57600080fd5b506101f4610875565b60405161020191906120ef565b60405180910390f35b34801561021657600080fd5b5061021f61087b565b60405161022c919061219a565b60405180910390f35b34801561024157600080fd5b5061025c600480360381019061025791906121bc565b61090d565b604051610269919061222a565b60405180910390f35b61028c60048036038101906102879190612271565b61098c565b005b34801561029a57600080fd5b506102a3610ad0565b6040516102b091906120ef565b60405180910390f35b3480156102c557600080fd5b506102e060048036038101906102db91906121bc565b610ae7565b005b6102fc60048036038101906102f791906122b1565b610af9565b005b34801561030a57600080fd5b50610313610e1b565b005b61032f600480360381019061032a91906122b1565b610eb0565b005b34801561033d57600080fd5b506103586004803603810190610353919061235a565b610ed0565b005b34801561036657600080fd5b50610381600480360381019061037c91906121bc565b610eee565b60405161038e919061222a565b60405180910390f35b3480156103a357600080fd5b506103be60048036038101906103b991906123a7565b610f00565b6040516103cb91906120ef565b60405180910390f35b3480156103e057600080fd5b506103e9610fb8565b005b3480156103f757600080fd5b50610400610fcc565b60405161040d919061222a565b60405180910390f35b34801561042257600080fd5b5061043d600480360381019061043891906121bc565b610ff6565b005b34801561044b57600080fd5b50610454611008565b604051610461919061219a565b60405180910390f35b610484600480360381019061047f91906121bc565b61109a565b005b34801561049257600080fd5b506104ad60048036038101906104a89190612400565b61121b565b005b6104c960048036038101906104c49190612570565b611326565b005b3480156104d757600080fd5b506104f260048036038101906104ed91906121bc565b611399565b6040516104ff919061219a565b60405180910390f35b34801561051457600080fd5b5061051d6113f8565b60405161052a91906120ef565b60405180910390f35b34801561053f57600080fd5b5061055a600480360381019061055591906125f3565b6113fe565b6040516105679190611fca565b60405180910390f35b34801561057c57600080fd5b50610597600480360381019061059291906123a7565b611492565b005b3480156105a557600080fd5b506105ae611515565b6040516105bb91906120ef565b60405180910390f35b60006301ffc9a760e01b827bffffffffffffffffffffffffffffffffffffffffffffffffffffffff1916148061061f57506380ac58cd60e01b827bffffffffffffffffffffffffffffffffffffffffffffffffffffffff1916145b8061064f5750635b5e139f60e01b827bffffffffffffffffffffffffffffffffffffffffffffffffffffffff1916145b9050919050565b600954610661610ad0565b106106a1576040517f08c379a00000000000000000000000000000000000000000000000000000000081526004016106989061267f565b60405180910390fd5b600a54600e60003373ffffffffffffffffffffffffffffffffffffffff1673ffffffffffffffffffffffffffffffffffffffff1681526020019081526020016000205410610724576040517f08c379a000000000000000000000000000000000000000000000000000000000815260040161071b906126eb565b60405180910390fd5b82600b54610732919061273a565b341015610774576040517f08c379a000000000000000000000000000000000000000000000000000000000815260040161076b906127c8565b60405180910390fd5b600115156107ce838380806020026020016040519081016040528093929190818152602001838360200280828437600081840152601f19601f82011690508083019250505050505050600d546107c93361151b565b61153e565b151514610810576040517f08c379a000000000000000000000000000000000000000000000000000000000815260040161080790612834565b60405180910390fd5b82600e60003373ffffffffffffffffffffffffffffffffffffffff1673ffffffffffffffffffffffffffffffffffffffff168152602001908152602001600020600082825461085f9190612854565b925050819055506108703384611555565b505050565b600b5481565b60606002805461088a906128b7565b80601f01602080910402602001604051908101604052809291908181526020018280546108b6906128b7565b80156109035780601f106108d857610100808354040283529160200191610903565b820191906000526020600020905b8154815290600101906020018083116108e657829003601f168201915b5050505050905090565b600061091882611710565b61094e576040517fcf4700e400000000000000000000000000000000000000000000000000000000815260040160405180910390fd5b6006600083815260200190815260200160002060000160009054906101000a900473ffffffffffffffffffffffffffffffffffffffff169050919050565b600061099782610eee565b90508073ffffffffffffffffffffffffffffffffffffffff166109b861176f565b73ffffffffffffffffffffffffffffffffffffffff1614610a1b576109e4816109df61176f565b6113fe565b610a1a576040517fcfb3b94200000000000000000000000000000000000000000000000000000000815260040160405180910390fd5b5b826006600084815260200190815260200160002060000160006101000a81548173ffffffffffffffffffffffffffffffffffffffff021916908373ffffffffffffffffffffffffffffffffffffffff160217905550818373ffffffffffffffffffffffffffffffffffffffff168273ffffffffffffffffffffffffffffffffffffffff167f8c5be1e5ebec7d5bd14f71427d1e84f3dd0314c0f7b2291e5b200ac8c7c3b92560405160405180910390a4505050565b6000610ada611777565b6001546000540303905090565b610aef611780565b80600a8190555050565b6000610b04826117fe565b90508373ffffffffffffffffffffffffffffffffffffffff168173ffffffffffffffffffffffffffffffffffffffff1614610b6b576040517fa114810000000000000000000000000000000000000000000000000000000000815260040160405180910390fd5b600080610b77846118ca565b91509150610b8d8187610b8861176f565b6118f1565b610bd957610ba286610b9d61176f565b6113fe565b610bd8576040517f59c896be00000000000000000000000000000000000000000000000000000000815260040160405180910390fd5b5b600073ffffffffffffffffffffffffffffffffffffffff168573ffffffffffffffffffffffffffffffffffffffff1603610c3f576040517fea553b3400000000000000000000000000000000000000000000000000000000815260040160405180910390fd5b610c4c8686866001611935565b8015610c5757600082555b600560008773ffffffffffffffffffffffffffffffffffffffff1673ffffffffffffffffffffffffffffffffffffffff168152602001908152602001600020600081546001900391905081905550600560008673ffffffffffffffffffffffffffffffffffffffff1673ffffffffffffffffffffffffffffffffffffffff1681526020019081526020016000206000815460010191905081905550610d2585610d0188888761193b565b7c020000000000000000000000000000000000000000000000000000000017611963565b600460008681526020019081526020016000208190555060007c0200000000000000000000000000000000000000000000000000000000841603610dab5760006001850190506000600460008381526020019081526020016000205403610da9576000548114610da8578360046000838152602001908152602001600020819055505b5b505b838573ffffffffffffffffffffffffffffffffffffffff168773ffffffffffffffffffffffffffffffffffffffff167fddf252ad1be2c89b69c2b068fc378daa952ba7f163c4a11628f55a4df523b3ef60405160405180910390a4610e13868686600161198e565b505050505050565b6001600f60003373ffffffffffffffffffffffffffffffffffffffff1673ffffffffffffffffffffffffffffffffffffffff1681526020019081526020016000205414610e6757600080fd5b3373ffffffffffffffffffffffffffffffffffffffff166108fc479081150290604051600060405180830381858888f19350505050158015610ead573d6000803e3d6000fd5b50565b610ecb83838360405180602001604052806000815250611326565b505050565b610ed8611780565b8181600c9182610ee9929190612a9f565b505050565b6000610ef9826117fe565b9050919050565b60008073ffffffffffffffffffffffffffffffffffffffff168273ffffffffffffffffffffffffffffffffffffffff1603610f67576040517f8f4eb60400000000000000000000000000000000000000000000000000000000815260040160405180910390fd5b67ffffffffffffffff600560008473ffffffffffffffffffffffffffffffffffffffff1673ffffffffffffffffffffffffffffffffffffffff16815260200190815260200160002054169050919050565b610fc0611780565b610fca6000611994565b565b6000600860009054906101000a900473ffffffffffffffffffffffffffffffffffffffff16905090565b610ffe611780565b80600b8190555050565b606060038054611017906128b7565b80601f0160208091040260200160405190810160405280929190818152602001828054611043906128b7565b80156110905780601f1061106557610100808354040283529160200191611090565b820191906000526020600020905b81548152906001019060200180831161107357829003601f168201915b5050505050905090565b6009546110a5610ad0565b106110e5576040517f08c379a00000000000000000000000000000000000000000000000000000000081526004016110dc9061267f565b60405180910390fd5b600a54600e60003373ffffffffffffffffffffffffffffffffffffffff1673ffffffffffffffffffffffffffffffffffffffff1681526020019081526020016000205410611168576040517f08c379a000000000000000000000000000000000000000000000000000000000815260040161115f906126eb565b60405180910390fd5b80600b54611176919061273a565b3410156111b8576040517f08c379a00000000000000000000000000000000000000000000000000000000081526004016111af906127c8565b60405180910390fd5b80600e60003373ffffffffffffffffffffffffffffffffffffffff1673ffffffffffffffffffffffffffffffffffffffff16815260200190815260200160002060008282546112079190612854565b925050819055506112183382611555565b50565b806007600061122861176f565b73ffffffffffffffffffffffffffffffffffffffff1673ffffffffffffffffffffffffffffffffffffffff16815260200190815260200160002060008473ffffffffffffffffffffffffffffffffffffffff1673ffffffffffffffffffffffffffffffffffffffff16815260200190815260200160002060006101000a81548160ff0219169083151502179055508173ffffffffffffffffffffffffffffffffffffffff166112d561176f565b73ffffffffffffffffffffffffffffffffffffffff167f17307eab39ab6107e8899845ad3d59bd9653f200f220920489ca2b5937696c318360405161131a9190611fca565b60405180910390a35050565b611331848484610af9565b60008373ffffffffffffffffffffffffffffffffffffffff163b146113935761135c84848484611a5a565b611392576040517fd1a57ed600000000000000000000000000000000000000000000000000000000815260040160405180910390fd5b5b50505050565b606060006113a5611baa565b905060008151116113c557604051806020016040528060008152506113f0565b806113cf84611c3c565b6040516020016113e0929190612bf7565b6040516020818303038152906040525b915050919050565b60095481565b6000600760008473ffffffffffffffffffffffffffffffffffffffff1673ffffffffffffffffffffffffffffffffffffffff16815260200190815260200160002060008373ffffffffffffffffffffffffffffffffffffffff1673ffffffffffffffffffffffffffffffffffffffff16815260200190815260200160002060009054906101000a900460ff16905092915050565b61149a611780565b600073ffffffffffffffffffffffffffffffffffffffff168173ffffffffffffffffffffffffffffffffffffffff1603611509576040517f08c379a000000000000000000000000000000000000000000000000000000000815260040161150090612c98565b60405180910390fd5b61151281611994565b50565b600a5481565b60008173ffffffffffffffffffffffffffffffffffffffff1660001b9050919050565b60008261154b8584611d0a565b1490509392505050565b60008054905060008203611595576040517fb562e8dd00000000000000000000000000000000000000000000000000000000815260040160405180910390fd5b6115a26000848385611935565b600160406001901b178202600560008573ffffffffffffffffffffffffffffffffffffffff1673ffffffffffffffffffffffffffffffffffffffff168152602001908152602001600020600082825401925050819055506116198361160a600086600061193b565b61161385611d60565b17611963565b6004600083815260200190815260200160002081905550600080838301905073ffffffffffffffffffffffffffffffffffffffff85169150828260007fddf252ad1be2c89b69c2b068fc378daa952ba7f163c4a11628f55a4df523b3ef600080a4600183015b8181146116ba57808360007fddf252ad1be2c89b69c2b068fc378daa952ba7f163c4a11628f55a4df523b3ef600080a460018101905061167f565b50600082036116f5576040517f2e07630000000000000000000000000000000000000000000000000000000000815260040160405180910390fd5b80600081905550505061170b600084838561198e565b505050565b60008161171b611777565b1115801561172a575060005482105b8015611768575060007c0100000000000000000000000000000000000000000000000000000000600460008581526020019081526020016000205416145b9050919050565b600033905090565b60006001905090565b611788611d70565b73ffffffffffffffffffffffffffffffffffffffff166117a6610fcc565b73ffffffffffffffffffffffffffffffffffffffff16146117fc576040517f08c379a00000000000000000000000000000000000000000000000000000000081526004016117f390612d04565b60405180910390fd5b565b6000808290508061180d611777565b11611893576000548110156118925760006004600083815260200190815260200160002054905060007c0100000000000000000000000000000000000000000000000000000000821603611890575b6000810361188657600460008360019003935083815260200190815260200160002054905061185c565b80925050506118c5565b505b5b6040517fdf2d9b4200000000000000000000000000000000000000000000000000000000815260040160405180910390fd5b919050565b60008060006006600085815260200190815260200160002090508092508254915050915091565b600073ffffffffffffffffffffffffffffffffffffffff8316925073ffffffffffffffffffffffffffffffffffffffff821691508382148383141790509392505050565b50505050565b60008060e883901c905060e8611952868684611d78565b62ffffff16901b9150509392505050565b600073ffffffffffffffffffffffffffffffffffffffff83169250814260a01b178317905092915050565b50505050565b6000600860009054906101000a900473ffffffffffffffffffffffffffffffffffffffff16905081600860006101000a81548173ffffffffffffffffffffffffffffffffffffffff021916908373ffffffffffffffffffffffffffffffffffffffff1602179055508173ffffffffffffffffffffffffffffffffffffffff168173ffffffffffffffffffffffffffffffffffffffff167f8be0079c531659141344cd1fd0a4f28419497f9722a3daafe3b4186f6b6457e060405160405180910390a35050565b60008373ffffffffffffffffffffffffffffffffffffffff1663150b7a02611a8061176f565b8786866040518563ffffffff1660e01b8152600401611aa29493929190612d79565b6020604051808303816000875af1925050508015611ade57506040513d601f19601f82011682018060405250810190611adb9190612dda565b60015b611b57573d8060008114611b0e576040519150601f19603f3d011682016040523d82523d6000602084013e611b13565b606091505b506000815103611b4f576040517fd1a57ed600000000000000000000000000000000000000000000000000000000815260040160405180910390fd5b805181602001fd5b63150b7a0260e01b7bffffffffffffffffffffffffffffffffffffffffffffffffffffffff1916817bffffffffffffffffffffffffffffffffffffffffffffffffffffffff191614915050949350505050565b6060600c8054611bb9906128b7565b80601f0160208091040260200160405190810160405280929190818152602001828054611be5906128b7565b8015611c325780601f10611c0757610100808354040283529160200191611c32565b820191906000526020600020905b815481529060010190602001808311611c1557829003601f168201915b5050505050905090565b606060006001611c4b84611d81565b01905060008167ffffffffffffffff811115611c6a57611c69612445565b5b6040519080825280601f01601f191660200182016040528015611c9c5781602001600182028036833780820191505090505b509050600082602001820190505b600115611cff578080600190039150507f3031323334353637383961626364656600000000000000000000000000000000600a86061a8153600a8581611cf357611cf2612e07565b5b04945060008503611caa575b819350505050919050565b60008082905060005b8451811015611d5557611d4082868381518110611d3357611d32612e36565b5b6020026020010151611ed4565b91508080611d4d90612e65565b915050611d13565b508091505092915050565b60006001821460e11b9050919050565b600033905090565b60009392505050565b600080600090507a184f03e93ff9f4daa797ed6e38ed64bf6a1f0100000000000000008310611ddf577a184f03e93ff9f4daa797ed6e38ed64bf6a1f0100000000000000008381611dd557611dd4612e07565b5b0492506040810190505b6d04ee2d6d415b85acef81000000008310611e1c576d04ee2d6d415b85acef81000000008381611e1257611e11612e07565b5b0492506020810190505b662386f26fc100008310611e4b57662386f26fc100008381611e4157611e40612e07565b5b0492506010810190505b6305f5e1008310611e74576305f5e1008381611e6a57611e69612e07565b5b0492506008810190505b6127108310611e99576127108381611e8f57611e8e612e07565b5b0492506004810190505b60648310611ebc5760648381611eb257611eb1612e07565b5b0492506002810190505b600a8310611ecb576001810190505b80915050919050565b6000818310611eec57611ee78284611eff565b611ef7565b611ef68383611eff565b5b905092915050565b600082600052816020526040600020905092915050565b6000604051905090565b600080fd5b600080fd5b60007fffffffff0000000000000000000000000000000000000000000000000000000082169050919050565b611f5f81611f2a565b8114611f6a57600080fd5b50565b600081359050611f7c81611f56565b92915050565b600060208284031215611f9857611f97611f20565b5b6000611fa684828501611f6d565b91505092915050565b60008115159050919050565b611fc481611faf565b82525050565b6000602082019050611fdf6000830184611fbb565b92915050565b6000819050919050565b611ff881611fe5565b811461200357600080fd5b50565b60008135905061201581611fef565b92915050565b600080fd5b600080fd5b600080fd5b60008083601f8401126120405761203f61201b565b5b8235905067ffffffffffffffff81111561205d5761205c612020565b5b60208301915083602082028301111561207957612078612025565b5b9250929050565b60008060006040848603121561209957612098611f20565b5b60006120a786828701612006565b935050602084013567ffffffffffffffff8111156120c8576120c7611f25565b5b6120d48682870161202a565b92509250509250925092565b6120e981611fe5565b82525050565b600060208201905061210460008301846120e0565b92915050565b600081519050919050565b600082825260208201905092915050565b60005b83811015612144578082015181840152602081019050612129565b60008484015250505050565b6000601f19601f8301169050919050565b600061216c8261210a565b6121768185612115565b9350612186818560208601612126565b61218f81612150565b840191505092915050565b600060208201905081810360008301526121b48184612161565b905092915050565b6000602082840312156121d2576121d1611f20565b5b60006121e084828501612006565b91505092915050565b600073ffffffffffffffffffffffffffffffffffffffff82169050919050565b6000612214826121e9565b9050919050565b61222481612209565b82525050565b600060208201905061223f600083018461221b565b92915050565b61224e81612209565b811461225957600080fd5b50565b60008135905061226b81612245565b92915050565b6000806040838503121561228857612287611f20565b5b60006122968582860161225c565b92505060206122a785828601612006565b9150509250929050565b6000806000606084860312156122ca576122c9611f20565b5b60006122d88682870161225c565b93505060206122e98682870161225c565b92505060406122fa86828701612006565b9150509250925092565b60008083601f84011261231a5761231961201b565b5b8235905067ffffffffffffffff81111561233757612336612020565b5b60208301915083600182028301111561235357612352612025565b5b9250929050565b6000806020838503121561237157612370611f20565b5b600083013567ffffffffffffffff81111561238f5761238e611f25565b5b61239b85828601612304565b92509250509250929050565b6000602082840312156123bd576123bc611f20565b5b60006123cb8482850161225c565b91505092915050565b6123dd81611faf565b81146123e857600080fd5b50565b6000813590506123fa816123d4565b92915050565b6000806040838503121561241757612416611f20565b5b60006124258582860161225c565b9250506020612436858286016123eb565b9150509250929050565b600080fd5b7f4e487b7100000000000000000000000000000000000000000000000000000000600052604160045260246000fd5b61247d82612150565b810181811067ffffffffffffffff8211171561249c5761249b612445565b5b80604052505050565b60006124af611f16565b90506124bb8282612474565b919050565b600067ffffffffffffffff8211156124db576124da612445565b5b6124e482612150565b9050602081019050919050565b82818337600083830152505050565b600061251361250e846124c0565b6124a5565b90508281526020810184848401111561252f5761252e612440565b5b61253a8482856124f1565b509392505050565b600082601f8301126125575761255661201b565b5b8135612567848260208601612500565b91505092915050565b6000806000806080858703121561258a57612589611f20565b5b60006125988782880161225c565b94505060206125a98782880161225c565b93505060406125ba87828801612006565b925050606085013567ffffffffffffffff8111156125db576125da611f25565b5b6125e787828801612542565b91505092959194509250565b6000806040838503121561260a57612609611f20565b5b60006126188582860161225c565b92505060206126298582860161225c565b9150509250929050565b7f4d617820737570706c7920726561636865640000000000000000000000000000600082015250565b6000612669601283612115565b915061267482612633565b602082019050919050565b600060208201905081810360008301526126988161265c565b9050919050565b7f4578636565646564206d6178206d696e74207065722061646472657373000000600082015250565b60006126d5601d83612115565b91506126e08261269f565b602082019050919050565b60006020820190508181036000830152612704816126c8565b9050919050565b7f4e487b7100000000000000000000000000000000000000000000000000000000600052601160045260246000fd5b600061274582611fe5565b915061275083611fe5565b925082820261275e81611fe5565b915082820484148315176127755761277461270b565b5b5092915050565b7f4e6f7420656e6f7567682062616c616e63650000000000000000000000000000600082015250565b60006127b2601283612115565b91506127bd8261277c565b602082019050919050565b600060208201905081810360008301526127e1816127a5565b9050919050565b7f696e76616c6964206d65726b6c652070726f6f66000000000000000000000000600082015250565b600061281e601483612115565b9150612829826127e8565b602082019050919050565b6000602082019050818103600083015261284d81612811565b9050919050565b600061285f82611fe5565b915061286a83611fe5565b92508282019050808211156128825761288161270b565b5b92915050565b7f4e487b7100000000000000000000000000000000000000000000000000000000600052602260045260246000fd5b600060028204905060018216806128cf57607f821691505b6020821081036128e2576128e1612888565b5b50919050565b600082905092915050565b60008190508160005260206000209050919050565b60006020601f8301049050919050565b600082821b905092915050565b6000600883026129557fffffffffffffffffffffffffffffffffffffffffffffffffffffffffffffffff82612918565b61295f8683612918565b95508019841693508086168417925050509392505050565b6000819050919050565b600061299c61299761299284611fe5565b612977565b611fe5565b9050919050565b6000819050919050565b6129b683612981565b6129ca6129c2826129a3565b848454612925565b825550505050565b600090565b6129df6129d2565b6129ea8184846129ad565b505050565b5b81811015612a0e57612a036000826129d7565b6001810190506129f0565b5050565b601f821115612a5357612a24816128f3565b612a2d84612908565b81016020851015612a3c578190505b612a50612a4885612908565b8301826129ef565b50505b505050565b600082821c905092915050565b6000612a7660001984600802612a58565b1980831691505092915050565b6000612a8f8383612a65565b9150826002028217905092915050565b612aa983836128e8565b67ffffffffffffffff811115612ac257612ac1612445565b5b612acc82546128b7565b612ad7828285612a12565b6000601f831160018114612b065760008415612af4578287013590505b612afe8582612a83565b865550612b66565b601f198416612b14866128f3565b60005b82811015612b3c57848901358255600182019150602085019450602081019050612b17565b86831015612b595784890135612b55601f891682612a65565b8355505b6001600288020188555050505b50505050505050565b600081905092915050565b6000612b858261210a565b612b8f8185612b6f565b9350612b9f818560208601612126565b80840191505092915050565b7f2e6a736f6e000000000000000000000000000000000000000000000000000000600082015250565b6000612be1600583612b6f565b9150612bec82612bab565b600582019050919050565b6000612c038285612b7a565b9150612c0f8284612b7a565b9150612c1a82612bd4565b91508190509392505050565b7f4f776e61626c653a206e6577206f776e657220697320746865207a65726f206160008201527f6464726573730000000000000000000000000000000000000000000000000000602082015250565b6000612c82602683612115565b9150612c8d82612c26565b604082019050919050565b60006020820190508181036000830152612cb181612c75565b9050919050565b7f4f776e61626c653a2063616c6c6572206973206e6f7420746865206f776e6572600082015250565b6000612cee602083612115565b9150612cf982612cb8565b602082019050919050565b60006020820190508181036000830152612d1d81612ce1565b9050919050565b600081519050919050565b600082825260208201905092915050565b6000612d4b82612d24565b612d558185612d2f565b9350612d65818560208601612126565b612d6e81612150565b840191505092915050565b6000608082019050612d8e600083018761221b565b612d9b602083018661221b565b612da860408301856120e0565b8181036060830152612dba8184612d40565b905095945050505050565b600081519050612dd481611f56565b92915050565b600060208284031215612df057612def611f20565b5b6000612dfe84828501612dc5565b91505092915050565b7f4e487b7100000000000000000000000000000000000000000000000000000000600052601260045260246000fd5b7f4e487b7100000000000000000000000000000000000000000000000000000000600052603260045260246000fd5b6000612e7082611fe5565b91507fffffffffffffffffffffffffffffffffffffffffffffffffffffffffffffffff8203612ea257612ea161270b565b5b60018201905091905056fea264697066735822122041b04f93728f811c174d92efb34dbe4c2a35cc3b2b9705a1ef6dbbd8221a6d3564736f6c63430008110033",
  "immutableReferences": {},
  "source": "// SPDX-License-Identifier: MIT\npragma solidity ^0.8.15;\n\nimport \"erc721a/contracts/ERC721A.sol\";\nimport \"@openzeppelin/contracts/access/Ownable.sol\";\nimport \"@openzeppelin/contracts/utils/Strings.sol\";\nimport \"@openzeppelin/contracts/utils/cryptography/MerkleProof.sol\";\n\ncontract FlappySealsWhiteList is ERC721A, Ownable {\n\n    using Strings for uint256;\n\n    uint public maxSupply;\n    uint public mintPerAddress;\n    uint public pricePerNFT;\n    string private _baseTokenURI;\n\n    bytes32 private merkleRoot;\n\n    mapping(address => uint) private _addressMintCount;\n    mapping(address => uint) private isAdmin;\n\n    modifier onlyAdmin() {\n        require(isAdmin[msg.sender] == 1);\n        _;\n    }\n\n    constructor(address _admin, bytes32 _merkleRoot) ERC721A(\"Flappy Seals\" ,\"SEALS\") {\n        maxSupply = 1000;\n        mintPerAddress = 3;\n        pricePerNFT = 0.015 ether;\n        isAdmin[_admin] = 1;\n        merkleRoot = _merkleRoot;\n    }\n\n    function mint(uint256 _amount) external payable {\n        require(totalSupply() < maxSupply, \"Max supply reached\");\n        require(_addressMintCount[msg.sender] < mintPerAddress, \"Exceeded max mint per address\");\n        require(msg.value >= pricePerNFT * _amount, \"Not enough balance\");\n        _addressMintCount[msg.sender] += _amount;\n        _mint(msg.sender, _amount);\n    }\n\n    function mintWhitelist(uint256 _amount, bytes32[] calldata merkleProof) external payable {\n        require(totalSupply() < maxSupply, \"Max supply reached\");\n        require(_addressMintCount[msg.sender] < mintPerAddress, \"Exceeded max mint per address\");\n        require(msg.value >= pricePerNFT * _amount, \"Not enough balance\");\n        require(MerkleProof.verify(merkleProof, merkleRoot, toBytes32(msg.sender)) == true, \"invalid merkle proof\");\n        _addressMintCount[msg.sender] += _amount;\n        _mint(msg.sender, _amount);\n    }\n\n    function setPrice(uint _amount) public onlyOwner {\n         pricePerNFT = _amount;\n    }\n\n    function setMaxMintPerAddress(uint _amount) public onlyOwner {\n        mintPerAddress = _amount;\n    }\n\n\n    function withdraw() public onlyAdmin {\n        payable(msg.sender).transfer(address(this).balance);\n    }\n    \n      function setBaseURI(string calldata baseURI) external onlyOwner {\n        _baseTokenURI = baseURI;\n    }\n\n    function _baseURI() internal view override returns (string memory) {\n        return _baseTokenURI;\n    }\n\n    function tokenURI(uint256 tokenId) public view virtual override returns (string memory) {\n        string memory baseURI = _baseURI();\n        return bytes(baseURI).length > 0 ? string(abi.encodePacked(baseURI, tokenId.toString(), \".json\")) : \"\";\n    }\n\n    function _startTokenId() internal pure override returns (uint256) {\n        return 1;\n    }\n\n    function toBytes32(address addr) pure internal returns (bytes32) {\n    return bytes32(uint256(uint160(addr)));\n    }\n\n}",
  "sourcePath": "/Users/cobra/Desktop/twinNFTFE/TwinNFTtruffle/contracts/FlappySealsWhitelist.sol",
  "compiler": {
    "name": "solc",
    "version": "0.8.17+commit.8df45f5f.Emscripten.clang"
  },
  "schemaVersion": "3.4.11",
  "updatedAt": "2023-03-02T12:15:44.041Z",
  "networkType": "ethereum",
  "devdoc": {
    "kind": "dev",
    "methods": {
      "approve(address,uint256)": {
        "details": "Gives permission to `to` to transfer `tokenId` token to another account. The approval is cleared when the token is transferred. Only a single account can be approved at a time, so approving the zero address clears previous approvals. Requirements: - The caller must own the token or be an approved operator. - `tokenId` must exist. Emits an {Approval} event."
      },
      "balanceOf(address)": {
        "details": "Returns the number of tokens in `owner`'s account."
      },
      "getApproved(uint256)": {
        "details": "Returns the account approved for `tokenId` token. Requirements: - `tokenId` must exist."
      },
      "isApprovedForAll(address,address)": {
        "details": "Returns if the `operator` is allowed to manage all of the assets of `owner`. See {setApprovalForAll}."
      },
      "name()": {
        "details": "Returns the token collection name."
      },
      "owner()": {
        "details": "Returns the address of the current owner."
      },
      "ownerOf(uint256)": {
        "details": "Returns the owner of the `tokenId` token. Requirements: - `tokenId` must exist."
      },
      "renounceOwnership()": {
        "details": "Leaves the contract without owner. It will not be possible to call `onlyOwner` functions anymore. Can only be called by the current owner. NOTE: Renouncing ownership will leave the contract without an owner, thereby removing any functionality that is only available to the owner."
      },
      "safeTransferFrom(address,address,uint256)": {
        "details": "Equivalent to `safeTransferFrom(from, to, tokenId, '')`."
      },
      "safeTransferFrom(address,address,uint256,bytes)": {
        "details": "Safely transfers `tokenId` token from `from` to `to`. Requirements: - `from` cannot be the zero address. - `to` cannot be the zero address. - `tokenId` token must exist and be owned by `from`. - If the caller is not `from`, it must be approved to move this token by either {approve} or {setApprovalForAll}. - If `to` refers to a smart contract, it must implement {IERC721Receiver-onERC721Received}, which is called upon a safe transfer. Emits a {Transfer} event."
      },
      "setApprovalForAll(address,bool)": {
        "details": "Approve or remove `operator` as an operator for the caller. Operators can call {transferFrom} or {safeTransferFrom} for any token owned by the caller. Requirements: - The `operator` cannot be the caller. Emits an {ApprovalForAll} event."
      },
      "supportsInterface(bytes4)": {
        "details": "Returns true if this contract implements the interface defined by `interfaceId`. See the corresponding [EIP section](https://eips.ethereum.org/EIPS/eip-165#how-interfaces-are-identified) to learn more about how these ids are created. This function call must use less than 30000 gas."
      },
      "symbol()": {
        "details": "Returns the token collection symbol."
      },
      "tokenURI(uint256)": {
        "details": "Returns the Uniform Resource Identifier (URI) for `tokenId` token."
      },
      "totalSupply()": {
        "details": "Returns the total number of tokens in existence. Burned tokens will reduce the count. To get the total number of tokens minted, please see {_totalMinted}."
      },
      "transferFrom(address,address,uint256)": {
        "details": "Transfers `tokenId` from `from` to `to`. Requirements: - `from` cannot be the zero address. - `to` cannot be the zero address. - `tokenId` token must be owned by `from`. - If the caller is not `from`, it must be approved to move this token by either {approve} or {setApprovalForAll}. Emits a {Transfer} event."
      },
      "transferOwnership(address)": {
        "details": "Transfers ownership of the contract to a new account (`newOwner`). Can only be called by the current owner."
      }
    },
    "version": 1
  },
  "userdoc": {
    "errors": {
      "ApprovalCallerNotOwnerNorApproved()": [
        {
          "notice": "The caller must own the token or be an approved operator."
        }
      ],
      "ApprovalQueryForNonexistentToken()": [
        {
          "notice": "The token does not exist."
        }
      ],
      "BalanceQueryForZeroAddress()": [
        {
          "notice": "Cannot query the balance for the zero address."
        }
      ],
      "MintERC2309QuantityExceedsLimit()": [
        {
          "notice": "The `quantity` minted with ERC2309 exceeds the safety limit."
        }
      ],
      "MintToZeroAddress()": [
        {
          "notice": "Cannot mint to the zero address."
        }
      ],
      "MintZeroQuantity()": [
        {
          "notice": "The quantity of tokens minted must be more than zero."
        }
      ],
      "OwnerQueryForNonexistentToken()": [
        {
          "notice": "The token does not exist."
        }
      ],
      "OwnershipNotInitializedForExtraData()": [
        {
          "notice": "The `extraData` cannot be set on an unintialized ownership slot."
        }
      ],
      "TransferCallerNotOwnerNorApproved()": [
        {
          "notice": "The caller must own the token or be an approved operator."
        }
      ],
      "TransferFromIncorrectOwner()": [
        {
          "notice": "The token must be owned by `from`."
        }
      ],
      "TransferToNonERC721ReceiverImplementer()": [
        {
          "notice": "Cannot safely transfer to a contract that does not implement the ERC721Receiver interface."
        }
      ],
      "TransferToZeroAddress()": [
        {
          "notice": "Cannot transfer to the zero address."
        }
      ],
      "URIQueryForNonexistentToken()": [
        {
          "notice": "The token does not exist."
        }
      ]
    },
    "kind": "user",
    "methods": {},
    "version": 1
  }
}