{
  "contractName": "FlappySeals",
  "abi": [
    {
      "inputs": [
        {
          "internalType": "address",
          "name": "_admin",
          "type": "address"
        }
      ],
      "stateMutability": "nonpayable",
      "type": "constructor"
    },
    {
      "inputs": [],
      "name": "ApprovalCallerNotOwnerNorApproved",
      "type": "error"
    },
    {
      "inputs": [],
      "name": "ApprovalQueryForNonexistentToken",
      "type": "error"
    },
    {
      "inputs": [],
      "name": "BalanceQueryForZeroAddress",
      "type": "error"
    },
    {
      "inputs": [],
      "name": "MintERC2309QuantityExceedsLimit",
      "type": "error"
    },
    {
      "inputs": [],
      "name": "MintToZeroAddress",
      "type": "error"
    },
    {
      "inputs": [],
      "name": "MintZeroQuantity",
      "type": "error"
    },
    {
      "inputs": [],
      "name": "OwnerQueryForNonexistentToken",
      "type": "error"
    },
    {
      "inputs": [],
      "name": "OwnershipNotInitializedForExtraData",
      "type": "error"
    },
    {
      "inputs": [],
      "name": "TransferCallerNotOwnerNorApproved",
      "type": "error"
    },
    {
      "inputs": [],
      "name": "TransferFromIncorrectOwner",
      "type": "error"
    },
    {
      "inputs": [],
      "name": "TransferToNonERC721ReceiverImplementer",
      "type": "error"
    },
    {
      "inputs": [],
      "name": "TransferToZeroAddress",
      "type": "error"
    },
    {
      "inputs": [],
      "name": "URIQueryForNonexistentToken",
      "type": "error"
    },
    {
      "anonymous": false,
      "inputs": [
        {
          "indexed": true,
          "internalType": "address",
          "name": "owner",
          "type": "address"
        },
        {
          "indexed": true,
          "internalType": "address",
          "name": "approved",
          "type": "address"
        },
        {
          "indexed": true,
          "internalType": "uint256",
          "name": "tokenId",
          "type": "uint256"
        }
      ],
      "name": "Approval",
      "type": "event"
    },
    {
      "anonymous": false,
      "inputs": [
        {
          "indexed": true,
          "internalType": "address",
          "name": "owner",
          "type": "address"
        },
        {
          "indexed": true,
          "internalType": "address",
          "name": "operator",
          "type": "address"
        },
        {
          "indexed": false,
          "internalType": "bool",
          "name": "approved",
          "type": "bool"
        }
      ],
      "name": "ApprovalForAll",
      "type": "event"
    },
    {
      "anonymous": false,
      "inputs": [
        {
          "indexed": true,
          "internalType": "uint256",
          "name": "fromTokenId",
          "type": "uint256"
        },
        {
          "indexed": false,
          "internalType": "uint256",
          "name": "toTokenId",
          "type": "uint256"
        },
        {
          "indexed": true,
          "internalType": "address",
          "name": "from",
          "type": "address"
        },
        {
          "indexed": true,
          "internalType": "address",
          "name": "to",
          "type": "address"
        }
      ],
      "name": "ConsecutiveTransfer",
      "type": "event"
    },
    {
      "anonymous": false,
      "inputs": [
        {
          "indexed": true,
          "internalType": "address",
          "name": "previousOwner",
          "type": "address"
        },
        {
          "indexed": true,
          "internalType": "address",
          "name": "newOwner",
          "type": "address"
        }
      ],
      "name": "OwnershipTransferred",
      "type": "event"
    },
    {
      "anonymous": false,
      "inputs": [
        {
          "indexed": true,
          "internalType": "address",
          "name": "from",
          "type": "address"
        },
        {
          "indexed": true,
          "internalType": "address",
          "name": "to",
          "type": "address"
        },
        {
          "indexed": true,
          "internalType": "uint256",
          "name": "tokenId",
          "type": "uint256"
        }
      ],
      "name": "Transfer",
      "type": "event"
    },
    {
      "inputs": [
        {
          "internalType": "address",
          "name": "to",
          "type": "address"
        },
        {
          "internalType": "uint256",
          "name": "tokenId",
          "type": "uint256"
        }
      ],
      "name": "approve",
      "outputs": [],
      "stateMutability": "payable",
      "type": "function"
    },
    {
      "inputs": [
        {
          "internalType": "address",
          "name": "owner",
          "type": "address"
        }
      ],
      "name": "balanceOf",
      "outputs": [
        {
          "internalType": "uint256",
          "name": "",
          "type": "uint256"
        }
      ],
      "stateMutability": "view",
      "type": "function"
    },
    {
      "inputs": [
        {
          "internalType": "uint256",
          "name": "tokenId",
          "type": "uint256"
        }
      ],
      "name": "getApproved",
      "outputs": [
        {
          "internalType": "address",
          "name": "",
          "type": "address"
        }
      ],
      "stateMutability": "view",
      "type": "function"
    },
    {
      "inputs": [
        {
          "internalType": "address",
          "name": "owner",
          "type": "address"
        },
        {
          "internalType": "address",
          "name": "operator",
          "type": "address"
        }
      ],
      "name": "isApprovedForAll",
      "outputs": [
        {
          "internalType": "bool",
          "name": "",
          "type": "bool"
        }
      ],
      "stateMutability": "view",
      "type": "function"
    },
    {
      "inputs": [],
      "name": "maxSupply",
      "outputs": [
        {
          "internalType": "uint256",
          "name": "",
          "type": "uint256"
        }
      ],
      "stateMutability": "view",
      "type": "function"
    },
    {
      "inputs": [],
      "name": "mintPerAddress",
      "outputs": [
        {
          "internalType": "uint256",
          "name": "",
          "type": "uint256"
        }
      ],
      "stateMutability": "view",
      "type": "function"
    },
    {
      "inputs": [],
      "name": "name",
      "outputs": [
        {
          "internalType": "string",
          "name": "",
          "type": "string"
        }
      ],
      "stateMutability": "view",
      "type": "function"
    },
    {
      "inputs": [],
      "name": "owner",
      "outputs": [
        {
          "internalType": "address",
          "name": "",
          "type": "address"
        }
      ],
      "stateMutability": "view",
      "type": "function"
    },
    {
      "inputs": [
        {
          "internalType": "uint256",
          "name": "tokenId",
          "type": "uint256"
        }
      ],
      "name": "ownerOf",
      "outputs": [
        {
          "internalType": "address",
          "name": "",
          "type": "address"
        }
      ],
      "stateMutability": "view",
      "type": "function"
    },
    {
      "inputs": [],
      "name": "pricePerNFT",
      "outputs": [
        {
          "internalType": "uint256",
          "name": "",
          "type": "uint256"
        }
      ],
      "stateMutability": "view",
      "type": "function"
    },
    {
      "inputs": [],
      "name": "renounceOwnership",
      "outputs": [],
      "stateMutability": "nonpayable",
      "type": "function"
    },
    {
      "inputs": [
        {
          "internalType": "address",
          "name": "from",
          "type": "address"
        },
        {
          "internalType": "address",
          "name": "to",
          "type": "address"
        },
        {
          "internalType": "uint256",
          "name": "tokenId",
          "type": "uint256"
        }
      ],
      "name": "safeTransferFrom",
      "outputs": [],
      "stateMutability": "payable",
      "type": "function"
    },
    {
      "inputs": [
        {
          "internalType": "address",
          "name": "from",
          "type": "address"
        },
        {
          "internalType": "address",
          "name": "to",
          "type": "address"
        },
        {
          "internalType": "uint256",
          "name": "tokenId",
          "type": "uint256"
        },
        {
          "internalType": "bytes",
          "name": "_data",
          "type": "bytes"
        }
      ],
      "name": "safeTransferFrom",
      "outputs": [],
      "stateMutability": "payable",
      "type": "function"
    },
    {
      "inputs": [
        {
          "internalType": "address",
          "name": "operator",
          "type": "address"
        },
        {
          "internalType": "bool",
          "name": "approved",
          "type": "bool"
        }
      ],
      "name": "setApprovalForAll",
      "outputs": [],
      "stateMutability": "nonpayable",
      "type": "function"
    },
    {
      "inputs": [
        {
          "internalType": "bytes4",
          "name": "interfaceId",
          "type": "bytes4"
        }
      ],
      "name": "supportsInterface",
      "outputs": [
        {
          "internalType": "bool",
          "name": "",
          "type": "bool"
        }
      ],
      "stateMutability": "view",
      "type": "function"
    },
    {
      "inputs": [],
      "name": "symbol",
      "outputs": [
        {
          "internalType": "string",
          "name": "",
          "type": "string"
        }
      ],
      "stateMutability": "view",
      "type": "function"
    },
    {
      "inputs": [],
      "name": "totalSupply",
      "outputs": [
        {
          "internalType": "uint256",
          "name": "",
          "type": "uint256"
        }
      ],
      "stateMutability": "view",
      "type": "function"
    },
    {
      "inputs": [
        {
          "internalType": "address",
          "name": "from",
          "type": "address"
        },
        {
          "internalType": "address",
          "name": "to",
          "type": "address"
        },
        {
          "internalType": "uint256",
          "name": "tokenId",
          "type": "uint256"
        }
      ],
      "name": "transferFrom",
      "outputs": [],
      "stateMutability": "payable",
      "type": "function"
    },
    {
      "inputs": [
        {
          "internalType": "address",
          "name": "newOwner",
          "type": "address"
        }
      ],
      "name": "transferOwnership",
      "outputs": [],
      "stateMutability": "nonpayable",
      "type": "function"
    },
    {
      "inputs": [
        {
          "internalType": "uint256",
          "name": "_amount",
          "type": "uint256"
        }
      ],
      "name": "mint",
      "outputs": [],
      "stateMutability": "payable",
      "type": "function"
    },
    {
      "inputs": [
        {
          "internalType": "uint256",
          "name": "_amount",
          "type": "uint256"
        }
      ],
      "name": "setPrice",
      "outputs": [],
      "stateMutability": "nonpayable",
      "type": "function"
    },
    {
      "inputs": [
        {
          "internalType": "uint256",
          "name": "_amount",
          "type": "uint256"
        }
      ],
      "name": "setMaxMintPerAddress",
      "outputs": [],
      "stateMutability": "nonpayable",
      "type": "function"
    },
    {
      "inputs": [],
      "name": "withdraw",
      "outputs": [],
      "stateMutability": "nonpayable",
      "type": "function"
    },
    {
      "inputs": [
        {
          "internalType": "string",
          "name": "baseURI",
          "type": "string"
        }
      ],
      "name": "setBaseURI",
      "outputs": [],
      "stateMutability": "nonpayable",
      "type": "function"
    },
    {
      "inputs": [
        {
          "internalType": "uint256",
          "name": "tokenId",
          "type": "uint256"
        }
      ],
      "name": "tokenURI",
      "outputs": [
        {
          "internalType": "string",
          "name": "",
          "type": "string"
        }
      ],
      "stateMutability": "view",
      "type": "function"
    }
  ],
  "bytecode": "0x60806040523480156200001157600080fd5b5060405162003068380380620030688339818101604052810190620000379190620002a7565b6040518060400160405280600c81526020017f466c61707079205365616c7300000000000000000000000000000000000000008152506040518060400160405280600581526020017f5345414c530000000000000000000000000000000000000000000000000000008152508160029081620000b4919062000553565b508060039081620000c6919062000553565b50620000d76200016a60201b60201c565b6000819055505050620000ff620000f36200016f60201b60201c565b6200017760201b60201c565b6103e86009819055506003600a8190555066354a6ba7a18000600b819055506001600e60008373ffffffffffffffffffffffffffffffffffffffff1673ffffffffffffffffffffffffffffffffffffffff16815260200190815260200160002081905550506200063a565b600090565b600033905090565b6000600860009054906101000a900473ffffffffffffffffffffffffffffffffffffffff16905081600860006101000a81548173ffffffffffffffffffffffffffffffffffffffff021916908373ffffffffffffffffffffffffffffffffffffffff1602179055508173ffffffffffffffffffffffffffffffffffffffff168173ffffffffffffffffffffffffffffffffffffffff167f8be0079c531659141344cd1fd0a4f28419497f9722a3daafe3b4186f6b6457e060405160405180910390a35050565b600080fd5b600073ffffffffffffffffffffffffffffffffffffffff82169050919050565b60006200026f8262000242565b9050919050565b620002818162000262565b81146200028d57600080fd5b50565b600081519050620002a18162000276565b92915050565b600060208284031215620002c057620002bf6200023d565b5b6000620002d08482850162000290565b91505092915050565b600081519050919050565b7f4e487b7100000000000000000000000000000000000000000000000000000000600052604160045260246000fd5b7f4e487b7100000000000000000000000000000000000000000000000000000000600052602260045260246000fd5b600060028204905060018216806200035b57607f821691505b60208210810362000371576200037062000313565b5b50919050565b60008190508160005260206000209050919050565b60006020601f8301049050919050565b600082821b905092915050565b600060088302620003db7fffffffffffffffffffffffffffffffffffffffffffffffffffffffffffffffff826200039c565b620003e786836200039c565b95508019841693508086168417925050509392505050565b6000819050919050565b6000819050919050565b6000620004346200042e6200042884620003ff565b62000409565b620003ff565b9050919050565b6000819050919050565b620004508362000413565b620004686200045f826200043b565b848454620003a9565b825550505050565b600090565b6200047f62000470565b6200048c81848462000445565b505050565b5b81811015620004b457620004a860008262000475565b60018101905062000492565b5050565b601f8211156200050357620004cd8162000377565b620004d8846200038c565b81016020851015620004e8578190505b62000500620004f7856200038c565b83018262000491565b50505b505050565b600082821c905092915050565b6000620005286000198460080262000508565b1980831691505092915050565b600062000543838362000515565b9150826002028217905092915050565b6200055e82620002d9565b67ffffffffffffffff8111156200057a5762000579620002e4565b5b62000586825462000342565b62000593828285620004b8565b600060209050601f831160018114620005cb5760008415620005b6578287015190505b620005c2858262000535565b86555062000632565b601f198416620005db8662000377565b60005b828110156200060557848901518255600182019150602085019450602081019050620005de565b8683101562000625578489015162000621601f89168262000515565b8355505b6001600288020188555050505b505050505050565b612a1e806200064a6000396000f3fe6080604052600436106101665760003560e01c806370a08231116100d1578063a22cb4651161008a578063d5abeb0111610064578063d5abeb01146104d1578063e985e9c5146104fc578063f2fde38b14610539578063f47a269c1461056257610166565b8063a22cb4651461044f578063b88d4fde14610478578063c87b56dd1461049457610166565b806370a0823114610360578063715018a61461039d5780638da5cb5b146103b457806391b7f5ed146103df57806395d89b4114610408578063a0712d681461043357610166565b80631e14d44b116101235780631e14d44b1461028257806323b872dd146102ab5780633ccfd60b146102c757806342842e0e146102de57806355f804b3146102fa5780636352211e1461032357610166565b806301ffc9a71461016b5780630628aa70146101a857806306fdde03146101d3578063081812fc146101fe578063095ea7b31461023b57806318160ddd14610257575b600080fd5b34801561017757600080fd5b50610192600480360381019061018d9190611c56565b61058d565b60405161019f9190611c9e565b60405180910390f35b3480156101b457600080fd5b506101bd61061f565b6040516101ca9190611cd2565b60405180910390f35b3480156101df57600080fd5b506101e8610625565b6040516101f59190611d7d565b60405180910390f35b34801561020a57600080fd5b5061022560048036038101906102209190611dcb565b6106b7565b6040516102329190611e39565b60405180910390f35b61025560048036038101906102509190611e80565b610736565b005b34801561026357600080fd5b5061026c61087a565b6040516102799190611cd2565b60405180910390f35b34801561028e57600080fd5b506102a960048036038101906102a49190611dcb565b610891565b005b6102c560048036038101906102c09190611ec0565b6108a3565b005b3480156102d357600080fd5b506102dc610bc5565b005b6102f860048036038101906102f39190611ec0565b610c5a565b005b34801561030657600080fd5b50610321600480360381019061031c9190611f78565b610c7a565b005b34801561032f57600080fd5b5061034a60048036038101906103459190611dcb565b610c98565b6040516103579190611e39565b60405180910390f35b34801561036c57600080fd5b5061038760048036038101906103829190611fc5565b610caa565b6040516103949190611cd2565b60405180910390f35b3480156103a957600080fd5b506103b2610d62565b005b3480156103c057600080fd5b506103c9610d76565b6040516103d69190611e39565b60405180910390f35b3480156103eb57600080fd5b5061040660048036038101906104019190611dcb565b610da0565b005b34801561041457600080fd5b5061041d610db2565b60405161042a9190611d7d565b60405180910390f35b61044d60048036038101906104489190611dcb565b610e44565b005b34801561045b57600080fd5b506104766004803603810190610471919061201e565b610fc5565b005b610492600480360381019061048d919061218e565b6110d0565b005b3480156104a057600080fd5b506104bb60048036038101906104b69190611dcb565b611143565b6040516104c89190611d7d565b60405180910390f35b3480156104dd57600080fd5b506104e66111a2565b6040516104f39190611cd2565b60405180910390f35b34801561050857600080fd5b50610523600480360381019061051e9190612211565b6111a8565b6040516105309190611c9e565b60405180910390f35b34801561054557600080fd5b50610560600480360381019061055b9190611fc5565b61123c565b005b34801561056e57600080fd5b506105776112bf565b6040516105849190611cd2565b60405180910390f35b60006301ffc9a760e01b827bffffffffffffffffffffffffffffffffffffffffffffffffffffffff191614806105e857506380ac58cd60e01b827bffffffffffffffffffffffffffffffffffffffffffffffffffffffff1916145b806106185750635b5e139f60e01b827bffffffffffffffffffffffffffffffffffffffffffffffffffffffff1916145b9050919050565b600b5481565b60606002805461063490612280565b80601f016020809104026020016040519081016040528092919081815260200182805461066090612280565b80156106ad5780601f10610682576101008083540402835291602001916106ad565b820191906000526020600020905b81548152906001019060200180831161069057829003601f168201915b5050505050905090565b60006106c2826112c5565b6106f8576040517fcf4700e400000000000000000000000000000000000000000000000000000000815260040160405180910390fd5b6006600083815260200190815260200160002060000160009054906101000a900473ffffffffffffffffffffffffffffffffffffffff169050919050565b600061074182610c98565b90508073ffffffffffffffffffffffffffffffffffffffff16610762611324565b73ffffffffffffffffffffffffffffffffffffffff16146107c55761078e81610789611324565b6111a8565b6107c4576040517fcfb3b94200000000000000000000000000000000000000000000000000000000815260040160405180910390fd5b5b826006600084815260200190815260200160002060000160006101000a81548173ffffffffffffffffffffffffffffffffffffffff021916908373ffffffffffffffffffffffffffffffffffffffff160217905550818373ffffffffffffffffffffffffffffffffffffffff168273ffffffffffffffffffffffffffffffffffffffff167f8c5be1e5ebec7d5bd14f71427d1e84f3dd0314c0f7b2291e5b200ac8c7c3b92560405160405180910390a4505050565b600061088461132c565b6001546000540303905090565b610899611331565b80600a8190555050565b60006108ae826113af565b90508373ffffffffffffffffffffffffffffffffffffffff168173ffffffffffffffffffffffffffffffffffffffff1614610915576040517fa114810000000000000000000000000000000000000000000000000000000000815260040160405180910390fd5b6000806109218461147b565b915091506109378187610932611324565b6114a2565b6109835761094c86610947611324565b6111a8565b610982576040517f59c896be00000000000000000000000000000000000000000000000000000000815260040160405180910390fd5b5b600073ffffffffffffffffffffffffffffffffffffffff168573ffffffffffffffffffffffffffffffffffffffff16036109e9576040517fea553b3400000000000000000000000000000000000000000000000000000000815260040160405180910390fd5b6109f686868660016114e6565b8015610a0157600082555b600560008773ffffffffffffffffffffffffffffffffffffffff1673ffffffffffffffffffffffffffffffffffffffff168152602001908152602001600020600081546001900391905081905550600560008673ffffffffffffffffffffffffffffffffffffffff1673ffffffffffffffffffffffffffffffffffffffff1681526020019081526020016000206000815460010191905081905550610acf85610aab8888876114ec565b7c020000000000000000000000000000000000000000000000000000000017611514565b600460008681526020019081526020016000208190555060007c0200000000000000000000000000000000000000000000000000000000841603610b555760006001850190506000600460008381526020019081526020016000205403610b53576000548114610b52578360046000838152602001908152602001600020819055505b5b505b838573ffffffffffffffffffffffffffffffffffffffff168773ffffffffffffffffffffffffffffffffffffffff167fddf252ad1be2c89b69c2b068fc378daa952ba7f163c4a11628f55a4df523b3ef60405160405180910390a4610bbd868686600161153f565b505050505050565b6001600e60003373ffffffffffffffffffffffffffffffffffffffff1673ffffffffffffffffffffffffffffffffffffffff1681526020019081526020016000205414610c1157600080fd5b3373ffffffffffffffffffffffffffffffffffffffff166108fc479081150290604051600060405180830381858888f19350505050158015610c57573d6000803e3d6000fd5b50565b610c75838383604051806020016040528060008152506110d0565b505050565b610c82611331565b8181600c9182610c93929190612468565b505050565b6000610ca3826113af565b9050919050565b60008073ffffffffffffffffffffffffffffffffffffffff168273ffffffffffffffffffffffffffffffffffffffff1603610d11576040517f8f4eb60400000000000000000000000000000000000000000000000000000000815260040160405180910390fd5b67ffffffffffffffff600560008473ffffffffffffffffffffffffffffffffffffffff1673ffffffffffffffffffffffffffffffffffffffff16815260200190815260200160002054169050919050565b610d6a611331565b610d746000611545565b565b6000600860009054906101000a900473ffffffffffffffffffffffffffffffffffffffff16905090565b610da8611331565b80600b8190555050565b606060038054610dc190612280565b80601f0160208091040260200160405190810160405280929190818152602001828054610ded90612280565b8015610e3a5780601f10610e0f57610100808354040283529160200191610e3a565b820191906000526020600020905b815481529060010190602001808311610e1d57829003601f168201915b5050505050905090565b600954610e4f61087a565b10610e8f576040517f08c379a0000000000000000000000000000000000000000000000000000000008152600401610e8690612584565b60405180910390fd5b600a54600d60003373ffffffffffffffffffffffffffffffffffffffff1673ffffffffffffffffffffffffffffffffffffffff1681526020019081526020016000205410610f12576040517f08c379a0000000000000000000000000000000000000000000000000000000008152600401610f09906125f0565b60405180910390fd5b80600b54610f20919061263f565b341015610f62576040517f08c379a0000000000000000000000000000000000000000000000000000000008152600401610f59906126cd565b60405180910390fd5b80600d60003373ffffffffffffffffffffffffffffffffffffffff1673ffffffffffffffffffffffffffffffffffffffff1681526020019081526020016000206000828254610fb191906126ed565b92505081905550610fc2338261160b565b50565b8060076000610fd2611324565b73ffffffffffffffffffffffffffffffffffffffff1673ffffffffffffffffffffffffffffffffffffffff16815260200190815260200160002060008473ffffffffffffffffffffffffffffffffffffffff1673ffffffffffffffffffffffffffffffffffffffff16815260200190815260200160002060006101000a81548160ff0219169083151502179055508173ffffffffffffffffffffffffffffffffffffffff1661107f611324565b73ffffffffffffffffffffffffffffffffffffffff167f17307eab39ab6107e8899845ad3d59bd9653f200f220920489ca2b5937696c31836040516110c49190611c9e565b60405180910390a35050565b6110db8484846108a3565b60008373ffffffffffffffffffffffffffffffffffffffff163b1461113d57611106848484846117c6565b61113c576040517fd1a57ed600000000000000000000000000000000000000000000000000000000815260040160405180910390fd5b5b50505050565b6060600061114f611916565b9050600081511161116f576040518060200160405280600081525061119a565b80611179846119a8565b60405160200161118a9291906127a9565b6040516020818303038152906040525b915050919050565b60095481565b6000600760008473ffffffffffffffffffffffffffffffffffffffff1673ffffffffffffffffffffffffffffffffffffffff16815260200190815260200160002060008373ffffffffffffffffffffffffffffffffffffffff1673ffffffffffffffffffffffffffffffffffffffff16815260200190815260200160002060009054906101000a900460ff16905092915050565b611244611331565b600073ffffffffffffffffffffffffffffffffffffffff168173ffffffffffffffffffffffffffffffffffffffff16036112b3576040517f08c379a00000000000000000000000000000000000000000000000000000000081526004016112aa9061284a565b60405180910390fd5b6112bc81611545565b50565b600a5481565b6000816112d061132c565b111580156112df575060005482105b801561131d575060007c0100000000000000000000000000000000000000000000000000000000600460008581526020019081526020016000205416145b9050919050565b600033905090565b600090565b611339611a76565b73ffffffffffffffffffffffffffffffffffffffff16611357610d76565b73ffffffffffffffffffffffffffffffffffffffff16146113ad576040517f08c379a00000000000000000000000000000000000000000000000000000000081526004016113a4906128b6565b60405180910390fd5b565b600080829050806113be61132c565b11611444576000548110156114435760006004600083815260200190815260200160002054905060007c0100000000000000000000000000000000000000000000000000000000821603611441575b6000810361143757600460008360019003935083815260200190815260200160002054905061140d565b8092505050611476565b505b5b6040517fdf2d9b4200000000000000000000000000000000000000000000000000000000815260040160405180910390fd5b919050565b60008060006006600085815260200190815260200160002090508092508254915050915091565b600073ffffffffffffffffffffffffffffffffffffffff8316925073ffffffffffffffffffffffffffffffffffffffff821691508382148383141790509392505050565b50505050565b60008060e883901c905060e8611503868684611a7e565b62ffffff16901b9150509392505050565b600073ffffffffffffffffffffffffffffffffffffffff83169250814260a01b178317905092915050565b50505050565b6000600860009054906101000a900473ffffffffffffffffffffffffffffffffffffffff16905081600860006101000a81548173ffffffffffffffffffffffffffffffffffffffff021916908373ffffffffffffffffffffffffffffffffffffffff1602179055508173ffffffffffffffffffffffffffffffffffffffff168173ffffffffffffffffffffffffffffffffffffffff167f8be0079c531659141344cd1fd0a4f28419497f9722a3daafe3b4186f6b6457e060405160405180910390a35050565b6000805490506000820361164b576040517fb562e8dd00000000000000000000000000000000000000000000000000000000815260040160405180910390fd5b61165860008483856114e6565b600160406001901b178202600560008573ffffffffffffffffffffffffffffffffffffffff1673ffffffffffffffffffffffffffffffffffffffff168152602001908152602001600020600082825401925050819055506116cf836116c060008660006114ec565b6116c985611a87565b17611514565b6004600083815260200190815260200160002081905550600080838301905073ffffffffffffffffffffffffffffffffffffffff85169150828260007fddf252ad1be2c89b69c2b068fc378daa952ba7f163c4a11628f55a4df523b3ef600080a4600183015b81811461177057808360007fddf252ad1be2c89b69c2b068fc378daa952ba7f163c4a11628f55a4df523b3ef600080a4600181019050611735565b50600082036117ab576040517f2e07630000000000000000000000000000000000000000000000000000000000815260040160405180910390fd5b8060008190555050506117c1600084838561153f565b505050565b60008373ffffffffffffffffffffffffffffffffffffffff1663150b7a026117ec611324565b8786866040518563ffffffff1660e01b815260040161180e949392919061292b565b6020604051808303816000875af192505050801561184a57506040513d601f19601f82011682018060405250810190611847919061298c565b60015b6118c3573d806000811461187a576040519150601f19603f3d011682016040523d82523d6000602084013e61187f565b606091505b5060008151036118bb576040517fd1a57ed600000000000000000000000000000000000000000000000000000000815260040160405180910390fd5b805181602001fd5b63150b7a0260e01b7bffffffffffffffffffffffffffffffffffffffffffffffffffffffff1916817bffffffffffffffffffffffffffffffffffffffffffffffffffffffff191614915050949350505050565b6060600c805461192590612280565b80601f016020809104026020016040519081016040528092919081815260200182805461195190612280565b801561199e5780601f106119735761010080835404028352916020019161199e565b820191906000526020600020905b81548152906001019060200180831161198157829003601f168201915b5050505050905090565b6060600060016119b784611a97565b01905060008167ffffffffffffffff8111156119d6576119d5612063565b5b6040519080825280601f01601f191660200182016040528015611a085781602001600182028036833780820191505090505b509050600082602001820190505b600115611a6b578080600190039150507f3031323334353637383961626364656600000000000000000000000000000000600a86061a8153600a8581611a5f57611a5e6129b9565b5b04945060008503611a16575b819350505050919050565b600033905090565b60009392505050565b60006001821460e11b9050919050565b600080600090507a184f03e93ff9f4daa797ed6e38ed64bf6a1f0100000000000000008310611af5577a184f03e93ff9f4daa797ed6e38ed64bf6a1f0100000000000000008381611aeb57611aea6129b9565b5b0492506040810190505b6d04ee2d6d415b85acef81000000008310611b32576d04ee2d6d415b85acef81000000008381611b2857611b276129b9565b5b0492506020810190505b662386f26fc100008310611b6157662386f26fc100008381611b5757611b566129b9565b5b0492506010810190505b6305f5e1008310611b8a576305f5e1008381611b8057611b7f6129b9565b5b0492506008810190505b6127108310611baf576127108381611ba557611ba46129b9565b5b0492506004810190505b60648310611bd25760648381611bc857611bc76129b9565b5b0492506002810190505b600a8310611be1576001810190505b80915050919050565b6000604051905090565b600080fd5b600080fd5b60007fffffffff0000000000000000000000000000000000000000000000000000000082169050919050565b611c3381611bfe565b8114611c3e57600080fd5b50565b600081359050611c5081611c2a565b92915050565b600060208284031215611c6c57611c6b611bf4565b5b6000611c7a84828501611c41565b91505092915050565b60008115159050919050565b611c9881611c83565b82525050565b6000602082019050611cb36000830184611c8f565b92915050565b6000819050919050565b611ccc81611cb9565b82525050565b6000602082019050611ce76000830184611cc3565b92915050565b600081519050919050565b600082825260208201905092915050565b60005b83811015611d27578082015181840152602081019050611d0c565b60008484015250505050565b6000601f19601f8301169050919050565b6000611d4f82611ced565b611d598185611cf8565b9350611d69818560208601611d09565b611d7281611d33565b840191505092915050565b60006020820190508181036000830152611d978184611d44565b905092915050565b611da881611cb9565b8114611db357600080fd5b50565b600081359050611dc581611d9f565b92915050565b600060208284031215611de157611de0611bf4565b5b6000611def84828501611db6565b91505092915050565b600073ffffffffffffffffffffffffffffffffffffffff82169050919050565b6000611e2382611df8565b9050919050565b611e3381611e18565b82525050565b6000602082019050611e4e6000830184611e2a565b92915050565b611e5d81611e18565b8114611e6857600080fd5b50565b600081359050611e7a81611e54565b92915050565b60008060408385031215611e9757611e96611bf4565b5b6000611ea585828601611e6b565b9250506020611eb685828601611db6565b9150509250929050565b600080600060608486031215611ed957611ed8611bf4565b5b6000611ee786828701611e6b565b9350506020611ef886828701611e6b565b9250506040611f0986828701611db6565b9150509250925092565b600080fd5b600080fd5b600080fd5b60008083601f840112611f3857611f37611f13565b5b8235905067ffffffffffffffff811115611f5557611f54611f18565b5b602083019150836001820283011115611f7157611f70611f1d565b5b9250929050565b60008060208385031215611f8f57611f8e611bf4565b5b600083013567ffffffffffffffff811115611fad57611fac611bf9565b5b611fb985828601611f22565b92509250509250929050565b600060208284031215611fdb57611fda611bf4565b5b6000611fe984828501611e6b565b91505092915050565b611ffb81611c83565b811461200657600080fd5b50565b60008135905061201881611ff2565b92915050565b6000806040838503121561203557612034611bf4565b5b600061204385828601611e6b565b925050602061205485828601612009565b9150509250929050565b600080fd5b7f4e487b7100000000000000000000000000000000000000000000000000000000600052604160045260246000fd5b61209b82611d33565b810181811067ffffffffffffffff821117156120ba576120b9612063565b5b80604052505050565b60006120cd611bea565b90506120d98282612092565b919050565b600067ffffffffffffffff8211156120f9576120f8612063565b5b61210282611d33565b9050602081019050919050565b82818337600083830152505050565b600061213161212c846120de565b6120c3565b90508281526020810184848401111561214d5761214c61205e565b5b61215884828561210f565b509392505050565b600082601f83011261217557612174611f13565b5b813561218584826020860161211e565b91505092915050565b600080600080608085870312156121a8576121a7611bf4565b5b60006121b687828801611e6b565b94505060206121c787828801611e6b565b93505060406121d887828801611db6565b925050606085013567ffffffffffffffff8111156121f9576121f8611bf9565b5b61220587828801612160565b91505092959194509250565b6000806040838503121561222857612227611bf4565b5b600061223685828601611e6b565b925050602061224785828601611e6b565b9150509250929050565b7f4e487b7100000000000000000000000000000000000000000000000000000000600052602260045260246000fd5b6000600282049050600182168061229857607f821691505b6020821081036122ab576122aa612251565b5b50919050565b600082905092915050565b60008190508160005260206000209050919050565b60006020601f8301049050919050565b600082821b905092915050565b60006008830261231e7fffffffffffffffffffffffffffffffffffffffffffffffffffffffffffffffff826122e1565b61232886836122e1565b95508019841693508086168417925050509392505050565b6000819050919050565b600061236561236061235b84611cb9565b612340565b611cb9565b9050919050565b6000819050919050565b61237f8361234a565b61239361238b8261236c565b8484546122ee565b825550505050565b600090565b6123a861239b565b6123b3818484612376565b505050565b5b818110156123d7576123cc6000826123a0565b6001810190506123b9565b5050565b601f82111561241c576123ed816122bc565b6123f6846122d1565b81016020851015612405578190505b612419612411856122d1565b8301826123b8565b50505b505050565b600082821c905092915050565b600061243f60001984600802612421565b1980831691505092915050565b6000612458838361242e565b9150826002028217905092915050565b61247283836122b1565b67ffffffffffffffff81111561248b5761248a612063565b5b6124958254612280565b6124a08282856123db565b6000601f8311600181146124cf57600084156124bd578287013590505b6124c7858261244c565b86555061252f565b601f1984166124dd866122bc565b60005b82811015612505578489013582556001820191506020850194506020810190506124e0565b86831015612522578489013561251e601f89168261242e565b8355505b6001600288020188555050505b50505050505050565b7f4d617820737570706c7920726561636865640000000000000000000000000000600082015250565b600061256e601283611cf8565b915061257982612538565b602082019050919050565b6000602082019050818103600083015261259d81612561565b9050919050565b7f4578636565646564206d6178206d696e74207065722061646472657373000000600082015250565b60006125da601d83611cf8565b91506125e5826125a4565b602082019050919050565b60006020820190508181036000830152612609816125cd565b9050919050565b7f4e487b7100000000000000000000000000000000000000000000000000000000600052601160045260246000fd5b600061264a82611cb9565b915061265583611cb9565b925082820261266381611cb9565b9150828204841483151761267a57612679612610565b5b5092915050565b7f4e6f7420656e6f7567682062616c616e63650000000000000000000000000000600082015250565b60006126b7601283611cf8565b91506126c282612681565b602082019050919050565b600060208201905081810360008301526126e6816126aa565b9050919050565b60006126f882611cb9565b915061270383611cb9565b925082820190508082111561271b5761271a612610565b5b92915050565b600081905092915050565b600061273782611ced565b6127418185612721565b9350612751818560208601611d09565b80840191505092915050565b7f2e6a736f6e000000000000000000000000000000000000000000000000000000600082015250565b6000612793600583612721565b915061279e8261275d565b600582019050919050565b60006127b5828561272c565b91506127c1828461272c565b91506127cc82612786565b91508190509392505050565b7f4f776e61626c653a206e6577206f776e657220697320746865207a65726f206160008201527f6464726573730000000000000000000000000000000000000000000000000000602082015250565b6000612834602683611cf8565b915061283f826127d8565b604082019050919050565b6000602082019050818103600083015261286381612827565b9050919050565b7f4f776e61626c653a2063616c6c6572206973206e6f7420746865206f776e6572600082015250565b60006128a0602083611cf8565b91506128ab8261286a565b602082019050919050565b600060208201905081810360008301526128cf81612893565b9050919050565b600081519050919050565b600082825260208201905092915050565b60006128fd826128d6565b61290781856128e1565b9350612917818560208601611d09565b61292081611d33565b840191505092915050565b60006080820190506129406000830187611e2a565b61294d6020830186611e2a565b61295a6040830185611cc3565b818103606083015261296c81846128f2565b905095945050505050565b60008151905061298681611c2a565b92915050565b6000602082840312156129a2576129a1611bf4565b5b60006129b084828501612977565b91505092915050565b7f4e487b7100000000000000000000000000000000000000000000000000000000600052601260045260246000fdfea2646970667358221220eb22803c0254edf18a5b16b3344bc1f3a4fe646e97628c613f92c1b4b97f701164736f6c63430008110033",
  "immutableReferences": {},
  "source": "// SPDX-License-Identifier: MIT\npragma solidity ^0.8.15;\n\nimport \"erc721a/contracts/ERC721A.sol\";\nimport \"@openzeppelin/contracts/access/Ownable.sol\";\nimport \"@openzeppelin/contracts/utils/Strings.sol\";\n\ncontract FlappySeals is ERC721A, Ownable {\n\n    using Strings for uint256;\n\n    uint public maxSupply;\n    uint public mintPerAddress;\n    uint public pricePerNFT;\n    string private _baseTokenURI;\n\n    mapping(address => uint) private _addressMintCount;\n    mapping(address => uint) private isAdmin;\n\n    modifier onlyAdmin() {\n        require(isAdmin[msg.sender] == 1);\n        _;\n    }\n\n    constructor(address _admin) ERC721A(\"Flappy Seals\" ,\"SEALS\") {\n        maxSupply = 1000;\n        mintPerAddress = 3;\n        pricePerNFT = 0.015 ether;\n        isAdmin[_admin] = 1;\n    }\n\n    function mint(uint256 _amount) external payable {\n        require(totalSupply() < maxSupply, \"Max supply reached\");\n        require(_addressMintCount[msg.sender] < mintPerAddress, \"Exceeded max mint per address\");\n        require(msg.value >= pricePerNFT * _amount, \"Not enough balance\");\n        _addressMintCount[msg.sender] += _amount;\n        _mint(msg.sender, _amount);\n    }\n\n    function setPrice(uint _amount) public onlyOwner {\n         pricePerNFT = _amount;\n    }\n\n    function setMaxMintPerAddress(uint _amount) public onlyOwner {\n        mintPerAddress = _amount;\n    }\n\n\n    function withdraw() public onlyAdmin {\n        payable(msg.sender).transfer(address(this).balance);\n    }\n    \n      function setBaseURI(string calldata baseURI) external onlyOwner {\n        _baseTokenURI = baseURI;\n    }\n\n    function _baseURI() internal view override returns (string memory) {\n        return _baseTokenURI;\n    }\n\n    function tokenURI(uint256 tokenId) public view virtual override returns (string memory) {\n        string memory baseURI = _baseURI();\n        return bytes(baseURI).length > 0 ? string(abi.encodePacked(baseURI, tokenId.toString(), \".json\")) : \"\";\n    }\n\n}",
  "sourcePath": "/Users/cobra/Desktop/twinNFTFE/TwinNFTtruffle/contracts/TwinNFT.sol",
  "compiler": {
    "name": "solc",
    "version": "0.8.17+commit.8df45f5f.Emscripten.clang"
  },
  "schemaVersion": "3.4.11",
  "updatedAt": "2023-02-27T13:24:53.453Z",
  "devdoc": {
    "kind": "dev",
    "methods": {
      "approve(address,uint256)": {
        "details": "Gives permission to `to` to transfer `tokenId` token to another account. The approval is cleared when the token is transferred. Only a single account can be approved at a time, so approving the zero address clears previous approvals. Requirements: - The caller must own the token or be an approved operator. - `tokenId` must exist. Emits an {Approval} event."
      },
      "balanceOf(address)": {
        "details": "Returns the number of tokens in `owner`'s account."
      },
      "getApproved(uint256)": {
        "details": "Returns the account approved for `tokenId` token. Requirements: - `tokenId` must exist."
      },
      "isApprovedForAll(address,address)": {
        "details": "Returns if the `operator` is allowed to manage all of the assets of `owner`. See {setApprovalForAll}."
      },
      "name()": {
        "details": "Returns the token collection name."
      },
      "owner()": {
        "details": "Returns the address of the current owner."
      },
      "ownerOf(uint256)": {
        "details": "Returns the owner of the `tokenId` token. Requirements: - `tokenId` must exist."
      },
      "renounceOwnership()": {
        "details": "Leaves the contract without owner. It will not be possible to call `onlyOwner` functions anymore. Can only be called by the current owner. NOTE: Renouncing ownership will leave the contract without an owner, thereby removing any functionality that is only available to the owner."
      },
      "safeTransferFrom(address,address,uint256)": {
        "details": "Equivalent to `safeTransferFrom(from, to, tokenId, '')`."
      },
      "safeTransferFrom(address,address,uint256,bytes)": {
        "details": "Safely transfers `tokenId` token from `from` to `to`. Requirements: - `from` cannot be the zero address. - `to` cannot be the zero address. - `tokenId` token must exist and be owned by `from`. - If the caller is not `from`, it must be approved to move this token by either {approve} or {setApprovalForAll}. - If `to` refers to a smart contract, it must implement {IERC721Receiver-onERC721Received}, which is called upon a safe transfer. Emits a {Transfer} event."
      },
      "setApprovalForAll(address,bool)": {
        "details": "Approve or remove `operator` as an operator for the caller. Operators can call {transferFrom} or {safeTransferFrom} for any token owned by the caller. Requirements: - The `operator` cannot be the caller. Emits an {ApprovalForAll} event."
      },
      "supportsInterface(bytes4)": {
        "details": "Returns true if this contract implements the interface defined by `interfaceId`. See the corresponding [EIP section](https://eips.ethereum.org/EIPS/eip-165#how-interfaces-are-identified) to learn more about how these ids are created. This function call must use less than 30000 gas."
      },
      "symbol()": {
        "details": "Returns the token collection symbol."
      },
      "tokenURI(uint256)": {
        "details": "Returns the Uniform Resource Identifier (URI) for `tokenId` token."
      },
      "totalSupply()": {
        "details": "Returns the total number of tokens in existence. Burned tokens will reduce the count. To get the total number of tokens minted, please see {_totalMinted}."
      },
      "transferFrom(address,address,uint256)": {
        "details": "Transfers `tokenId` from `from` to `to`. Requirements: - `from` cannot be the zero address. - `to` cannot be the zero address. - `tokenId` token must be owned by `from`. - If the caller is not `from`, it must be approved to move this token by either {approve} or {setApprovalForAll}. Emits a {Transfer} event."
      },
      "transferOwnership(address)": {
        "details": "Transfers ownership of the contract to a new account (`newOwner`). Can only be called by the current owner."
      }
    },
    "version": 1
  },
  "userdoc": {
    "errors": {
      "ApprovalCallerNotOwnerNorApproved()": [
        {
          "notice": "The caller must own the token or be an approved operator."
        }
      ],
      "ApprovalQueryForNonexistentToken()": [
        {
          "notice": "The token does not exist."
        }
      ],
      "BalanceQueryForZeroAddress()": [
        {
          "notice": "Cannot query the balance for the zero address."
        }
      ],
      "MintERC2309QuantityExceedsLimit()": [
        {
          "notice": "The `quantity` minted with ERC2309 exceeds the safety limit."
        }
      ],
      "MintToZeroAddress()": [
        {
          "notice": "Cannot mint to the zero address."
        }
      ],
      "MintZeroQuantity()": [
        {
          "notice": "The quantity of tokens minted must be more than zero."
        }
      ],
      "OwnerQueryForNonexistentToken()": [
        {
          "notice": "The token does not exist."
        }
      ],
      "OwnershipNotInitializedForExtraData()": [
        {
          "notice": "The `extraData` cannot be set on an unintialized ownership slot."
        }
      ],
      "TransferCallerNotOwnerNorApproved()": [
        {
          "notice": "The caller must own the token or be an approved operator."
        }
      ],
      "TransferFromIncorrectOwner()": [
        {
          "notice": "The token must be owned by `from`."
        }
      ],
      "TransferToNonERC721ReceiverImplementer()": [
        {
          "notice": "Cannot safely transfer to a contract that does not implement the ERC721Receiver interface."
        }
      ],
      "TransferToZeroAddress()": [
        {
          "notice": "Cannot transfer to the zero address."
        }
      ],
      "URIQueryForNonexistentToken()": [
        {
          "notice": "The token does not exist."
        }
      ]
    },
    "kind": "user",
    "methods": {},
    "version": 1
  }
}