{
  "contractName": "FlappySealsWhiteList",
  "abi": [
    {
      "inputs": [
        {
          "internalType": "address",
          "name": "_admin",
          "type": "address"
        },
        {
          "internalType": "bytes32",
          "name": "_merkleRoot",
          "type": "bytes32"
        }
      ],
      "stateMutability": "nonpayable",
      "type": "constructor"
    },
    {
      "inputs": [],
      "name": "ApprovalCallerNotOwnerNorApproved",
      "type": "error"
    },
    {
      "inputs": [],
      "name": "ApprovalQueryForNonexistentToken",
      "type": "error"
    },
    {
      "inputs": [],
      "name": "BalanceQueryForZeroAddress",
      "type": "error"
    },
    {
      "inputs": [],
      "name": "MintERC2309QuantityExceedsLimit",
      "type": "error"
    },
    {
      "inputs": [],
      "name": "MintToZeroAddress",
      "type": "error"
    },
    {
      "inputs": [],
      "name": "MintZeroQuantity",
      "type": "error"
    },
    {
      "inputs": [],
      "name": "OwnerQueryForNonexistentToken",
      "type": "error"
    },
    {
      "inputs": [],
      "name": "OwnershipNotInitializedForExtraData",
      "type": "error"
    },
    {
      "inputs": [],
      "name": "TransferCallerNotOwnerNorApproved",
      "type": "error"
    },
    {
      "inputs": [],
      "name": "TransferFromIncorrectOwner",
      "type": "error"
    },
    {
      "inputs": [],
      "name": "TransferToNonERC721ReceiverImplementer",
      "type": "error"
    },
    {
      "inputs": [],
      "name": "TransferToZeroAddress",
      "type": "error"
    },
    {
      "inputs": [],
      "name": "URIQueryForNonexistentToken",
      "type": "error"
    },
    {
      "anonymous": false,
      "inputs": [
        {
          "indexed": true,
          "internalType": "address",
          "name": "owner",
          "type": "address"
        },
        {
          "indexed": true,
          "internalType": "address",
          "name": "approved",
          "type": "address"
        },
        {
          "indexed": true,
          "internalType": "uint256",
          "name": "tokenId",
          "type": "uint256"
        }
      ],
      "name": "Approval",
      "type": "event"
    },
    {
      "anonymous": false,
      "inputs": [
        {
          "indexed": true,
          "internalType": "address",
          "name": "owner",
          "type": "address"
        },
        {
          "indexed": true,
          "internalType": "address",
          "name": "operator",
          "type": "address"
        },
        {
          "indexed": false,
          "internalType": "bool",
          "name": "approved",
          "type": "bool"
        }
      ],
      "name": "ApprovalForAll",
      "type": "event"
    },
    {
      "anonymous": false,
      "inputs": [
        {
          "indexed": true,
          "internalType": "uint256",
          "name": "fromTokenId",
          "type": "uint256"
        },
        {
          "indexed": false,
          "internalType": "uint256",
          "name": "toTokenId",
          "type": "uint256"
        },
        {
          "indexed": true,
          "internalType": "address",
          "name": "from",
          "type": "address"
        },
        {
          "indexed": true,
          "internalType": "address",
          "name": "to",
          "type": "address"
        }
      ],
      "name": "ConsecutiveTransfer",
      "type": "event"
    },
    {
      "anonymous": false,
      "inputs": [
        {
          "indexed": true,
          "internalType": "address",
          "name": "previousOwner",
          "type": "address"
        },
        {
          "indexed": true,
          "internalType": "address",
          "name": "newOwner",
          "type": "address"
        }
      ],
      "name": "OwnershipTransferred",
      "type": "event"
    },
    {
      "anonymous": false,
      "inputs": [
        {
          "indexed": true,
          "internalType": "address",
          "name": "from",
          "type": "address"
        },
        {
          "indexed": true,
          "internalType": "address",
          "name": "to",
          "type": "address"
        },
        {
          "indexed": true,
          "internalType": "uint256",
          "name": "tokenId",
          "type": "uint256"
        }
      ],
      "name": "Transfer",
      "type": "event"
    },
    {
      "inputs": [
        {
          "internalType": "address",
          "name": "to",
          "type": "address"
        },
        {
          "internalType": "uint256",
          "name": "tokenId",
          "type": "uint256"
        }
      ],
      "name": "approve",
      "outputs": [],
      "stateMutability": "payable",
      "type": "function"
    },
    {
      "inputs": [
        {
          "internalType": "address",
          "name": "owner",
          "type": "address"
        }
      ],
      "name": "balanceOf",
      "outputs": [
        {
          "internalType": "uint256",
          "name": "",
          "type": "uint256"
        }
      ],
      "stateMutability": "view",
      "type": "function"
    },
    {
      "inputs": [
        {
          "internalType": "uint256",
          "name": "tokenId",
          "type": "uint256"
        }
      ],
      "name": "getApproved",
      "outputs": [
        {
          "internalType": "address",
          "name": "",
          "type": "address"
        }
      ],
      "stateMutability": "view",
      "type": "function"
    },
    {
      "inputs": [
        {
          "internalType": "address",
          "name": "owner",
          "type": "address"
        },
        {
          "internalType": "address",
          "name": "operator",
          "type": "address"
        }
      ],
      "name": "isApprovedForAll",
      "outputs": [
        {
          "internalType": "bool",
          "name": "",
          "type": "bool"
        }
      ],
      "stateMutability": "view",
      "type": "function"
    },
    {
      "inputs": [],
      "name": "maxSupply",
      "outputs": [
        {
          "internalType": "uint256",
          "name": "",
          "type": "uint256"
        }
      ],
      "stateMutability": "view",
      "type": "function"
    },
    {
      "inputs": [],
      "name": "mintPerAddress",
      "outputs": [
        {
          "internalType": "uint256",
          "name": "",
          "type": "uint256"
        }
      ],
      "stateMutability": "view",
      "type": "function"
    },
    {
      "inputs": [],
      "name": "name",
      "outputs": [
        {
          "internalType": "string",
          "name": "",
          "type": "string"
        }
      ],
      "stateMutability": "view",
      "type": "function"
    },
    {
      "inputs": [],
      "name": "owner",
      "outputs": [
        {
          "internalType": "address",
          "name": "",
          "type": "address"
        }
      ],
      "stateMutability": "view",
      "type": "function"
    },
    {
      "inputs": [
        {
          "internalType": "uint256",
          "name": "tokenId",
          "type": "uint256"
        }
      ],
      "name": "ownerOf",
      "outputs": [
        {
          "internalType": "address",
          "name": "",
          "type": "address"
        }
      ],
      "stateMutability": "view",
      "type": "function"
    },
    {
      "inputs": [],
      "name": "pricePerNFT",
      "outputs": [
        {
          "internalType": "uint256",
          "name": "",
          "type": "uint256"
        }
      ],
      "stateMutability": "view",
      "type": "function"
    },
    {
      "inputs": [],
      "name": "renounceOwnership",
      "outputs": [],
      "stateMutability": "nonpayable",
      "type": "function"
    },
    {
      "inputs": [
        {
          "internalType": "address",
          "name": "from",
          "type": "address"
        },
        {
          "internalType": "address",
          "name": "to",
          "type": "address"
        },
        {
          "internalType": "uint256",
          "name": "tokenId",
          "type": "uint256"
        }
      ],
      "name": "safeTransferFrom",
      "outputs": [],
      "stateMutability": "payable",
      "type": "function"
    },
    {
      "inputs": [
        {
          "internalType": "address",
          "name": "from",
          "type": "address"
        },
        {
          "internalType": "address",
          "name": "to",
          "type": "address"
        },
        {
          "internalType": "uint256",
          "name": "tokenId",
          "type": "uint256"
        },
        {
          "internalType": "bytes",
          "name": "_data",
          "type": "bytes"
        }
      ],
      "name": "safeTransferFrom",
      "outputs": [],
      "stateMutability": "payable",
      "type": "function"
    },
    {
      "inputs": [
        {
          "internalType": "address",
          "name": "operator",
          "type": "address"
        },
        {
          "internalType": "bool",
          "name": "approved",
          "type": "bool"
        }
      ],
      "name": "setApprovalForAll",
      "outputs": [],
      "stateMutability": "nonpayable",
      "type": "function"
    },
    {
      "inputs": [
        {
          "internalType": "bytes4",
          "name": "interfaceId",
          "type": "bytes4"
        }
      ],
      "name": "supportsInterface",
      "outputs": [
        {
          "internalType": "bool",
          "name": "",
          "type": "bool"
        }
      ],
      "stateMutability": "view",
      "type": "function"
    },
    {
      "inputs": [],
      "name": "symbol",
      "outputs": [
        {
          "internalType": "string",
          "name": "",
          "type": "string"
        }
      ],
      "stateMutability": "view",
      "type": "function"
    },
    {
      "inputs": [],
      "name": "totalSupply",
      "outputs": [
        {
          "internalType": "uint256",
          "name": "",
          "type": "uint256"
        }
      ],
      "stateMutability": "view",
      "type": "function"
    },
    {
      "inputs": [
        {
          "internalType": "address",
          "name": "from",
          "type": "address"
        },
        {
          "internalType": "address",
          "name": "to",
          "type": "address"
        },
        {
          "internalType": "uint256",
          "name": "tokenId",
          "type": "uint256"
        }
      ],
      "name": "transferFrom",
      "outputs": [],
      "stateMutability": "payable",
      "type": "function"
    },
    {
      "inputs": [
        {
          "internalType": "address",
          "name": "newOwner",
          "type": "address"
        }
      ],
      "name": "transferOwnership",
      "outputs": [],
      "stateMutability": "nonpayable",
      "type": "function"
    },
    {
      "inputs": [
        {
          "internalType": "uint256",
          "name": "_amount",
          "type": "uint256"
        }
      ],
      "name": "mint",
      "outputs": [],
      "stateMutability": "payable",
      "type": "function"
    },
    {
      "inputs": [
        {
          "internalType": "uint256",
          "name": "_amount",
          "type": "uint256"
        },
        {
          "internalType": "bytes32[]",
          "name": "merkleProof",
          "type": "bytes32[]"
        }
      ],
      "name": "mintWhitelist",
      "outputs": [],
      "stateMutability": "payable",
      "type": "function"
    },
    {
      "inputs": [
        {
          "internalType": "uint256",
          "name": "_amount",
          "type": "uint256"
        }
      ],
      "name": "mintAdmin",
      "outputs": [],
      "stateMutability": "payable",
      "type": "function"
    },
    {
      "inputs": [
        {
          "internalType": "uint256",
          "name": "_amount",
          "type": "uint256"
        }
      ],
      "name": "setPrice",
      "outputs": [],
      "stateMutability": "nonpayable",
      "type": "function"
    },
    {
      "inputs": [
        {
          "internalType": "uint256",
          "name": "_amount",
          "type": "uint256"
        }
      ],
      "name": "setMaxMintPerAddress",
      "outputs": [],
      "stateMutability": "nonpayable",
      "type": "function"
    },
    {
      "inputs": [],
      "name": "withdraw",
      "outputs": [],
      "stateMutability": "nonpayable",
      "type": "function"
    },
    {
      "inputs": [
        {
          "internalType": "string",
          "name": "baseURI",
          "type": "string"
        }
      ],
      "name": "setBaseURI",
      "outputs": [],
      "stateMutability": "nonpayable",
      "type": "function"
    },
    {
      "inputs": [
        {
          "internalType": "uint256",
          "name": "tokenId",
          "type": "uint256"
        }
      ],
      "name": "tokenURI",
      "outputs": [
        {
          "internalType": "string",
          "name": "",
          "type": "string"
        }
      ],
      "stateMutability": "view",
      "type": "function"
    }
  ],
  "bytecode": "0x60806040523480156200001157600080fd5b50604051620036ba380380620036ba8339818101604052810190620000379190620002ee565b6040518060400160405280600c81526020017f466c61707079205365616c7300000000000000000000000000000000000000008152506040518060400160405280600581526020017f5345414c530000000000000000000000000000000000000000000000000000008152508160029081620000b49190620005af565b508060039081620000c69190620005af565b50620000d76200017260201b60201c565b6000819055505050620000ff620000f36200017b60201b60201c565b6200018360201b60201c565b6103e86009819055506003600a8190555066354a6ba7a18000600b819055506001600f60008473ffffffffffffffffffffffffffffffffffffffff1673ffffffffffffffffffffffffffffffffffffffff1681526020019081526020016000208190555080600d81905550505062000696565b60006001905090565b600033905090565b6000600860009054906101000a900473ffffffffffffffffffffffffffffffffffffffff16905081600860006101000a81548173ffffffffffffffffffffffffffffffffffffffff021916908373ffffffffffffffffffffffffffffffffffffffff1602179055508173ffffffffffffffffffffffffffffffffffffffff168173ffffffffffffffffffffffffffffffffffffffff167f8be0079c531659141344cd1fd0a4f28419497f9722a3daafe3b4186f6b6457e060405160405180910390a35050565b600080fd5b600073ffffffffffffffffffffffffffffffffffffffff82169050919050565b60006200027b826200024e565b9050919050565b6200028d816200026e565b81146200029957600080fd5b50565b600081519050620002ad8162000282565b92915050565b6000819050919050565b620002c881620002b3565b8114620002d457600080fd5b50565b600081519050620002e881620002bd565b92915050565b6000806040838503121562000308576200030762000249565b5b600062000318858286016200029c565b92505060206200032b85828601620002d7565b9150509250929050565b600081519050919050565b7f4e487b7100000000000000000000000000000000000000000000000000000000600052604160045260246000fd5b7f4e487b7100000000000000000000000000000000000000000000000000000000600052602260045260246000fd5b60006002820490506001821680620003b757607f821691505b602082108103620003cd57620003cc6200036f565b5b50919050565b60008190508160005260206000209050919050565b60006020601f8301049050919050565b600082821b905092915050565b600060088302620004377fffffffffffffffffffffffffffffffffffffffffffffffffffffffffffffffff82620003f8565b620004438683620003f8565b95508019841693508086168417925050509392505050565b6000819050919050565b6000819050919050565b6000620004906200048a62000484846200045b565b62000465565b6200045b565b9050919050565b6000819050919050565b620004ac836200046f565b620004c4620004bb8262000497565b84845462000405565b825550505050565b600090565b620004db620004cc565b620004e8818484620004a1565b505050565b5b81811015620005105762000504600082620004d1565b600181019050620004ee565b5050565b601f8211156200055f576200052981620003d3565b6200053484620003e8565b8101602085101562000544578190505b6200055c6200055385620003e8565b830182620004ed565b50505b505050565b600082821c905092915050565b6000620005846000198460080262000564565b1980831691505092915050565b60006200059f838362000571565b9150826002028217905092915050565b620005ba8262000335565b67ffffffffffffffff811115620005d657620005d562000340565b5b620005e282546200039e565b620005ef82828562000514565b600060209050601f83116001811462000627576000841562000612578287015190505b6200061e858262000591565b8655506200068e565b601f1984166200063786620003d3565b60005b8281101562000661578489015182556001820191506020850194506020810190506200063a565b868310156200068157848901516200067d601f89168262000571565b8355505b6001600288020188555050505b505050505050565b61301480620006a66000396000f3fe60806040526004361061019c5760003560e01c8063677ab70b116100ec578063a22cb4651161008a578063d5abeb0111610064578063d5abeb011461053f578063e985e9c51461056a578063f2fde38b146105a7578063f47a269c146105d05761019c565b8063a22cb465146104bd578063b88d4fde146104e6578063c87b56dd146105025761019c565b80638da5cb5b116100c65780638da5cb5b1461042257806391b7f5ed1461044d57806395d89b4114610476578063a0712d68146104a15761019c565b8063677ab70b146103b257806370a08231146103ce578063715018a61461040b5761019c565b806318160ddd116101595780633ccfd60b116101335780633ccfd60b1461031957806342842e0e1461033057806355f804b31461034c5780636352211e146103755761019c565b806318160ddd146102a95780631e14d44b146102d457806323b872dd146102fd5761019c565b806301ffc9a7146101a1578063061431a8146101de5780630628aa70146101fa57806306fdde0314610225578063081812fc14610250578063095ea7b31461028d575b600080fd5b3480156101ad57600080fd5b506101c860048036038101906101c391906120b3565b6105fb565b6040516101d591906120fb565b60405180910390f35b6101f860048036038101906101f391906121b1565b61068d565b005b34801561020657600080fd5b5061020f6108ac565b60405161021c9190612220565b60405180910390f35b34801561023157600080fd5b5061023a6108b2565b60405161024791906122cb565b60405180910390f35b34801561025c57600080fd5b50610277600480360381019061027291906122ed565b610944565b604051610284919061235b565b60405180910390f35b6102a760048036038101906102a291906123a2565b6109c3565b005b3480156102b557600080fd5b506102be610b07565b6040516102cb9190612220565b60405180910390f35b3480156102e057600080fd5b506102fb60048036038101906102f691906122ed565b610b1e565b005b610317600480360381019061031291906123e2565b610b30565b005b34801561032557600080fd5b5061032e610e52565b005b61034a600480360381019061034591906123e2565b610ee7565b005b34801561035857600080fd5b50610373600480360381019061036e919061248b565b610f07565b005b34801561038157600080fd5b5061039c600480360381019061039791906122ed565b610f25565b6040516103a9919061235b565b60405180910390f35b6103cc60048036038101906103c791906122ed565b610f37565b005b3480156103da57600080fd5b506103f560048036038101906103f091906124d8565b611031565b6040516104029190612220565b60405180910390f35b34801561041757600080fd5b506104206110e9565b005b34801561042e57600080fd5b506104376110fd565b604051610444919061235b565b60405180910390f35b34801561045957600080fd5b50610474600480360381019061046f91906122ed565b611127565b005b34801561048257600080fd5b5061048b611139565b60405161049891906122cb565b60405180910390f35b6104bb60048036038101906104b691906122ed565b6111cb565b005b3480156104c957600080fd5b506104e460048036038101906104df9190612531565b61134c565b005b61050060048036038101906104fb91906126a1565b611457565b005b34801561050e57600080fd5b50610529600480360381019061052491906122ed565b6114ca565b60405161053691906122cb565b60405180910390f35b34801561054b57600080fd5b50610554611529565b6040516105619190612220565b60405180910390f35b34801561057657600080fd5b50610591600480360381019061058c9190612724565b61152f565b60405161059e91906120fb565b60405180910390f35b3480156105b357600080fd5b506105ce60048036038101906105c991906124d8565b6115c3565b005b3480156105dc57600080fd5b506105e5611646565b6040516105f29190612220565b60405180910390f35b60006301ffc9a760e01b827bffffffffffffffffffffffffffffffffffffffffffffffffffffffff1916148061065657506380ac58cd60e01b827bffffffffffffffffffffffffffffffffffffffffffffffffffffffff1916145b806106865750635b5e139f60e01b827bffffffffffffffffffffffffffffffffffffffffffffffffffffffff1916145b9050919050565b600954610698610b07565b106106d8576040517f08c379a00000000000000000000000000000000000000000000000000000000081526004016106cf906127b0565b60405180910390fd5b600a54600e60003373ffffffffffffffffffffffffffffffffffffffff1673ffffffffffffffffffffffffffffffffffffffff168152602001908152602001600020541061075b576040517f08c379a00000000000000000000000000000000000000000000000000000000081526004016107529061281c565b60405180910390fd5b82600b54610769919061286b565b3410156107ab576040517f08c379a00000000000000000000000000000000000000000000000000000000081526004016107a2906128f9565b60405180910390fd5b60011515610805838380806020026020016040519081016040528093929190818152602001838360200280828437600081840152601f19601f82011690508083019250505050505050600d546108003361164c565b61166f565b151514610847576040517f08c379a000000000000000000000000000000000000000000000000000000000815260040161083e90612965565b60405180910390fd5b82600e60003373ffffffffffffffffffffffffffffffffffffffff1673ffffffffffffffffffffffffffffffffffffffff16815260200190815260200160002060008282546108969190612985565b925050819055506108a73384611686565b505050565b600b5481565b6060600280546108c1906129e8565b80601f01602080910402602001604051908101604052809291908181526020018280546108ed906129e8565b801561093a5780601f1061090f5761010080835404028352916020019161093a565b820191906000526020600020905b81548152906001019060200180831161091d57829003601f168201915b5050505050905090565b600061094f82611841565b610985576040517fcf4700e400000000000000000000000000000000000000000000000000000000815260040160405180910390fd5b6006600083815260200190815260200160002060000160009054906101000a900473ffffffffffffffffffffffffffffffffffffffff169050919050565b60006109ce82610f25565b90508073ffffffffffffffffffffffffffffffffffffffff166109ef6118a0565b73ffffffffffffffffffffffffffffffffffffffff1614610a5257610a1b81610a166118a0565b61152f565b610a51576040517fcfb3b94200000000000000000000000000000000000000000000000000000000815260040160405180910390fd5b5b826006600084815260200190815260200160002060000160006101000a81548173ffffffffffffffffffffffffffffffffffffffff021916908373ffffffffffffffffffffffffffffffffffffffff160217905550818373ffffffffffffffffffffffffffffffffffffffff168273ffffffffffffffffffffffffffffffffffffffff167f8c5be1e5ebec7d5bd14f71427d1e84f3dd0314c0f7b2291e5b200ac8c7c3b92560405160405180910390a4505050565b6000610b116118a8565b6001546000540303905090565b610b266118b1565b80600a8190555050565b6000610b3b8261192f565b90508373ffffffffffffffffffffffffffffffffffffffff168173ffffffffffffffffffffffffffffffffffffffff1614610ba2576040517fa114810000000000000000000000000000000000000000000000000000000000815260040160405180910390fd5b600080610bae846119fb565b91509150610bc48187610bbf6118a0565b611a22565b610c1057610bd986610bd46118a0565b61152f565b610c0f576040517f59c896be00000000000000000000000000000000000000000000000000000000815260040160405180910390fd5b5b600073ffffffffffffffffffffffffffffffffffffffff168573ffffffffffffffffffffffffffffffffffffffff1603610c76576040517fea553b3400000000000000000000000000000000000000000000000000000000815260040160405180910390fd5b610c838686866001611a66565b8015610c8e57600082555b600560008773ffffffffffffffffffffffffffffffffffffffff1673ffffffffffffffffffffffffffffffffffffffff168152602001908152602001600020600081546001900391905081905550600560008673ffffffffffffffffffffffffffffffffffffffff1673ffffffffffffffffffffffffffffffffffffffff1681526020019081526020016000206000815460010191905081905550610d5c85610d38888887611a6c565b7c020000000000000000000000000000000000000000000000000000000017611a94565b600460008681526020019081526020016000208190555060007c0200000000000000000000000000000000000000000000000000000000841603610de25760006001850190506000600460008381526020019081526020016000205403610de0576000548114610ddf578360046000838152602001908152602001600020819055505b5b505b838573ffffffffffffffffffffffffffffffffffffffff168773ffffffffffffffffffffffffffffffffffffffff167fddf252ad1be2c89b69c2b068fc378daa952ba7f163c4a11628f55a4df523b3ef60405160405180910390a4610e4a8686866001611abf565b505050505050565b6001600f60003373ffffffffffffffffffffffffffffffffffffffff1673ffffffffffffffffffffffffffffffffffffffff1681526020019081526020016000205414610e9e57600080fd5b3373ffffffffffffffffffffffffffffffffffffffff166108fc479081150290604051600060405180830381858888f19350505050158015610ee4573d6000803e3d6000fd5b50565b610f0283838360405180602001604052806000815250611457565b505050565b610f0f6118b1565b8181600c9182610f20929190612bd0565b505050565b6000610f308261192f565b9050919050565b6001600f60003373ffffffffffffffffffffffffffffffffffffffff1673ffffffffffffffffffffffffffffffffffffffff1681526020019081526020016000205414610f8357600080fd5b600954610f8e610b07565b10610fce576040517f08c379a0000000000000000000000000000000000000000000000000000000008152600401610fc5906127b0565b60405180910390fd5b80600e60003373ffffffffffffffffffffffffffffffffffffffff1673ffffffffffffffffffffffffffffffffffffffff168152602001908152602001600020600082825461101d9190612985565b9250508190555061102e3382611686565b50565b60008073ffffffffffffffffffffffffffffffffffffffff168273ffffffffffffffffffffffffffffffffffffffff1603611098576040517f8f4eb60400000000000000000000000000000000000000000000000000000000815260040160405180910390fd5b67ffffffffffffffff600560008473ffffffffffffffffffffffffffffffffffffffff1673ffffffffffffffffffffffffffffffffffffffff16815260200190815260200160002054169050919050565b6110f16118b1565b6110fb6000611ac5565b565b6000600860009054906101000a900473ffffffffffffffffffffffffffffffffffffffff16905090565b61112f6118b1565b80600b8190555050565b606060038054611148906129e8565b80601f0160208091040260200160405190810160405280929190818152602001828054611174906129e8565b80156111c15780601f10611196576101008083540402835291602001916111c1565b820191906000526020600020905b8154815290600101906020018083116111a457829003601f168201915b5050505050905090565b6009546111d6610b07565b10611216576040517f08c379a000000000000000000000000000000000000000000000000000000000815260040161120d906127b0565b60405180910390fd5b600a54600e60003373ffffffffffffffffffffffffffffffffffffffff1673ffffffffffffffffffffffffffffffffffffffff1681526020019081526020016000205410611299576040517f08c379a00000000000000000000000000000000000000000000000000000000081526004016112909061281c565b60405180910390fd5b80600b546112a7919061286b565b3410156112e9576040517f08c379a00000000000000000000000000000000000000000000000000000000081526004016112e0906128f9565b60405180910390fd5b80600e60003373ffffffffffffffffffffffffffffffffffffffff1673ffffffffffffffffffffffffffffffffffffffff16815260200190815260200160002060008282546113389190612985565b925050819055506113493382611686565b50565b80600760006113596118a0565b73ffffffffffffffffffffffffffffffffffffffff1673ffffffffffffffffffffffffffffffffffffffff16815260200190815260200160002060008473ffffffffffffffffffffffffffffffffffffffff1673ffffffffffffffffffffffffffffffffffffffff16815260200190815260200160002060006101000a81548160ff0219169083151502179055508173ffffffffffffffffffffffffffffffffffffffff166114066118a0565b73ffffffffffffffffffffffffffffffffffffffff167f17307eab39ab6107e8899845ad3d59bd9653f200f220920489ca2b5937696c318360405161144b91906120fb565b60405180910390a35050565b611462848484610b30565b60008373ffffffffffffffffffffffffffffffffffffffff163b146114c45761148d84848484611b8b565b6114c3576040517fd1a57ed600000000000000000000000000000000000000000000000000000000815260040160405180910390fd5b5b50505050565b606060006114d6611cdb565b905060008151116114f65760405180602001604052806000815250611521565b8061150084611d6d565b604051602001611511929190612d28565b6040516020818303038152906040525b915050919050565b60095481565b6000600760008473ffffffffffffffffffffffffffffffffffffffff1673ffffffffffffffffffffffffffffffffffffffff16815260200190815260200160002060008373ffffffffffffffffffffffffffffffffffffffff1673ffffffffffffffffffffffffffffffffffffffff16815260200190815260200160002060009054906101000a900460ff16905092915050565b6115cb6118b1565b600073ffffffffffffffffffffffffffffffffffffffff168173ffffffffffffffffffffffffffffffffffffffff160361163a576040517f08c379a000000000000000000000000000000000000000000000000000000000815260040161163190612dc9565b60405180910390fd5b61164381611ac5565b50565b600a5481565b60008173ffffffffffffffffffffffffffffffffffffffff1660001b9050919050565b60008261167c8584611e3b565b1490509392505050565b600080549050600082036116c6576040517fb562e8dd00000000000000000000000000000000000000000000000000000000815260040160405180910390fd5b6116d36000848385611a66565b600160406001901b178202600560008573ffffffffffffffffffffffffffffffffffffffff1673ffffffffffffffffffffffffffffffffffffffff1681526020019081526020016000206000828254019250508190555061174a8361173b6000866000611a6c565b61174485611e91565b17611a94565b6004600083815260200190815260200160002081905550600080838301905073ffffffffffffffffffffffffffffffffffffffff85169150828260007fddf252ad1be2c89b69c2b068fc378daa952ba7f163c4a11628f55a4df523b3ef600080a4600183015b8181146117eb57808360007fddf252ad1be2c89b69c2b068fc378daa952ba7f163c4a11628f55a4df523b3ef600080a46001810190506117b0565b5060008203611826576040517f2e07630000000000000000000000000000000000000000000000000000000000815260040160405180910390fd5b80600081905550505061183c6000848385611abf565b505050565b60008161184c6118a8565b1115801561185b575060005482105b8015611899575060007c0100000000000000000000000000000000000000000000000000000000600460008581526020019081526020016000205416145b9050919050565b600033905090565b60006001905090565b6118b9611ea1565b73ffffffffffffffffffffffffffffffffffffffff166118d76110fd565b73ffffffffffffffffffffffffffffffffffffffff161461192d576040517f08c379a000000000000000000000000000000000000000000000000000000000815260040161192490612e35565b60405180910390fd5b565b6000808290508061193e6118a8565b116119c4576000548110156119c35760006004600083815260200190815260200160002054905060007c01000000000000000000000000000000000000000000000000000000008216036119c1575b600081036119b757600460008360019003935083815260200190815260200160002054905061198d565b80925050506119f6565b505b5b6040517fdf2d9b4200000000000000000000000000000000000000000000000000000000815260040160405180910390fd5b919050565b60008060006006600085815260200190815260200160002090508092508254915050915091565b600073ffffffffffffffffffffffffffffffffffffffff8316925073ffffffffffffffffffffffffffffffffffffffff821691508382148383141790509392505050565b50505050565b60008060e883901c905060e8611a83868684611ea9565b62ffffff16901b9150509392505050565b600073ffffffffffffffffffffffffffffffffffffffff83169250814260a01b178317905092915050565b50505050565b6000600860009054906101000a900473ffffffffffffffffffffffffffffffffffffffff16905081600860006101000a81548173ffffffffffffffffffffffffffffffffffffffff021916908373ffffffffffffffffffffffffffffffffffffffff1602179055508173ffffffffffffffffffffffffffffffffffffffff168173ffffffffffffffffffffffffffffffffffffffff167f8be0079c531659141344cd1fd0a4f28419497f9722a3daafe3b4186f6b6457e060405160405180910390a35050565b60008373ffffffffffffffffffffffffffffffffffffffff1663150b7a02611bb16118a0565b8786866040518563ffffffff1660e01b8152600401611bd39493929190612eaa565b6020604051808303816000875af1925050508015611c0f57506040513d601f19601f82011682018060405250810190611c0c9190612f0b565b60015b611c88573d8060008114611c3f576040519150601f19603f3d011682016040523d82523d6000602084013e611c44565b606091505b506000815103611c80576040517fd1a57ed600000000000000000000000000000000000000000000000000000000815260040160405180910390fd5b805181602001fd5b63150b7a0260e01b7bffffffffffffffffffffffffffffffffffffffffffffffffffffffff1916817bffffffffffffffffffffffffffffffffffffffffffffffffffffffff191614915050949350505050565b6060600c8054611cea906129e8565b80601f0160208091040260200160405190810160405280929190818152602001828054611d16906129e8565b8015611d635780601f10611d3857610100808354040283529160200191611d63565b820191906000526020600020905b815481529060010190602001808311611d4657829003601f168201915b5050505050905090565b606060006001611d7c84611eb2565b01905060008167ffffffffffffffff811115611d9b57611d9a612576565b5b6040519080825280601f01601f191660200182016040528015611dcd5781602001600182028036833780820191505090505b509050600082602001820190505b600115611e30578080600190039150507f3031323334353637383961626364656600000000000000000000000000000000600a86061a8153600a8581611e2457611e23612f38565b5b04945060008503611ddb575b819350505050919050565b60008082905060005b8451811015611e8657611e7182868381518110611e6457611e63612f67565b5b6020026020010151612005565b91508080611e7e90612f96565b915050611e44565b508091505092915050565b60006001821460e11b9050919050565b600033905090565b60009392505050565b600080600090507a184f03e93ff9f4daa797ed6e38ed64bf6a1f0100000000000000008310611f10577a184f03e93ff9f4daa797ed6e38ed64bf6a1f0100000000000000008381611f0657611f05612f38565b5b0492506040810190505b6d04ee2d6d415b85acef81000000008310611f4d576d04ee2d6d415b85acef81000000008381611f4357611f42612f38565b5b0492506020810190505b662386f26fc100008310611f7c57662386f26fc100008381611f7257611f71612f38565b5b0492506010810190505b6305f5e1008310611fa5576305f5e1008381611f9b57611f9a612f38565b5b0492506008810190505b6127108310611fca576127108381611fc057611fbf612f38565b5b0492506004810190505b60648310611fed5760648381611fe357611fe2612f38565b5b0492506002810190505b600a8310611ffc576001810190505b80915050919050565b600081831061201d576120188284612030565b612028565b6120278383612030565b5b905092915050565b600082600052816020526040600020905092915050565b6000604051905090565b600080fd5b600080fd5b60007fffffffff0000000000000000000000000000000000000000000000000000000082169050919050565b6120908161205b565b811461209b57600080fd5b50565b6000813590506120ad81612087565b92915050565b6000602082840312156120c9576120c8612051565b5b60006120d78482850161209e565b91505092915050565b60008115159050919050565b6120f5816120e0565b82525050565b600060208201905061211060008301846120ec565b92915050565b6000819050919050565b61212981612116565b811461213457600080fd5b50565b60008135905061214681612120565b92915050565b600080fd5b600080fd5b600080fd5b60008083601f8401126121715761217061214c565b5b8235905067ffffffffffffffff81111561218e5761218d612151565b5b6020830191508360208202830111156121aa576121a9612156565b5b9250929050565b6000806000604084860312156121ca576121c9612051565b5b60006121d886828701612137565b935050602084013567ffffffffffffffff8111156121f9576121f8612056565b5b6122058682870161215b565b92509250509250925092565b61221a81612116565b82525050565b60006020820190506122356000830184612211565b92915050565b600081519050919050565b600082825260208201905092915050565b60005b8381101561227557808201518184015260208101905061225a565b60008484015250505050565b6000601f19601f8301169050919050565b600061229d8261223b565b6122a78185612246565b93506122b7818560208601612257565b6122c081612281565b840191505092915050565b600060208201905081810360008301526122e58184612292565b905092915050565b60006020828403121561230357612302612051565b5b600061231184828501612137565b91505092915050565b600073ffffffffffffffffffffffffffffffffffffffff82169050919050565b60006123458261231a565b9050919050565b6123558161233a565b82525050565b6000602082019050612370600083018461234c565b92915050565b61237f8161233a565b811461238a57600080fd5b50565b60008135905061239c81612376565b92915050565b600080604083850312156123b9576123b8612051565b5b60006123c78582860161238d565b92505060206123d885828601612137565b9150509250929050565b6000806000606084860312156123fb576123fa612051565b5b60006124098682870161238d565b935050602061241a8682870161238d565b925050604061242b86828701612137565b9150509250925092565b60008083601f84011261244b5761244a61214c565b5b8235905067ffffffffffffffff81111561246857612467612151565b5b60208301915083600182028301111561248457612483612156565b5b9250929050565b600080602083850312156124a2576124a1612051565b5b600083013567ffffffffffffffff8111156124c0576124bf612056565b5b6124cc85828601612435565b92509250509250929050565b6000602082840312156124ee576124ed612051565b5b60006124fc8482850161238d565b91505092915050565b61250e816120e0565b811461251957600080fd5b50565b60008135905061252b81612505565b92915050565b6000806040838503121561254857612547612051565b5b60006125568582860161238d565b92505060206125678582860161251c565b9150509250929050565b600080fd5b7f4e487b7100000000000000000000000000000000000000000000000000000000600052604160045260246000fd5b6125ae82612281565b810181811067ffffffffffffffff821117156125cd576125cc612576565b5b80604052505050565b60006125e0612047565b90506125ec82826125a5565b919050565b600067ffffffffffffffff82111561260c5761260b612576565b5b61261582612281565b9050602081019050919050565b82818337600083830152505050565b600061264461263f846125f1565b6125d6565b9050828152602081018484840111156126605761265f612571565b5b61266b848285612622565b509392505050565b600082601f8301126126885761268761214c565b5b8135612698848260208601612631565b91505092915050565b600080600080608085870312156126bb576126ba612051565b5b60006126c98782880161238d565b94505060206126da8782880161238d565b93505060406126eb87828801612137565b925050606085013567ffffffffffffffff81111561270c5761270b612056565b5b61271887828801612673565b91505092959194509250565b6000806040838503121561273b5761273a612051565b5b60006127498582860161238d565b925050602061275a8582860161238d565b9150509250929050565b7f4d617820737570706c7920726561636865640000000000000000000000000000600082015250565b600061279a601283612246565b91506127a582612764565b602082019050919050565b600060208201905081810360008301526127c98161278d565b9050919050565b7f4578636565646564206d6178206d696e74207065722061646472657373000000600082015250565b6000612806601d83612246565b9150612811826127d0565b602082019050919050565b60006020820190508181036000830152612835816127f9565b9050919050565b7f4e487b7100000000000000000000000000000000000000000000000000000000600052601160045260246000fd5b600061287682612116565b915061288183612116565b925082820261288f81612116565b915082820484148315176128a6576128a561283c565b5b5092915050565b7f4e6f7420656e6f7567682062616c616e63650000000000000000000000000000600082015250565b60006128e3601283612246565b91506128ee826128ad565b602082019050919050565b60006020820190508181036000830152612912816128d6565b9050919050565b7f696e76616c6964206d65726b6c652070726f6f66000000000000000000000000600082015250565b600061294f601483612246565b915061295a82612919565b602082019050919050565b6000602082019050818103600083015261297e81612942565b9050919050565b600061299082612116565b915061299b83612116565b92508282019050808211156129b3576129b261283c565b5b92915050565b7f4e487b7100000000000000000000000000000000000000000000000000000000600052602260045260246000fd5b60006002820490506001821680612a0057607f821691505b602082108103612a1357612a126129b9565b5b50919050565b600082905092915050565b60008190508160005260206000209050919050565b60006020601f8301049050919050565b600082821b905092915050565b600060088302612a867fffffffffffffffffffffffffffffffffffffffffffffffffffffffffffffffff82612a49565b612a908683612a49565b95508019841693508086168417925050509392505050565b6000819050919050565b6000612acd612ac8612ac384612116565b612aa8565b612116565b9050919050565b6000819050919050565b612ae783612ab2565b612afb612af382612ad4565b848454612a56565b825550505050565b600090565b612b10612b03565b612b1b818484612ade565b505050565b5b81811015612b3f57612b34600082612b08565b600181019050612b21565b5050565b601f821115612b8457612b5581612a24565b612b5e84612a39565b81016020851015612b6d578190505b612b81612b7985612a39565b830182612b20565b50505b505050565b600082821c905092915050565b6000612ba760001984600802612b89565b1980831691505092915050565b6000612bc08383612b96565b9150826002028217905092915050565b612bda8383612a19565b67ffffffffffffffff811115612bf357612bf2612576565b5b612bfd82546129e8565b612c08828285612b43565b6000601f831160018114612c375760008415612c25578287013590505b612c2f8582612bb4565b865550612c97565b601f198416612c4586612a24565b60005b82811015612c6d57848901358255600182019150602085019450602081019050612c48565b86831015612c8a5784890135612c86601f891682612b96565b8355505b6001600288020188555050505b50505050505050565b600081905092915050565b6000612cb68261223b565b612cc08185612ca0565b9350612cd0818560208601612257565b80840191505092915050565b7f2e6a736f6e000000000000000000000000000000000000000000000000000000600082015250565b6000612d12600583612ca0565b9150612d1d82612cdc565b600582019050919050565b6000612d348285612cab565b9150612d408284612cab565b9150612d4b82612d05565b91508190509392505050565b7f4f776e61626c653a206e6577206f776e657220697320746865207a65726f206160008201527f6464726573730000000000000000000000000000000000000000000000000000602082015250565b6000612db3602683612246565b9150612dbe82612d57565b604082019050919050565b60006020820190508181036000830152612de281612da6565b9050919050565b7f4f776e61626c653a2063616c6c6572206973206e6f7420746865206f776e6572600082015250565b6000612e1f602083612246565b9150612e2a82612de9565b602082019050919050565b60006020820190508181036000830152612e4e81612e12565b9050919050565b600081519050919050565b600082825260208201905092915050565b6000612e7c82612e55565b612e868185612e60565b9350612e96818560208601612257565b612e9f81612281565b840191505092915050565b6000608082019050612ebf600083018761234c565b612ecc602083018661234c565b612ed96040830185612211565b8181036060830152612eeb8184612e71565b905095945050505050565b600081519050612f0581612087565b92915050565b600060208284031215612f2157612f20612051565b5b6000612f2f84828501612ef6565b91505092915050565b7f4e487b7100000000000000000000000000000000000000000000000000000000600052601260045260246000fd5b7f4e487b7100000000000000000000000000000000000000000000000000000000600052603260045260246000fd5b6000612fa182612116565b91507fffffffffffffffffffffffffffffffffffffffffffffffffffffffffffffffff8203612fd357612fd261283c565b5b60018201905091905056fea26469706673582212202f92cb9e84fe4fbb937d09ccec6a5c14e251774465e4faceacd5895d20d99c6b64736f6c63430008110033",
  "immutableReferences": {},
  "source": "// SPDX-License-Identifier: MIT\npragma solidity ^0.8.15;\n\nimport \"erc721a/contracts/ERC721A.sol\";\nimport \"@openzeppelin/contracts/access/Ownable.sol\";\nimport \"@openzeppelin/contracts/utils/Strings.sol\";\nimport \"@openzeppelin/contracts/utils/cryptography/MerkleProof.sol\";\n\ncontract FlappySealsWhiteList is ERC721A, Ownable {\n\n    using Strings for uint256;\n\n    uint public maxSupply;\n    uint public mintPerAddress;\n    uint public pricePerNFT;\n    string private _baseTokenURI;\n\n    bytes32 private merkleRoot;\n\n    mapping(address => uint) private _addressMintCount;\n    mapping(address => uint) private isAdmin;\n\n    modifier onlyAdmin() {\n        require(isAdmin[msg.sender] == 1);\n        _;\n    }\n\n    constructor(address _admin, bytes32 _merkleRoot) ERC721A(\"Flappy Seals\" ,\"SEALS\") {\n        maxSupply = 1000;\n        mintPerAddress = 3;\n        pricePerNFT = 0.015 ether;\n        isAdmin[_admin] = 1;\n        merkleRoot = _merkleRoot;\n    }\n\n    function mint(uint256 _amount) external payable {\n        require(totalSupply() < maxSupply, \"Max supply reached\");\n        require(_addressMintCount[msg.sender] < mintPerAddress, \"Exceeded max mint per address\");\n        require(msg.value >= pricePerNFT * _amount, \"Not enough balance\");\n        _addressMintCount[msg.sender] += _amount;\n        _mint(msg.sender, _amount);\n    }\n\n    function mintWhitelist(uint256 _amount, bytes32[] calldata merkleProof) external payable {\n        require(totalSupply() < maxSupply, \"Max supply reached\");\n        require(_addressMintCount[msg.sender] < mintPerAddress, \"Exceeded max mint per address\");\n        require(msg.value >= pricePerNFT * _amount, \"Not enough balance\");\n        require(MerkleProof.verify(merkleProof, merkleRoot, toBytes32(msg.sender)) == true, \"invalid merkle proof\");\n        _addressMintCount[msg.sender] += _amount;\n        _mint(msg.sender, _amount);\n    }\n\n    function mintAdmin(uint256 _amount) external payable onlyAdmin {\n        require(totalSupply() < maxSupply, \"Max supply reached\");\n        _addressMintCount[msg.sender] += _amount;\n        _mint(msg.sender, _amount);\n    }\n\n    function setPrice(uint _amount) public onlyOwner {\n         pricePerNFT = _amount;\n    }\n\n    function setMaxMintPerAddress(uint _amount) public onlyOwner {\n        mintPerAddress = _amount;\n    }\n\n\n    function withdraw() public onlyAdmin {\n        payable(msg.sender).transfer(address(this).balance);\n    }\n    \n      function setBaseURI(string calldata baseURI) external onlyOwner {\n        _baseTokenURI = baseURI;\n    }\n\n    function _baseURI() internal view override returns (string memory) {\n        return _baseTokenURI;\n    }\n\n    function tokenURI(uint256 tokenId) public view virtual override returns (string memory) {\n        string memory baseURI = _baseURI();\n        return bytes(baseURI).length > 0 ? string(abi.encodePacked(baseURI, tokenId.toString(), \".json\")) : \"\";\n    }\n\n    function _startTokenId() internal pure override returns (uint256) {\n        return 1;\n    }\n\n    function toBytes32(address addr) pure internal returns (bytes32) {\n       return bytes32(uint256(uint160(addr)));\n    }\n\n}",
  "sourcePath": "/Users/cobra/Desktop/twinNFTFE/TwinNFTtruffle/contracts/FlappySealsWhitelist.sol",
  "compiler": {
    "name": "solc",
    "version": "0.8.17+commit.8df45f5f.Emscripten.clang"
  },
  "schemaVersion": "3.4.11",
  "updatedAt": "2023-03-03T04:29:34.043Z",
  "devdoc": {
    "kind": "dev",
    "methods": {
      "approve(address,uint256)": {
        "details": "Gives permission to `to` to transfer `tokenId` token to another account. The approval is cleared when the token is transferred. Only a single account can be approved at a time, so approving the zero address clears previous approvals. Requirements: - The caller must own the token or be an approved operator. - `tokenId` must exist. Emits an {Approval} event."
      },
      "balanceOf(address)": {
        "details": "Returns the number of tokens in `owner`'s account."
      },
      "getApproved(uint256)": {
        "details": "Returns the account approved for `tokenId` token. Requirements: - `tokenId` must exist."
      },
      "isApprovedForAll(address,address)": {
        "details": "Returns if the `operator` is allowed to manage all of the assets of `owner`. See {setApprovalForAll}."
      },
      "name()": {
        "details": "Returns the token collection name."
      },
      "owner()": {
        "details": "Returns the address of the current owner."
      },
      "ownerOf(uint256)": {
        "details": "Returns the owner of the `tokenId` token. Requirements: - `tokenId` must exist."
      },
      "renounceOwnership()": {
        "details": "Leaves the contract without owner. It will not be possible to call `onlyOwner` functions anymore. Can only be called by the current owner. NOTE: Renouncing ownership will leave the contract without an owner, thereby removing any functionality that is only available to the owner."
      },
      "safeTransferFrom(address,address,uint256)": {
        "details": "Equivalent to `safeTransferFrom(from, to, tokenId, '')`."
      },
      "safeTransferFrom(address,address,uint256,bytes)": {
        "details": "Safely transfers `tokenId` token from `from` to `to`. Requirements: - `from` cannot be the zero address. - `to` cannot be the zero address. - `tokenId` token must exist and be owned by `from`. - If the caller is not `from`, it must be approved to move this token by either {approve} or {setApprovalForAll}. - If `to` refers to a smart contract, it must implement {IERC721Receiver-onERC721Received}, which is called upon a safe transfer. Emits a {Transfer} event."
      },
      "setApprovalForAll(address,bool)": {
        "details": "Approve or remove `operator` as an operator for the caller. Operators can call {transferFrom} or {safeTransferFrom} for any token owned by the caller. Requirements: - The `operator` cannot be the caller. Emits an {ApprovalForAll} event."
      },
      "supportsInterface(bytes4)": {
        "details": "Returns true if this contract implements the interface defined by `interfaceId`. See the corresponding [EIP section](https://eips.ethereum.org/EIPS/eip-165#how-interfaces-are-identified) to learn more about how these ids are created. This function call must use less than 30000 gas."
      },
      "symbol()": {
        "details": "Returns the token collection symbol."
      },
      "tokenURI(uint256)": {
        "details": "Returns the Uniform Resource Identifier (URI) for `tokenId` token."
      },
      "totalSupply()": {
        "details": "Returns the total number of tokens in existence. Burned tokens will reduce the count. To get the total number of tokens minted, please see {_totalMinted}."
      },
      "transferFrom(address,address,uint256)": {
        "details": "Transfers `tokenId` from `from` to `to`. Requirements: - `from` cannot be the zero address. - `to` cannot be the zero address. - `tokenId` token must be owned by `from`. - If the caller is not `from`, it must be approved to move this token by either {approve} or {setApprovalForAll}. Emits a {Transfer} event."
      },
      "transferOwnership(address)": {
        "details": "Transfers ownership of the contract to a new account (`newOwner`). Can only be called by the current owner."
      }
    },
    "version": 1
  },
  "userdoc": {
    "errors": {
      "ApprovalCallerNotOwnerNorApproved()": [
        {
          "notice": "The caller must own the token or be an approved operator."
        }
      ],
      "ApprovalQueryForNonexistentToken()": [
        {
          "notice": "The token does not exist."
        }
      ],
      "BalanceQueryForZeroAddress()": [
        {
          "notice": "Cannot query the balance for the zero address."
        }
      ],
      "MintERC2309QuantityExceedsLimit()": [
        {
          "notice": "The `quantity` minted with ERC2309 exceeds the safety limit."
        }
      ],
      "MintToZeroAddress()": [
        {
          "notice": "Cannot mint to the zero address."
        }
      ],
      "MintZeroQuantity()": [
        {
          "notice": "The quantity of tokens minted must be more than zero."
        }
      ],
      "OwnerQueryForNonexistentToken()": [
        {
          "notice": "The token does not exist."
        }
      ],
      "OwnershipNotInitializedForExtraData()": [
        {
          "notice": "The `extraData` cannot be set on an unintialized ownership slot."
        }
      ],
      "TransferCallerNotOwnerNorApproved()": [
        {
          "notice": "The caller must own the token or be an approved operator."
        }
      ],
      "TransferFromIncorrectOwner()": [
        {
          "notice": "The token must be owned by `from`."
        }
      ],
      "TransferToNonERC721ReceiverImplementer()": [
        {
          "notice": "Cannot safely transfer to a contract that does not implement the ERC721Receiver interface."
        }
      ],
      "TransferToZeroAddress()": [
        {
          "notice": "Cannot transfer to the zero address."
        }
      ],
      "URIQueryForNonexistentToken()": [
        {
          "notice": "The token does not exist."
        }
      ]
    },
    "kind": "user",
    "methods": {},
    "version": 1
  }
}